:020000022000DC
:1060000000000120756302005D63020089980200B0
:106010006163020063630200656302000000000028
:1060200000000000000000000000000051C002005D
:10603000696302000000000075C002006D63020089
:1060400001EE02006F630200F9F802006F630200C4
:106050006F6302006F630200F5F702006F630200D6
:106060006F6302006F6302006F6302006F630200E0
:106070006F6302006F6302006F6302006F630200D0
:106080006F630200DDC402006F6302006F630200F1
:106090006F6302006F63020049B203006F63020086
:1060A0006F6302006F6302006F6302006F630200A0
:1060B0006F6302006F630200000000000000000038
:1060C0006F6302006F6302006F6302006F63020080
:1060D0006F6302006F6302006F6302000000000044
:1060E00000000000000000000000000000000000B0
:1060F00000000000000000000000000000000000A0
:10610000000000000000000000000000000000008F
:10611000000000000000000000000000000000007F
:10612000000000000000000000000000000000006F
:10613000000000000000000000000000000000005F
:10614000000000000000000000000000000000004F
:10615000000000000000000000000000000000003F
:10616000000000000000000000000000000000002F
:10617000000000000000000000000000000000001F
:10618000000000000000000000000000000000000F
:1061900000000000000000000000000000000000FF
:1061A00000000000000000000000000000000000EF
:1061B00000000000000000000000000000000000DF
:1061C00000000000000000000000000000000000CF
:1061D00000000000000000000000000000000000BF
:1061E00000000000000000000000000000000000AF
:1061F000000000000000000000000000000000009F
:10620000354936480A1A02D0072291438D4634494F
:1062100034480A1A06D00722914381F309880222E2
:1062200082F3148830483149314A00F044F831484B
:106230003149324A00F03FF831483249324A00F0E1
:106240003AF832483249334A00F035F83248334997
:10625000334A00F030F833483349344A00F02BF821
:1062600033483449344A00F026F83448344900228F
:1062700000F02CF833483449002200F027F8334866
:106280003349091A082902DB002202604160314AC1
:1062900090471F481F49884205D00268043003B464
:1062A000904703BCF7E700208646EC46002000211B
:1062B000294A9047FEE7884207D0521A05D0037852
:1062C00001300B700131013AF9D17047884202D098
:1062D00002700130FAE770470000012000F800204A
:1062E000000001200000012014F803007C59002068
:1062F000F05A0020D0630200D0630200ACC103005A
:1063000014F803007C5900207C59002034C303009A
:1063100034C3030034C3030034C3030034C3030095
:1063200034C3030034C3030034C3030013F8030071
:1063300088F90300F05A0020F05A0020F05A00209B
:106340003CCD00203CCD002040CD002040CD0020A1
:1063500040D100209D630200010B0300FEE7FEE731
:10636000FEE7FEE7FEE7FEE7FEE7FEE7FEE7FEE705
:1063700000F002B8FFF7FCBF0F484FF00701884359
:1063800085460E4880470E48016841F4700101605F
:10639000BFF34F8FBFF36F8FFFF732BF09480A4932
:1063A0000A4A884207D0521A05D0037801300B7090
:1063B0000131013AF9D170470000012089BB020088
:1063C00088ED00E020C30300685900207C590020BC
:1063D0000048704734CD002000B585B00190019B86
:1063E000002B0AD0074B43F001030393019B9B0151
:1063F0000293039B0298984700E000BF05B05DF848
:1064000004FB00BF40C3030000B583B00190019BB3
:10641000002B0AD04FF47A70FFF7DEFF019B013B9F
:106420000193019B002BF5D100E000BF03B05DF8A4
:1064300004FB08B50BF07EFC00BF08BD00B589B0B9
:10644000039002910192019B002B33D0002307930C
:1064500003230693029A079B1344019A19460020CE
:106460000BF018FC0590079A059B13440793019ABB
:10647000059BD31A0193059B002B13D10F4B1B785F
:1064800083F00103DBB2002B13D10120FFF7BCFF27
:10649000069B013B0693069B002B03D1074B002272
:1064A0001A7007E0054B01221A70019B002BD1D115
:1064B00000E000BF00BF09B05DF804FBF05A002007
:1064C00000B585B003900291054B00934023054A27
:1064D0000299039800F012F800BF05B05DF804FBC4
:1064E0003D640200F45A002082B0019000BF02B067
:1064F000704782B0019000BF02B0704700B5A1B0F4
:106500000590049103920293049804F045FF039BC5
:106510001593029B16930023179300238DF8603088
:1065200000231993229B1A9300231F930FA91F9BEB
:106530000822049804F0EEFF08231F93119B129386
:10654000BDF84030ADF84C30BDF84230ADF84E30BB
:1065500000238DF851309DF83C3003F00303DBB28B
:10656000012B26D10F9BC3F395231C939DF83C3040
:10657000C3F3C203DBB28DF85030BDF83C30C3F337
:106580008313DBB21B931B9B9A0009A91F9B0498E2
:1065900004F0C0FF1B9B9B001F9A13441F9312AA79
:1065A00009A915AB009313461B9A1C9800F0D2FE64
:1065B0002FE09DF83C3003F00303DBB2022B28D11F
:1065C000BDF83E30C3F389139BB21E939DF83C3057
:1065D000C3F3C203DBB28DF850301E9B082B28BFDB
:1065E00008231D9307A91F9B1D9A049804F092FF8E
:1065F0001F9A1D9B13441F931E9A1D9BD31A1E9313
:1066000015AB12AA07A81D9900F046FF1E9B002B90
:10661000E3D1049804F0CFFE00BF21B05DF804FB85
:1066200082B00190019BDB6801225A7100BF02B069
:106630007047000000B583B04FF0FF330193FFF7C0
:10664000F8FE0421054800F099FD01900348FFF78A
:10665000E7FF00BF03B05DF804FB00BF10C30300F9
:1066600000B583B001900091019B1B681B680099E5
:106670000198984700BF03B05DF804FB00B583B0F4
:106680000190019B1B685B680198984700BF03B0AD
:106690005DF804FB00B583B00190019B1B689B680B
:1066A0000198984700BF03B05DF804FB82B00190E9
:1066B0000B468DF80330019BDB689DF803201A71AF
:1066C00000BF02B0704782B00190019BDB681B796C
:1066D000184602B0704782B00190019BDB6801222E
:1066E0005A7100BF02B0704782B00190019BDB6815
:1066F0005B79184602B0704700B585B001900091F3
:106700000C4B01221A700C4804F0AAFD0390039B65
:10671000002B01D0039B08E0084804F00FFF084A53
:10672000084BD31ADB0802930023184605B05DF826
:1067300004FB00BF9C5C00202CC2030058C3030074
:1067400010C3030040C20300024A034BD31ADB0804
:106750001846704710C3030040C2030000B587B05D
:1067600001900B468DF803309DF80330002B1FD0AD
:10677000FFF7EAFF04900023059313E0059B9B00BD
:106780000E4A13440393039B1B881A46019B1B6804
:106790009A4204D1019B059A1A60002309E0059BE7
:1067A00001330593059A049B9A42E7D3052300E041
:1067B0000023184607B05DF804FB00BF7C59002099
:1067C00000B585B001900B468DF803309DF803208D
:1067D00001AB11461846FFF7C1FF0346002B07D156
:1067E000019BDB00054A13440393039B1B6800E0F5
:1067F0000023184605B05DF804FB00BF40C203004B
:1068000084B001900B468DF80330019BDB00174AE2
:10681000134402939DF80330013B032B1CD801A2C3
:1068200052F823F0356802003D6802004568020016
:106830004F68020002238DF80F3011E004238DF819
:106840000F300DE0029B1B798DF80F3008E0029BA2
:106850005B798DF80F3003E000238DF80F3000BF17
:106860009DF80F30184604B0704700BF40C20300C7
:1068700084B00190009100238DF80F30019B1B78AC
:1068800003F00403DBB2002B24D0019B1B78C3F37D
:106890000103DBB2012B02D0022B0CD017E0009BCE
:1068A0001B68019A1288C2F38312D2B213449A1C55
:1068B000009B1A600BE0009B1B68019A5288C2F390
:1068C000891292B213449A1C009B1A6000BF0123E4
:1068D0008DF80F309DF80F30184604B07047000057
:1068E00000B58BB00023ADF826303B4803F0A1FB88
:1068F0003A4803F09EFB3A4B9B680493394B1B6864
:106900000693049A069B134002339B00344A1344B7
:106910000433089304AB19460898FFF7A9FF034610
:10692000002B09D0049A069B134002339B002C4A8B
:10693000134404330893EDE700BF0023079311E0ED
:10694000049B5A1C0492069A1340079A920001A9CC
:106950000A44234902339B000B445B681360079B86
:1069600001330793079B012BEAD99DF80430C3F349
:106970000103DBB2012B10D0022B1CD1BDF80A3071
:10698000ADF82630BDF80630C3F389139BB203334C
:106990009A08049B134404930EE0BDF80A30ADF846
:1069A0002630BDF80430C3F38313DBB21A46049BD0
:1069B0001344049300E000BF084803F046FB059031
:1069C000059B002B02D0049B054A9360BDF826303E
:1069D00018460BB05DF804FBB47C0020B07C0020AE
:1069E0009C5C00208459002000B585B00021074838
:1069F00003F054FA0390039B0293029B83F310036A
:106A00000193019B184605B05DF804FBB87C00209B
:106A100000B589B00390029101920093039B1B0C77
:106A20000693FFF7E1FF0790079B1904009B5A1C90
:106A30000A9B1340069A0A431B4902339B000B44EE
:106A40005A60009A0A9B134002339B00164A134473
:106A500004330593039B03F00703D9B2059A137817
:106A600061F3C5031370019B03F00F03D9B2059ABC
:106A7000138861F389131380029BC3F31501059AF0
:106A8000136861F39F231360059A1378012161F362
:106A900001031370059A13786FF38203137000BF1C
:106AA00009B05DF804FB00BF9C5C002000B58DB010
:106AB0000390029113468DF80730039B02330A932B
:106AC00001238DF8273000238DF81B300DF11B03B7
:106AD000184600F05BFF404B5A68029B1A603F4B20
:106AE0001A683D4B99683C4B5B68CB1A13440133E1
:106AF0000B9314E001213A4803F05FFAFFF7F0FE30
:106B000007900799364803F058FA344B1A68324B0D
:106B10009968314B5B68CB1A134401330B930A9A83
:106B20000B9B9A42E6D89DF82730002B48D00023D3
:106B300005939DF80730002B17D09DF814300122E3
:106B400062F301038DF814309DF8143043F0040310
:106B50008DF81430039B03F00F03DAB2BDF8143044
:106B600062F38913ADF8143016E09DF81430022258
:106B700062F301038DF814309DF8143043F00403E0
:106B80008DF81430039BC3F309039AB2BDF8163095
:106B900062F38F13ADF816300F4B5A680F4B1B681A
:106BA000134002339B000C4A134404330893059AA4
:106BB000089B1A60084B5A680A9B1344064A5360A4
:106BC0009DF81B30184600F0EBFE9DF82730184664
:106BD0000DB05DF804FB00BF9C5C002084590020D0
:106BE000B87C002000B58BB005900491039202930D
:106BF0001F4B1B68079306AB012219460298FFF74B
:106C000055FF0346002B24D0069B02330993002333
:106C1000089311E0089B9B00039A1A44099B591C96
:106C2000099107990B401268124902339B000B44EB
:106C30005A60089B01330893089A029B9A42E9D351
:106C4000069A079B00931346029A04990598FFF74A
:106C5000DFFE084B1B78002B05D000BF00F07CF84E
:106C60000346002BFAD100BF0BB05DF804FB00BF58
:106C7000845900209C5C002000B583B001900091F5
:106C80000023002200990198FFF7ACFF00BF03B07A
:106C90005DF804FB00B587B0039002910192019B5F
:106CA000059305AA012302990398FFF79BFF00BFF4
:106CB00007B05DF804FB00B587B003900291019224
:106CC0000093019B0493009B059304AA022302995D
:106CD0000398FFF787FF00BF07B05DF804FB00B51E
:106CE00089B00390029101920093019B0593009B50
:106CF00006930A9B079305AA032302990398FFF7BB
:106D000071FF00BF09B05DF804FB00B589B00390C6
:106D1000029101920093019B0493009B05930A9BAF
:106D200006930B9B079304AA042302990398FFF789
:106D300059FF00BF09B05DF804FB0000054B9A68DD
:106D4000044B5B689A420CBF01230023DBB2184658
:106D5000704700BF9C5C002000B599B0FFF7EEFFC4
:106D60000346002B01D00023C6E19C4B03F50053E2
:106D70001A4600239361BFF34F8F00BF974B9B6868
:106D80000493974B1B681093049A109B1340023393
:106D90009B00924A1344043311930023179300235A
:106DA000169300230F9304AB19461198FFF760FD6B
:106DB0000346002B1AD0894B03F500539B69002B27
:106DC00014D1864B5A68049B9A4205D8834B5B6862
:106DD000824A936000238FE1049A109B1340023390
:106DE0009B007E4A134404331193DCE70023159380
:106DF00011E0049B5A1C0492109A1340159A9200B9
:106E000001A90A44754902339B000B445B68136077
:106E1000159B01331593159B012BEAD99DF804307E
:106E200003F00303DBB2022B40F09C80BDF8063078
:106E3000C3F389139BB20D93BDF80630C3F38913D6
:106E40009BB2502B28BF50239BB20C930C9BC3F3D7
:106E500009039AB2BDF8063062F38F13ADF806301D
:106E60000C9B08330B939DF80430C3F3C203DBB2D1
:106E70000F930B995B4804F0FEF91790179B002BBA
:106E800000F0D280179804F087FA01A9169B082217
:106E9000179804F02BFB169B08331693049BDA43D8
:106EA000109B134001339B000A930C9A0A9B9A4251
:106EB00042D90A9B002B08D0049A109B134002333E
:106EC0009B00464A1344043300E0474B08930A9B57
:106ED000002B02D00A9BDBB201E00C9BDBB28DF8E9
:106EE0001F300A9B002B01D03F4B00E0002306938C
:106EF0000A9B002B06D00C9BDAB20A9BDBB2D31A9A
:106F0000DBB200E000238DF817309DF81F20169BA0
:106F10000899179804F0EAFA9DF81F30169A13445E
:106F20001693069B002B16D09DF81720169B0699EA
:106F3000179804F0DBFA0EE0049A109B134002331A
:106F40009B00264A134404330993169B0C9A099913
:106F5000179804F0CBFA0D9B03339A08049B134453
:106F6000049361E09DF8043003F00303DBB2012BCE
:106F70005AD1BDF80430C3F38313DBB2062B28BF0C
:106F80000623DAB2BDF8043062F38913ADF8043099
:106F9000BDF80430C3F38313DBB202330E939DF8C4
:106FA0000430C3F3C203DBB20F930E9B9B00194660
:106FB0000C4804F060F91790179B002B34D01798F9
:106FC00004F0EAF901A9169B0822179804F08EFA3A
:106FD000169B08331693002315931CE09C5C00203D
:106FE000845900202CC20300A85C0020049B5A1C7A
:106FF0000492109A134002339B00414A1344191D16
:10700000169B0422179804F071FA169B043316930A
:10701000159B01331593BDF80430C3F38313DBB222
:107020001A46159B9342E1D3179B002B43D0344B58
:1070300003F500531B691493314B03F500539B690F
:10704000002B1BD0179804F0B6F94FE000238DF801
:107050004F301498FFF748FB0346002B02D0012362
:107060008DF84F309DF84F30002B03D017991498AE
:10707000FFF7F6FA149BDB681B681493149B002B34
:10708000E4D1179804F097F900238DF803300DF13F
:107090000303184600F07AFC194B03F500539B6973
:1070A000002B02D1049B164A93609DF803301846CA
:1070B00000F076FC1AE0124B03F500531B691293A3
:1070C00006E01298FFF7E6FA129BDB681B68129342
:1070D000129B002BF5D10B4A0B4BD31ADB081B0478
:1070E00043F0020309491846FFF7C6FDFFF726FEE5
:1070F000034683F00103DBB2184619B05DF804FBC8
:107100009C5C002068C2030040C2030068C3030007
:1071100000B585B00023039324E0174B03F500531B
:107120001B69029301238DF807300FE00298FFF7E7
:10713000CAFA03461A46039B934203D100238DF8F3
:10714000073006E0029BDB681B680293029B002B62
:10715000ECD19DF80730002B01D0039B07E0039B87
:1071600001330393039B092BD7DD4FF0FF33184600
:1071700005B05DF804FB00BF9C5C002000B585B045
:1071800001900B468DF80330FFF7C2FF0390039B7D
:10719000B3F1FF3F01D1039B27E0039BDBB219460C
:1071A0000198FFF783FA134B03F500531B69002B7B
:1071B0000AD1104B03F500531A46019B1361019B42
:1071C000DB6800221A600FE00A4B03F500531B69CD
:1071D000DA68019BDB6812681A60064B03F50053FE
:1071E0001B69DB68019A1A60039B184605B05DF8BD
:1071F00004FB00BF9C5C002000B583B00D4B03F581
:1072000000531B6901930B4B01221A7009E001988E
:10721000FFF761FA0198FFF731FA019BDB681B6801
:107220000193019B002BF2D100BF00BF03B05DF8BA
:1072300004FB00BF9C5C002082B00190009100BF65
:1072400002B0704710B584B003900291039BDB88B5
:10725000002B0AD0039BDB881A461F4B0093134672
:107260001E4A1F49029802F0BEFF039B1B7A052BA2
:107270002ED0039B5B7A002B12D0039B9B881A466F
:10728000039B1B7A19461046FFF7BAFA03461A46C3
:10729000144B53F822301A461349029802F0A3FF08
:1072A000039B1B6819460298FFF7C6FF039B1B7AD6
:1072B0001A460E4B53F82240039B9B880021184628
:1072C000FFF77EFA034622460949029802F08BFF37
:1072D00000BF04B010BD00BF9CC30300ACC30300DB
:1072E000E4C303009C590020FCC30300885900201C
:1072F00000C4030000B585B00390029113468DF8D9
:107300000730039B1B7A052B0FD0039B5B7A002B66
:1073100006D00D4B1B681A460C49029802F063FF19
:107320000B49029802F05FFF07E09DF80730002B41
:1073300003D00749029802F056FF029802F03BFF83
:1073400000BF05B05DF804FB9C590020FCC303009E
:107350000CC4030030B58BB00790069105920493DE
:107360000E9B1B7B8DF827300E9B00221A730E9903
:107370000498FFF767FF059B062B7FD801A252F800
:1073800023F000BFA1730200AB730200BB730200C5
:10739000CF730200ED730200157402004574020001
:1073A00007990E9802F01FFF69E0069B1B681A46BA
:1073B00007990E9802F017FF61E0069B1A68069B7A
:1073C00004331B6807990E9802F00DFF57E0069BE7
:1073D0001A68069B04331968069B08331B680093E0
:1073E0000B4607990E9802F0FEFE48E0069B1968CE
:1073F000069B04331868069B08331B68069A0C32F8
:1074000012680192009303460A4607990E9802F00B
:10741000EAFE34E0069B1868069B04331C68069B52
:1074200008331B68069A0C321268069910310968F5
:107430000291019200932346024607990E9802F0AA
:10744000D2FE1CE0069B1C68069B04331D68069B4D
:1074500008331B68069A0C321268069910310968C5
:1074600006981430006803900291019200932B4615
:10747000224607990E9802F0B6FE00E000BF0022F7
:107480000E990498FFF736FF0E9B9DF827201A737C
:1074900000BF0BB030BD00BF00B587B003900291B4
:1074A00001920093029B082B60D8009B1B7B8DF8F8
:1074B0001330009B00221A7300990198FFF7C2FE57
:1074C0000023059314E0059A029B9A4209D2039A7D
:1074D000059B13441B781A462649009802F083FE48
:1074E00003E02549009802F07EFE059B01330593D9
:1074F000059B072BE7D92149009802F074FE002371
:10750000059326E0059A029B9A421BD2039A059B9B
:1075100013441B788DF812309DF812307E2B0AD858
:107520009DF81230184614F001F80346002B02D0E3
:107530009DF8123000E02E231A461149009802F0FF
:1075400052FE03E00F49009802F04DFE059B013307
:107550000593059B072BD5D9012200990198FFF7C8
:10756000C9FE009B9DF813201A7300E000BF07B00E
:107570005DF804FB10C4030018C403001CC403001E
:1075800020C4030024C4030000B587B00190002389
:10759000039300230493019B059303AB1A46002138
:1075A00044F2010000F018F800BF07B05DF804FBDA
:1075B000BFF34F8F00BF064BDB6803F4E062044962
:1075C000044B1343CB60BFF34F8F00BF00BFFDE7F9
:1075D00000ED00E00400FA0500B585B003900291CB
:1075E000019272B600BFFFF707FE00BFFFF7B4FBC2
:1075F0000346002BFAD10F4A0F4BD31ADB081B04AA
:1076000043F001030D491846FFF736FB0C4B1B688E
:1076100003F00103002B00D000BE064A064BD31A2C
:10762000DB081B0443F0020306491846FFF724FB5E
:10763000FFF7BEFF68C2030040C2030034C403006A
:10764000F0ED00E040C4030000B585B00190019862
:1076500006F06EFF0390039B1B7B002B0CD0039B5B
:107660005B7B83F00103DAB2039B1A73039B9B6875
:10767000039A12681046984700BF05B05DF804FBF6
:10768000002318467047000000B58BB005900B46EC
:1076900003928DF81330059B1B6808930023099310
:1076A000039B002B02D0059B002B01D1072338E060
:1076B000089B1B7B002B01D0082332E0089B5B68F2
:1076C000002B2BD110220021089814F0C3F99DF84B
:1076D0001330002B14BF01230023DBB207939DF866
:1076E0001330002B0CBF01230023DAB2089B5A731E
:1076F000089B039A9A600D4B0093089B079A4FF4DE
:107700007A710B4806F07EFC0246089B5A60089B83
:107710005B68002B04D10E23099301E0082300E0ED
:10772000099B18460BB05DF804FB00BF49760200C8
:1077300050C4030000B58BB0059004910392059BE3
:107740000993099B5B680893089B002B01D10823D0
:107750005AE0099B1B7B002B01D0002354E0099BBE
:10776000039A1A60EFF305830793079B002B2BD036
:107770000023069306AB00220092049A0921089880
:1077800006F080FC0346012B01D004233CE005F009
:1077900017FF024606AB002100910621089806F06B
:1077A00071FC0346012B01D004232DE0069B002B26
:1077B00026D0174B4FF080525A6040BFBFF34F8F17
:1077C00000BFBFF36F8F1BE0022300930023049AD6
:1077D0000421089806F056FC0346012B01D004232F
:1077E00012E005F0E3FE024602230093002301218C
:1077F000089806F047FC0346012B01D0042303E060
:10780000099B01221A73002318460BB05DF804FB94
:1078100000ED00E000B589B00390039B0793079B40
:107820005B680693069B002B01D1082333E0EFF33E
:1078300005830593059B002B1CD00023049304AB08
:107840000022009200220821069806F01BFC034645
:10785000012B01D004231EE0049B002B17D0104BFA
:107860004FF080525A6040BFBFF34F8F00BFBFF34D
:107870006F8F0CE00223009300230022032106985F
:1078800006F000FC0346012B01D0042303E0079B14
:1078900000221A730023184609B05DF804FB00BFEC
:1078A00000ED00E082B0EFF310830093009B0193A2
:1078B00072B600BF019B184602B0704762B600BFA7
:1078C00000BF704700B585B00190FFF7EBFF039054
:1078D000164B9B68002B1BD1144B01229A60144B52
:1078E000D3F88020134B1340104A1360104B114AF9
:1078F000C3F880200E4BD3F884300C4A53600C4BF5
:107900004FF0FF32C3F88420019B00221A7002E07E
:10791000019B01221A70039B002B01D1FFF7CEFFC0
:107920000023184605B05DF804FB00BFBC7C0020B6
:1079300000E100E0FC06FFBD00B585B003468DF810
:107940000730104B9B68002B16D09DF80730002B9A
:1079500012D1FFF7A7FF03900B4A0A4B1B68136075
:10796000094A084B5B685360064B00229A60039BF0
:10797000002B01D1FFF7A2FF0023184605B05DF8E8
:1079800004FB00BFBC7C002000E100E000B583B038
:1079900001900198FFF796FF00BF03B05DF804FB6C
:1079A00000B583B003468DF807309DF807301846C0
:1079B000FFF7C2FF00BF03B05DF804FB82B0019087
:1079C000019B03F00303002B0CBF01230023DBB258
:1079D000184602B07047000000B585B00190002342
:1079E00003930EE00B4A039B52F82330002B05D083
:1079F000084A039B52F8233001989847039B0133B0
:107A00000393039B032BEDD900BF00BF05B05DF8C6
:107A100004FB00BFD87C002082B001900091019B44
:107A20001B78013B052B61D801A252F823F000BF5F
:107A3000497A0200517A0200777A0200A97A02009C
:107A4000C97A0200E57A0200009B00221A704EE01B
:107A5000009B01221A70019B1A89009B9A81019B4D
:107A60009A88009BDA81019BDA68009B9A60009BF0
:107A700000221A743BE0009B02221A70019B1A89B3
:107A8000009B9A81019B9A88009BDA81019BDA68AE
:107A9000009B9A60019B9B7D062B0CBF012300235A
:107AA000DAB2009B1A7422E0009B03221A70019B39
:107AB000DA88009B9A81019B1A89009BDA81019BDD
:107AC000DA68009B9A6012E0009B04221A70019B06
:107AD000DA88009B9A81009B0022DA81009B0022B9
:107AE0009A6004E0009B05221A7000E000BF00BF0E
:107AF00002B0704784B001900091019B0393039AF8
:107B0000009B9A4206D2039B1B68B3F1FF3F01D052
:107B1000012300E0002303F00103DBB2184604B0A8
:107B2000704782B00190019B5B8803339B00019AF0
:107B30001344184602B0704700B583B0019000911D
:107B40000198FFF7EEFF0246009B934201D2022309
:107B500011E0019B9B884FF6FF72934208D0019B76
:107B60001B88002B04D0019B9B68B3F1FF3F01D120
:107B7000012300E00023184603B05DF804FB000079
:107B800000B583B00190019B002B13D00D4BDB6837
:107B90001A46019B93420DD30A4B1B691A46019B5F
:107BA000934207D80198FFF709FF0346002B01D045
:107BB000012300E0002303F00103DBB2184603B009
:107BC0005DF804FB6859002082B00190019B002BF6
:107BD00004D0019B1B680B4A934201D003230DE0A4
:107BE000019B04331B68084A934204D0074A93421E
:107BF00003D1012302E0002300E00323184602B072
:107C0000704700BFDEC0ADDEFE011EF1FF011EF1B8
:107C100084B00190019B1B68B3F1FF3F06D0019B2C
:107C20001B680E4A934201D0002314E00123039302
:107C30000CE0039B9B00019A13441B68B3F1FF3FC8
:107C400001D0002307E0039B01330393039BB3F5AB
:107C5000806FEED30123184604B07047DEC0ADDE5E
:107C600082B003460A46ADF806301346ADF804303C
:107C7000BDF80620134913469B0013449B000B4498
:107C800008331A88BDF804301344ADF80430BDF849
:107C900006200C4913469B0013449B000B440A33F7
:107CA0001A88BDF804301344ADF80430BDF8043030
:107CB000B3F5806F94BF01230023DBB2184602B0F6
:107CC000704700BF887D002084B00190009148F289
:107CD000096303930023ADF80A3027E0BDF80A20BA
:107CE000164913469B0013449B000B4404331B6846
:107CF000009A9A4215D9BDF80A20104913469B00F4
:107D000013449B000B4404331B6803F58053009A13
:107D10009A4206D200230393019BBDF80A201A80E1
:107D200008E0BDF80A300133ADF80A30BDF80A307A
:107D3000012BD3D9039B184604B07047887D0020DF
:107D400000B589B0039002910192039B03F5805323
:107D50000693039B08330393029B02221A80039B22
:107D6000079332E006990798FFF7E6FE03468DF881
:107D700017309DF81730002B0AD1079B9A68184BD3
:107D80001B689A4213D9079B9B68154A13600EE043
:107D9000019B002B02D0019B01221A709DF8173025
:107DA000022B04D1029B4FF480621A8014E0029BE4
:107DB0001A88079B5B8813449BB203339AB2029BD9
:107DC0001A800798FFF7ADFE079006990798FFF70E
:107DD00091FE0346002BC5D109B05DF804FB00BF3E
:107DE000E87C002082B001900091009B9B7D022BDB
:107DF00009D9019B1A89009BDB8813449BB203338A
:107E00009AB2019B1A81019B5A89009BDB88D31A85
:107E10009BB2033B9AB2019B5A8100BF02B07047EC
:107E200000B583B0074B1B68194600230093082355
:107E3000054A064802F082FD0346184603B05DF885
:107E400004FB00BFB07D002054C40300685900202B
:107E500000B585B003900399002300930823044ADA
:107E6000044802F06BFD0346184605B05DF804FBBC
:107E70005CC403006859002000B585B0034600913A
:107E8000ADF8063000238DF80F30BDF8063003330F
:107E9000ADF80A30BDF80A3040F2FE32934202D902
:107EA00048F208634BE00023ADF80C303BE0BDF82E
:107EB0000C20254913469B0013449B000B441B7860
:107EC000002B2BD1BDF80A20BDF80C301146184606
:107ED000FFF7C6FE0346002B20D001238DF80F309C
:107EE000009BBDF80C201A80BDF80C2016491346E3
:107EF0009B0013449B000B440A331988BDF80C20E7
:107F0000BDF80A300B4498B20F4913469B00134446
:107F10009B000B440A3302461A8008E0BDF80C307F
:107F20000133ADF80C30BDF80C30012BBFD99DF8F2
:107F30000F30002B01D0002301E048F20663184601
:107F400005B05DF804FB00BF887D002082B00346C9
:107F50000A46ADF806301346ADF80430BDF80420EB
:107F60000D4913469B0013449B000B440A331A88A7
:107F7000BDF80630D31A9BB2BDF80420033B98B27B
:107F8000054913469B0013449B000B440A330246E9
:107F90001A8000BF02B07047887D002008B501211B
:107FA000024802F00AF80346184608BDE87C0020A3
:107FB00000B585B003460091ADF80630BDF8062047
:107FC000244913469B0013449B000B4404331B6855
:107FD00003F580530293009B1B680393039B002BC4
:107FE00004D00398FFF79DFD039026E0BDF806201E
:107FF000184913469B0013449B000B4404331B6831
:108000000833039319E002990398FFF795FD03469F
:10801000022B10D0022B10DC002B02D0012B05D03C
:108020000BE0009B039A1A6001230EE00398FFF710
:1080300078FD039001E0002307E002990398FFF721
:1080400059FD0346002BDED10023184605B05DF82C
:1080500004FB00BF887D002000B585B00190009131
:10806000019B5B681846FFF78BFD0346002B19D078
:10807000019B1A89244B1B899A4213D1019B1A68D0
:10808000019B5B689B689A420CD1019B5B68194617
:108090000098FFF719FE0346002B0CBF01230023B5
:1080A000DBB22CE0009B00221A8023E00023029325
:1080B00010E0029B0393039B9A68019B1B689A4202
:1080C00008D1029A019B5A600F4B1A89019B1A81B1
:1080D000012314E0009B1B8802AA11461846FFF7F3
:1080E00067FF0346002BE4D1009B1B8801339AB243
:1080F000009B1A80009B1B88012BD7D900231846B0
:1081000005B05DF804FB00BFB87D002000B587B066
:108110000390029101920093324B1B78DBB283F003
:108120000103DBB2002B02D048F2016355E0019B52
:10813000002B02D0009B002B49D148F204634CE095
:10814000009B9B881946284A0B469B000B449B00CA
:1081500013441B78002B33D124E0009B1B6805934C
:10816000039B002B06D0059B9A88039B1B889A4291
:1081700000D017E0029B002B06D0059B1A88029BBB
:108180001B889A4200D00DE0059B9A68019B1A60FB
:10819000009B1A68019B5A60144B1A89019B1A8133
:1081A00000231AE0009B9B88009A11461846FFF7AF
:1081B000FFFE0346002BD0D1009B00221A6000E096
:1081C00000BF009B9B8801339AB2009B9A80009B62
:1081D0009B88012BB4D948F20963184607B05DF8B3
:1081E00004FB00BFC87C0020887D0020B87D0020F3
:1081F00000B587B00291019200930346ADF80E30AE
:10820000BDF80E20324913469B0013449B000B44DB
:1082100004331B6808330593BDF80E202C49134620
:108220009B0013449B000B4404331B6803F58053ED
:10823000049342E004990598FFF77EFC0346022B65
:1082400025D0022B38DC002B16D0012B34D1019B1A
:108250001B8801339AB2019B1A80009B1A88059BE8
:108260005B8813449BB203339AB2009B1A80059833
:10827000FFF757FC059020E0029B1B8801339AB260
:10828000029B1A800598FFF74CFC059015E0019BB6
:108290001B8801339AB2019B1A80009B1A880499AB
:1082A000059BCB1A9B109BB213449AB2009B1A8079
:1082B000089B01221A7007E000BF04990598FFF798
:1082C00019FC0346002BB5D107B05DF804FB00BFD5
:1082D000887D002000B585B00190084B01991846B3
:1082E00001F0B6FC03901C220021039813F0B2FBAE
:1082F000039B184605B05DF804FB00BF787D0020A5
:1083000000B583B00190044B0199184601F0B9FC07
:1083100000BF03B05DF804FB787D002000B583B09A
:108320000190054B0199184601F0BFFC0346184621
:1083300003B05DF804FB00BF787D002000B583B07A
:108340000190044B0199184601F0C8FC00BF03B02E
:108350005DF804FB787D002008B50121054801F097
:1083600044FE0346002B14BF01230023DBB2184652
:1083700008BD00BFD07C002000B587B00023059366
:108380000023ADF812300323ADF8103000238DF830
:108390000F300023ADF80C30F7E0BDF80C301A03B5
:1083A000824BDB68134402930298FFF70DFC0346EF
:1083B0008DF807309DF80730032B08D0032B00F30E
:1083C000DE80002B65D0012B00F09880D7E002986A
:1083D000FFF71EFC0346002B3BD0754B1B68002BA0
:1083E00029D0BDF81220734913469B0013449B000B
:1083F0000B4402221A70BDF812206E4913469B00EE
:1084000013449B000B440433029A1A60BDF81220F7
:10841000684913469B0013449B000B440833022217
:108420001A80654ABDF812305380BDF8123001330E
:10843000ADF8123008E05E4A029B13605C4B0222EA
:108440009A8001238DF80F30059B43F001030593BB
:1084500096E0BDF81030013BADF81030BDF81220A9
:10846000544913469B0013449B000B440433029A67
:108470001A60BDF812204F4913469B0013449B001D
:108480000B4403221A70BDF812300133ADF81230DC
:1084900076E0BDF81220474913469B0013449B0029
:1084A0000B4400221A70BDF81220424913469B006B
:1084B00013449B000B440433029A1A60BDF8122047
:1084C00013469B0013449B0008333A4A9918BDF8A1
:1084D000122013469B0013449B001033354A13446B
:1084E0001A460298FFF72CFC059B43F00203059304
:1084F000BDF812300133ADF8123041E09DF80F3075
:10850000002B29D0BDF812202A4913469B001344A2
:108510009B000B4402221A70BDF81220244B1968EC
:10852000244813469B0013449B0003440433196002
:10853000BDF812201F4913469B0013449B000B44B7
:10854000083302221A801C4ABDF812305380BDF84D
:1085500012300133ADF81230154A029B136000222D
:1085600016490298FFF7ECFB114B9B88022B01D1B7
:10857000042300E00823059A1343059300E000BF9D
:10858000BDF80C300133ADF80C30BDF80C30022BC7
:108590007FF603AFBDF81030012B01D800230593FF
:1085A000059BDBB2184607B05DF804FB6859002054
:1085B000B07D0020887D0020B87D0020B47D0020A3
:1085C00000B587B003900291039B02229A7502992D
:1085D000039B1A1D002300930423074802F0AEF901
:1085E0000590059B002B01D1002301E048F20D63AB
:1085F000184607B05DF804FB6859002000B587B045
:1086000003900291039B1B69002B01D0032200E021
:108610000122039B9A75029B08331946039B03F1C1
:108620000C02002300930423074802F087F9059009
:10863000059B002B01D1002301E048F20D63184691
:1086400007B05DF804FB00BF6859002000B587B093
:1086500003900291039B1B78032B01D1052200E0BC
:108660000622039B9A75029B04331946039B03F170
:108670000802002300930423074802F05FF90590E5
:10868000059B002B01D1002301E048F20D63184641
:1086900007B05DF804FB00BF6859002000B587B043
:1086A00003900B46ADF80A3003990023009304238E
:1086B0000D4A0E4802F042F90590059B002B02D0AE
:1086C00048F20D630BE0BDF80A20094913469B00F0
:1086D00013449B000B44103301221A7000231846E8
:1086E00007B05DF804FB00BF64C4030068590020B4
:1086F000887D002000B589B0019002AB00221A608D
:108700005A609A60019BDB6802930DF1160202AB7E
:1087100011461846FFF7A0FC0346002B12D0039B1E
:108720000693069B9A88019BDA80069B1A88019B18
:108730001A81039BBDF8162011461846FFF7AEFFBD
:10874000079002E048F209630793079B184609B0B7
:108750005DF804FB00B587B00190019B981D02AA4B
:108760000D4B0021FFF7D2FC0590059B002B08D193
:10877000039B094A928811461846FFF78FFF059020
:1087800004E008220021044813F064F9059B184610
:1087900007B05DF804FB00BFC87D002000B587B0BE
:1087A00003900291039B01229A75029B0C33184699
:1087B000039B1A69039BDB889B0000210091014603
:1087C000074802F0BBF80590059B002B01D1002360
:1087D00001E048F20D63184607B05DF804FB00BFE6
:1087E0006859002082B0184B1B8901339AB2164B8E
:1087F0001A81154B00225A80134B00221A73002352
:10880000ADF8063018E0BDF80620104913469B006D
:1088100013449B000B441A78BDF80630002A0CBFA5
:1088200001220022D1B2084A13440A469A72BDF8C6
:1088300006300133ADF80630BDF80630012BE2D921
:1088400000BF00BF02B07047B87D0020887D0020C7
:1088500084B0019000238DF80F300023ADF80C3068
:1088600031E0BDF80C301C4A13449B7A002B25D014
:10887000BDF80C30184A134400229A72BDF80C203F
:10888000164913469B0013449B000B440C331B6892
:10889000002B13D1BDF80C20104913469B00134444
:1088A0009B000B4410331B78002B07D0019BBDF8B5
:1088B0000C201A8001238DF80F3008E0BDF80C3031
:1088C0000133ADF80C30BDF80C30012BC9D99DF83F
:1088D0000F30184604B07047B87D0020887D002016
:1088E00008B5084B05221A70074B02229A80064BE6
:1088F0001B68194600230122044802F001F90346CF
:10890000184608BDB87D0020B07D002068590020C1
:1089100000B583B0164B5B88ADF80230BDF802207D
:10892000144913469B0013449B000B440C331B68F3
:10893000002B14D10E4B04221A70BDF802200D49F1
:1089400013469B0013449B000B4404331B681946D9
:1089500000230122084802F0D3F8019002E0FFF75B
:10896000BFFF0190019B184603B05DF804FB00BFF8
:10897000B87D0020887D00206859002000B587B0B0
:10898000104B5B680593104B1A680F4B9B889B003C
:1089900013440493059B5B880333ADF80E30094BF9
:1089A00003221A700499074B5A68BDF80E309B00D9
:1089B00000200090054801F0C1FF0346184607B0AB
:1089C0005DF804FBB87D0020B07D002068590020D0
:1089D00000B583B00A4B5B880A491846FFF7E8FAEE
:1089E0000346002B03D0FFF7C9FF019002E0FFF719
:1089F0008FFF0190019B184603B05DF804FB00BF98
:108A0000B87D0020BC7D002008B50A4B06221A70F4
:108A1000084B5B881946084A0B469B000B449B0099
:108A2000134404331B681846FFF712FA034618462E
:108A300008BD00BFB87D0020887D002008B5054B2B
:108A400007221A70034B00225A60FFF7E9F9034628
:108A5000184608BDB87D002008B50D48FFF7F8FEA0
:108A6000034683F00103DBB2002B0BD0094B00223D
:108A70001A70084B00225A80064B00225A6041F6B9
:108A80001D5302E0FFF7A4FF0346184608BD00BFD0
:108A9000BA7D0020B87D002082B0094B5B6801934D
:108AA000019B5B880333ADF80230064B9A88BDF812
:108AB000023013449AB2034B9A8000BF02B0704751
:108AC000B87D0020B07D002082B01E4B1B68019352
:108AD0001D4B5B8819461D4A0B469B000B449B00AF
:108AE000134404331B68174A1360174B5B881946FD
:108AF000164A0B469B000B449B0013440433019A17
:108B00001A60114B5B8819460E4B98880F4A0B462A
:108B10009B000B449B001344083302461A80094B08
:108B200002229A80084B5B881946084A0B469B0034
:108B30000B449B001344103300221A7000BF02B094
:108B4000704700BFB07D0020B87D0020887D0020E8
:108B500008B51A4B1B78072B2CD801A252F823F02A
:108B6000818B0200B58B0200B58B02008D8B020059
:108B7000998B0200A58B0200A58B0200AD8B020031
:108B8000FFF730FE0D4B01221A7014E0FFF784FF4F
:108B90000A4B02221A700EE0FFF796FF074B0622DF
:108BA0001A7008E0054B07221A7004E0034B0122FB
:108BB0001A7000E000BF00BF08BD00BFB87D0020F4
:108BC00000B587B00190009148F20E630593019BB8
:108BD000002B05D0634B00225A604FF40643BCE0E3
:108BE000009B1B79032B00F2AB8001A252F823F00B
:108BF000018C02000F8C02009D8C0200BD8C0200D3
:108C0000009B01221A71FFF70BF905909BE00023EE
:108C10008DF813300023ADF810302BE0BDF8102094
:108C2000514913469B0013449B000B441B78022BB5
:108C30001BD1BDF810204C4913469B0013449B00E8
:108C40000B4400221A7001238DF81330BDF8102058
:108C5000454913469B0013449B000B4404331B6897
:108C60001846FFF7F5F8059008E0BDF8103001331D
:108C7000ADF81030BDF81030012BCFD99DF813306E
:108C800083F00103DBB2002B5CD0364B01221A705B
:108C9000344B00225A6041F61D535EE0009B0022D7
:108CA0001A71324B02229A80304B1B6819460023FE
:108CB00001222F4801F024FF059044E0009B002290
:108CC0001A712A4B1B681846FFF7C2F80590294B0A
:108CD0005B88ADF80E30254B1B680293BDF80E2063
:108CE000214913469B0013449B000B4404331B682B
:108CF0001E4A1360BDF80E201B4913469B00134407
:108D00009B000B440433029A1A60BDF80E20174BE7
:108D10009888154913469B0013449B000B44083365
:108D200002461A80114B02229A80BDF80E200E498D
:108D300013469B0013449B000B4400221A7002E070
:108D400000BF00E000BF059B002B05D0054B0022B3
:108D50005A6048F20D6300E00023184607B05DF842
:108D600004FB00BFC87C0020887D0020B07D00206F
:108D700068590020B87D002000B587B001900091AF
:108D8000009B9B8A1A4613469B0013449B003B4A58
:108D900013440493019B002B06D000990498FFF71D
:108DA00021F84FF4064364E0049B5A68049B1B8936
:108DB0009B0013440393009B9B7D062B4DD801A27F
:108DC00052F823F0098E02002D8E0200158E02004B
:108DD000218E0200E18D0200398E0200538E0200C6
:108DE000274B00225A60009B9B69254A1360254946
:108DF0002348FFF731F9034683F00103DBB2002B70
:108E000002D048F2096334E003990098FFF7D8FBD9
:108E1000059026E003990098FFF7F0FB059020E00D
:108E200003990098FFF7BAFC05901AE0039900989F
:108E3000FFF70CFC059014E0009B06229A75104B7E
:108E40005B68104A128811461846FFF727FC059008
:108E500007E041F61D53059303E048F20E630593C6
:108E600000BF059B002B03D000990498FEF7BAFFC2
:108E7000059B184607B05DF804FB00BF887D002005
:108E8000D07D0020DC7D002000B585B001900091F0
:108E9000019B002B02D04FF4064329E0009B1B7975
:108EA000022B1BD0022B1DDC002B02D0012B08D083
:108EB00018E0009B02221A710098FFF71BFC039038
:108EC00015E00098FFF746FC0390039B48F2096207
:108ED00093420BD141F61D53039307E041F61D5316
:108EE000039304E048F20E63039300E000BF039B8A
:108EF000184605B05DF804FB00B585B00190019BF4
:108F0000002B02D04FF406433DE0214B1B7B002B8E
:108F100003D01F4B00221A7301E0FFF719FE1C4B10
:108F20001B78013B062B29D801A252F823F000BF81
:108F30004D8F0200558F02005D8F0200658F020089
:108F40007D8F02006D8F0200758F0200FFF784FD98
:108F5000039017E0FFF73CFD039013E0FFF70EFDD1
:108F600003900FE0FFF7D4FC03900BE0FFF74CFDFC
:108F7000039007E0FFF762FD039003E048F20E6301
:108F8000039300BF039B184605B05DF804FB00BFC8
:108F9000B87D002000B589B001903B4B1B68002BC9
:108FA00005D13A48FFF7BAF90346374A1360364B02
:108FB0001B681B78013B052B2BD801A252F823F02C
:108FC000D98F0200E98F0200E98F0200F98F0200B9
:108FD000F98F0200099002002B4B1B68194601987B
:108FE000FFF7EEFD019018E0274B1B68194601982A
:108FF000FFF7C2FE019010E0234B1B681946019851
:10900000FFF742FF019008E00198FFF775FF01901C
:1090100003E048F20E63019300BF019B002B2BD0AD
:1090200003AB00221A605A609A60DA601A61019BF1
:1090300041F61D52934201D0019B00E000230493AE
:10904000114B1B6803AA11461846FEF7E5FC03AB5B
:109050001846FEF7C1FC0C4B00221A600023019356
:109060000A48FFF76BF9FFF777F9034683F001032E
:10907000DBB2002B02D190E700BF00E000BF00BFD1
:1090800009B05DF804FB00BFE07D0020E47D002016
:1090900008B50121054800F078FF0346002B02D1F6
:1090A0000020FFF777FF00BF08BD00BFD07C002085
:1090B00000B583B00190019B5B681846FFF76AFF1B
:1090C00000BF03B05DF804FB00B58BB003900291C4
:1090D00001928DF803300023ADF824300023ADF861
:1090E0002630534B1B78DBB283F00103DBB2002B3D
:1090F00002D048F2016397E0029B002B02D148F2B4
:10910000046391E0029B1B884FF6FF72934203D0E9
:10911000029B5B88002B02D148F2036384E0029B30
:109120005B681846FEF74AFC034683F00103DBB296
:10913000002B02D048F2026376E0019B002B11D194
:10914000029B9B68ADF826300DF11A02BDF826305F
:1091500011461846FEF790FE0890089B002B09D098
:10916000089B61E0019B1B88ADF81A30019B5B886E
:10917000ADF8263005AB1846FFF7ACF80790079B13
:10918000002B0AD1BDF81A20BDF82630114618462A
:10919000FEF7DCFE48F2076346E0079B9DF80320DC
:1091A0001A70079B00229A75BDF81A20079B9A82B5
:1091B000029B5A68079B1A61FEF7F0FE0246079B66
:1091C000DA60029B1A88079B1A81029B5A88079BC8
:1091D0009A80079BBDF82620DA809DF80330032B88
:1091E00006D1079B04229A75039B1A68079B9A6114
:1091F000079BBDF824205A8105AB1846FFF780F87D
:10920000039B002B0DD0039B00225A60079BDA685A
:10921000039B1A60039B00229A72064B1A89039BD8
:109220001A81FFF735FF002318460BB05DF804FBE9
:10923000C87C0020B87D002000B585B001900C4BA3
:109240001B68042B03D148F20B6303930BE0084B1C
:109250001B680849019A41F823200121044800F0C5
:10926000ACFE00230393039B184605B05DF804FB96
:10927000D47C0020D87C002084B040F6F8731B68B2
:10928000B3F1FF3F02D10F4B1B6802E040F6F873C9
:109290001B6803934FF080531B6902934FF0805378
:1092A0005B690193039BB3F1FF3F04D1019B029AD9
:1092B00002FB03F300E0039B0093009B184604B0FD
:1092C000704700BF1410001000B583B04FF4405336
:1092D0000193FFF7D1FF0346054A1361044B1A6956
:1092E000019BD31A024AD36000BF03B05DF804FBB0
:1092F0006859002008B5FFF7E7FF0022034904483A
:1093000001F0D4FA0346184608BD00BF8CCC030018
:109310006859002008B504481C238C22034900F03A
:1093200050FC00BF08BD00BF787D0020EC7C002011
:1093300000B58BB002AB00221A605A609A60DA6006
:109340001A61424B1B78DBB2002B05D002AB1846EA
:10935000FEF742FB002375E03D4800F05EFE034649
:10936000002B01D000236DE0FFF7C4FF0990099B9B
:10937000002B01D0099B65E0FFF7CCFFFEF7FCFF57
:1093800003468DF823309DF82330062B08D0062B9A
:1093900012DC002B01D0022B0ED148F20A6351E0FF
:1093A0002A4B01221A70294B00225A6002AB184640
:1093B000FEF712FB002345E000BF01AB1846FEF7A5
:1093C00089FF0790079B002B02D148F2076339E021
:1093D000079B01221A709DF82330013B0A2B29D8E4
:1093E00001A252F823F000BF159402003594020048
:1093F00015940200359402002D9402003594020069
:109400002D940200359402001D9402002594020060
:109410001D940200079B00221A710CE0079B032297
:109420001A7108E0079B02221A7104E0079B0122CF
:109430001A7100E000BF01AB1846FEF761FFFFF7AD
:1094400027FE002318460BB05DF804FBC87C002003
:10945000CC7C002000B585B001900091019B002BD1
:1094600002D0009B002B02D148F204632AE00DF1E8
:109470000A0319460198FEF7EFFD0346002B1FD0A3
:10948000019B5B680393BDF80A301A4613469B00A4
:1094900013449B0008330D4A13440433012118463A
:1094A00000F08BFD009B039A1A60019B5B6803F13F
:1094B0000C02009B5A60019B01229A72002301E07A
:1094C00048F20963184605B05DF804FB887D00206A
:1094D00000B585B00190019B002B02D148F20463D6
:1094E0003BE00DF10A0319460198FEF7B5FD03466E
:1094F000002B2ED0BDF80A3019461A4A0B469B00A5
:109500000B449B0013440C331B68002B1DD0019BA4
:109510009B7A002B19D0BDF80A301A461149134620
:109520009B0013449B000B440C331B68591E0D48D1
:1095300013469B0013449B0003440C331960019BAA
:1095400000229A720023039306E048F20563039316
:1095500002E048F209630393039B184605B05DF8E7
:1095600004FB00BF887D002000B583B0019000910E
:109570000223002200990198FFF7A6FD0346184632
:1095800003B05DF804FB00B583B001900091019B2E
:10959000002B02D148F2046306E003230022009965
:1095A0000198FFF791FD0346184603B05DF804FBF0
:1095B00000B585B00346ADF806301A4B1B78DBB218
:1095C00083F00103DBB2002B02D048F2016324E0F8
:1095D000BDF806304FF6FF72934202D148F20363A2
:1095E0001BE002AB1846FEF775FE0390039B002BB1
:1095F00002D148F2076310E0039B05221A70039B17
:1096000001221A71039BBDF80620DA8002AB1846CE
:10961000FEF776FEFFF73CFD0023184605B05DF827
:1096200004FB00BFC87C002000B583B0154B1B783D
:10963000DBB283F00103DBB2002B02D048F20163FE
:109640001BE06B461846FEF745FE0190019B002B80
:1096500002D148F2076310E0019B06221A706B46A4
:109660001846FEF74DFE084B1B78002B02D0064B28
:1096700001221A73FFF70CFD0023184603B05DF8B2
:1096800004FB00BFC87C0020B87D002000B585B079
:10969000029201930346ADF80E300B46ADF80C3044
:1096A00003A90DF10E00019B029AFEF72FFD034660
:1096B000184605B05DF804FB00B585B0034602917D
:1096C0000192ADF80E300DF10E01019B029A0020BF
:1096D000FEF71CFD0346184605B05DF804FB00B517
:1096E00085B0034602910192ADF80E300DF10E00E7
:1096F000019B029A0021FEF709FD0346184605B0BA
:109700005DF804FB82B001900091019B002B02D018
:10971000009B002B02D148F2046304E0019B1A680D
:10972000009B1A600023184602B0704710B586B03F
:1097300003904FF48063ADF814300023ADF812307D
:109740004F4B1B78DBB283F00103DBB2002B02D05E
:1097500048F2016391E0039B002B02D148F20463BD
:109760008BE012220021039812F074F9039B03226C
:109770001A800023ADF816307AE0BDF81620414972
:1097800013469B0013449B000B4408331988BDF813
:1097900016203C4813469B0013449B0003440A33A5
:1097A0001B880B44ADF81030BDF816203549134620
:1097B0009B0013449B000B4404331B681846FEF7C0
:1097C00003FA0346032B05D1039B1B88013B9AB286
:1097D000039B1A80BDF816202A4913469B001344A8
:1097E0009B000B440C331968039B5A888BB21344BB
:1097F0009AB2039B5A80039B1989BDF81620214811
:1098000013469B0013449B0003440A331B880B44FC
:109810009AB2039B1A81039B5A89BDF810301344F6
:109820009AB2039B5A81BDF81420BDF81030D31AA8
:10983000ADF81230039B9B89BDF812209A4203D9E0
:10984000039BBDF812209A81039B191D039B9A1D4F
:10985000039B03F10E04039B1033BDF81600009325
:109860002346FEF7C5FCBDF816300133ADF81630BF
:10987000BDF81630012B80D90023184606B010BD64
:10988000C87C0020887D00201EF0040F1CBFEFF371
:1098900009800AE0EFF308800549064A884201D8AA
:1098A000904202D88D464FF00000034B184700004D
:1098B0000000012000F80020F598020000BF00BF62
:1098C000BFF34F8F00BF064BDB6803F4E06204492F
:1098D000044B1343CB60BFF34F8F00BF00BFFDE7C6
:1098E00000ED00E00400FA0500B583B00190FFF739
:1098F000E7FF000010B588B00390FDF77DFC00BFC6
:10990000FDF72AFA0346002BFAD1039B0693544B2A
:109910009B6A0593069B002B35D0524A524BD31AB3
:10992000DB081B0443F00100069B9B691A464F4964
:10993000FDF7B0F94B4A4C4BD31ADB081B0443F03C
:109940000100069B1968069B5C68069B9B68069A4B
:10995000D2680192009323460A464549FDF7D5F99E
:10996000404A414BD31ADB081B0443F00100069B1D
:109970001A69069B5969069BDB6900930B463D49B2
:10998000FDF7ADF90AE0374A374BD31ADB081B0461
:1099900043F0010338491846FDF76EF9304BDB6A96
:1099A00003F00203002B0AD02E4A2F4BD31ADB08F8
:1099B0001B0443F0010331491846FDF75DF900230C
:1099C000079320E00122079B02FA03F31A46059B46
:1099D0001340002B14D02A4A079B52F82330002B47
:1099E0000ED0204A204BD31ADB081B0443F00100A1
:1099F000234A079B52F823301A462249FDF74AF9B9
:109A0000079B01330793079B192BDBD9059B03F0B9
:109A10008003002B0CD0134A134BD31ADB081B0412
:109A200043F001030E4A526B17491846FDF732F90D
:109A3000059B03F40043002B0CD00A4A0A4BD31AAF
:109A4000DB081B0443F00103054A926B0F491846DB
:109A5000FDF720F90398FFF747FF00BF08B010BDDE
:109A600000ED00E090C2030040C2030074C4030094
:109A70008CC40300C4C40300ECC4030020C503006D
:109A8000C059002064C5030070C5030090C50300E1
:109A900086B001900091019B53E8011F8AB2D889DA
:109AA00002449889824228BF121A1889824202BF52
:109AB000BFF32F8F002307E0C2EA010243E8012031
:109AC0000028E9D14FF001038DF80F300590029185
:109AD0000492029A009B1A609DF80F30DBB2184680
:109AE00006B0704784B00190019951E8013FC3EA84
:109AF000034341E80132002AF7D10392029300BFE9
:109B000004B0704786B001900091019B53E8021F9A
:109B10001FFAA1F2D888824202BFBFF32F8F002321
:109B20000DE0D88902449889824228BF121AC1EAFE
:109B3000024243E802200028E8D14FF001038DF8EB
:109B40000F30059002910492029A009B1A609DF8D2
:109B50000F30DBB2184606B0704784B0019001990F
:109B600051E8023FC3EA234341E80232002AF7D119
:109B70000392029300BF04B0704786B00190019B2E
:109B800053E8021FDA88B1EB314F4FF0000017BFE6
:109B900089B242EA024241EA024204E05968B1EB6A
:109BA000314F08BF012043E802210029E8D18DF898
:109BB0000F00059104929DF80F30DBB2184606B0F5
:109BC000704784B00390029111461A460B46ADF8D7
:109BD00006301346ADF80430029B002B01D10E2352
:109BE0001FE0BDF80630BDF80420B3FBF2F101FB25
:109BF00002F29B1A9BB2002B01D0092311E0039BB8
:109C0000029A1A60039B00225A60039B00229A600A
:109C1000039BBDF806209A81039BBDF80420DA81DE
:109C20000023184604B0704700B585B00190019834
:109C3000FFF7A3FF03468DF80F309DF80F30002B80
:109C400001D0002300E01123184605B05DF804FBA5
:109C500000B585B001900091009B19460198FFF76F
:109C600017FF0346002B07D0019B1B68009A128840
:109C700013440393039B00E00023184605B05DF8EE
:109C800004FB00B583B001900091009B1A88009BF3
:109C90005B889A4204D10198FFF724FF012300E07A
:109CA0000023184603B05DF804FB00B585B00190B1
:109CB0000091009B19460198FFF724FF0346002BF3
:109CC00007D0019B1B68009A528813440393039B9F
:109CD00000E00023184605B05DF804FB00B583B032
:109CE00001900091009B1A88009B5B889A4204D1E6
:109CF0000198FFF732FF012300E00023184603B06C
:109D00005DF804FB00B585B001900091009B5B09F4
:109D10009B00019A1A44009B03F01F03012101FAE2
:109D200003F31946104600F0E8F8039000BF05B0B1
:109D30005DF804FB00B583B001900091009B5B09C6
:109D40009B00019A1A44009B03F01F03012101FAB2
:109D500003F31946104600F0B8F80246009B03F0E2
:109D60001F0322FA03F303F00103002B14BF0123A6
:109D70000023DBB2184603B05DF804FB00B585B0E4
:109D800001900091009B5B099B00019A1A44009B83
:109D900003F01F03012101FA03F3DB4319461046C8
:109DA00000F0DBF8039000BF05B05DF804FB82B063
:109DB00001900091009B5B099B00019A13441A6873
:109DC000009B03F01F0322FA03F303F00103002BAF
:109DD00014BF01230023DBB2184602B0704700B560
:109DE0008DB00190009100230B934BE00B9B9B00E7
:109DF000019A13441B68DB430793079B93FAA3F371
:109E00000693069B0893089B002B01D1202303E0B7
:109E1000089BB3FA83F3DBB20A932BE00B9B5B0145
:109E20000A9A13440993099A009B9A4226D20999E7
:109E30000198FFF77FFF034683F00103DBB2002B9D
:109E400001D0099B26E00B9B9B00019A13441B68E1
:109E5000DB430493049B93FAA3F30393039B0593BF
:109E6000059B002B01D1202303E0059BB3FA83F36C
:109E7000DBB20A930A9B1F2BD0D900E000BF0B9BDB
:109E800001330B93009B013B5B0901330B9A9A4210
:109E9000ACD3009B18460DB05DF804FB10B487B03E
:109EA00001900091019B009A53E8004F104643E84F
:109EB000000191F0000FF7D1059404900391059BE8
:109EC000184607B05DF8044B704710B487B0019096
:109ED0000091019B009A53E8004F44EA020043E8D6
:109EE000000191F0000FF6D1059404900391059BB9
:109EF000184607B05DF8044B704710B487B0019066
:109F00000091019B009A53E8004F44EA020043E8A5
:109F1000000191F0000FF6D1059404900391049B89
:109F2000184607B05DF8044B704710B487B0019035
:109F30000091019B009A53E8004F04EA020043E8B5
:109F4000000191F0000FF6D1059404900391059B58
:109F5000184607B05DF8044B704710B487B0019005
:109F60000091019B009A53E8004F04EA020043E885
:109F7000000191F0000FF6D1059404900391049B29
:109F8000184607B05DF8044B704710B487B00190D5
:109F90000091019B009A53E8004F04EB020043E854
:109FA000000191F0000FF6D1059404900391059BF8
:109FB000184607B05DF8044B704710B487B00190A5
:109FC0000091019B009A53E8004F04EB020043E824
:109FD000000191F0000FF6D1059404900391049BC9
:109FE000184607B05DF8044B704710B487B0019075
:109FF0000091019B009A53E8004FA4EB020043E854
:10A00000000191F0000FF6D1059404900391049B98
:10A01000184607B05DF8044B704700B583B0019057
:10A0200001210198FFF751FF0346184603B05DF880
:10A0300004FB00B583B0019001210198FFF75DFF9B
:10A040000346184603B05DF804FB00B583B00190E9
:10A0500000210198FFF769FF0346184603B05DF839
:10A0600004FB82B001900B468DF80330019BDA6847
:10A070009DF803300199098A01FB03F31344184644
:10A0800002B0704782B001900091009B019AD268A3
:10A090009B1A019A128AB3FBF2F3DBB2184602B0A4
:10A0A000704784B00190019B002B01D10E2320E06A
:10A0B000019B9A68019B5B68D31A8DF80F30019B56
:10A0C0001B68019A52681A6007E0019B1A681368BE
:10A0D000591C11609DF80F201A709DF80F305A1E00
:10A0E0008DF80F20002BF0D1019B1B6800221A7104
:10A0F0000023184604B0704700B585B001900023D6
:10A10000039300238DF80A300DF10A031846FDF77A
:10A110003DFC019B1B681A68019B5B689A421FD932
:10A12000019B1B681A68013A1A601B681B78194664
:10A130000198FFF796FF0390019B9A68019B1B68AB
:10A140001B68D31A8DF80B30019B1B681B799DF897
:10A150000B209A4204D9019B1B689DF80B201A71B1
:10A160009DF80A301846FDF71BFC039B184605B006
:10A170005DF804FB10B584B001900091009B03933F
:10A1800000238DF80B300DF10B031846FDF7FEFB95
:10A19000019B1B681C68621C1A6003990198FFF7F9
:10A1A00071FF034623709DF80B301846FDF7F8FB4E
:10A1B00000BF04B010BD00B583B00190019B9B6847
:10A1C000002B0CD0019B5B69019A1069019A116800
:10A1D000019A92689847019B00229A6000E000BFB4
:10A1E00003B05DF804FB0EB400B584B00190059B8C
:10A1F000002B0AD00023039306AB039303AB1A464C
:10A200000599019800F0B4F900E000BF04B05DF8D2
:10A2100004EB03B0704700B583B001900B468DF896
:10A2200003309DF803300A2B03D10D210198FFF76D
:10A23000F2FF019B1A68019B9B68581C019988607A
:10A2400013449DF803201A70019B9A68019B5B6878
:10A250009A4202D30198FFF7AEFF00BF03B05DF84A
:10A2600004FB00B587B00390029101920093002394
:10A270000593009B03F00103002B24D00BE0029B0D
:10A2800001330293059B013305939DF81330194662
:10A290000398FFF7C0FF029B1B788DF813309DF8E1
:10A2A0001330002BEBD106E0019B013B01932021F1
:10A2B0000398FFF7B0FF019A059B9A422ED9019BA4
:10A2C000002BF1D12AE0029B002B0BD0029811F059
:10A2D00016FC059006E0019B013B019320210398A9
:10A2E000FFF799FF019A059B9A420FD9019B002B1A
:10A2F000F1D10BE0029B01330293059B01330593DF
:10A300009DF8133019460398FFF785FF029B1B78D1
:10A310008DF813309DF81330002BEBD100BF07B040
:10A320005DF804FB00B589B003900291019200939F
:10A33000029B07930123069307E0079A019BB2FB58
:10A34000F3F30793069B01330693079A019B9A4206
:10A35000F3D2009A069B9A4201D9009B06930B9B6D
:10A3600003F00103002B22D10A9B002B1FD00B9B73
:10A3700003F00203002B06D0009B002B03D13023F7
:10A380008DF8173002E020238DF8173008E00A9B83
:10A39000013B0A939DF8173019460398FFF73BFFDE
:10A3A0000A9B002B03D0069A0A9B9A42EFD3012303
:10A3B0000793009B012B03D9009B013B009309E00D
:10A3C000029A079BB2FBF3F30493049A019B9A420F
:10A3D00000D205E0079B019A02FB03F30793E8E72D
:10A3E000029A079BB2FBF3F30493049B079A02FBC8
:10A3F00003F3029AD31A0293154A049B13441B7861
:10A4000019460398FFF707FF079A019BB2FBF3F386
:10A410000793079B002BE3D10B9B03F00103002B59
:10A4200011D00A9B002B0ED006E00A9B013B0A9339
:10A4300020210398FFF7EFFE0A9B002B03D0069A1A
:10A440000A9B9A42F1D300BF09B05DF804FB00BF3C
:10A4500080CA030000B589B005900491039202936D
:10A46000049B002BB8BF5B4206930123079307E0D0
:10A47000039B069A92FBF3F30693079B0133079322
:10A48000039B069A9A42F3DA029A079B9A4201D9F1
:10A49000029B07930A9B002B0AD0049B002B04DB32
:10A4A0000B9B03F00403002B02D00A9B013B0A9391
:10A4B0000B9B03F00203002B02D0029B002B16D053
:10A4C0000B9B03F00103002B11D10A9B002B0ED034
:10A4D00006E00A9B013B0A9320210598FFF79BFEAB
:10A4E0000A9B002B03D0079A0A9B9A42F1D3049B44
:10A4F000002B07DA049B5B4204932D210598FFF79C
:10A500008AFE08E00B9B03F00403002B03D02B21F1
:10A510000598FFF780FE0B9B03F00203002B19D078
:10A520000B9B03F00103002B14D1029B002B11D1D4
:10A530000A9B002B0ED006E00A9B013B0A933021B8
:10A540000598FFF768FE0A9B002B03D0079A0A9B29
:10A550009A42F1D304990B9B01930A9B0093029BAF
:10A56000039A0598FFF7DEFE00BF09B05DF804FB13
:10A5700000B58FB0059004910392049B002B00F06E
:10A580009181049B1B788DF83730049B0133049331
:10A590009DF83730002B00F07C819DF83730252B5B
:10A5A00040F06B8100230A9301230C93049B1B78DA
:10A5B0008DF837309DF83730302B0DD0302B1BDC29
:10A5C0002B2B11D02D2B17D10A9B43F001030A939B
:10A5D000049B0133049312E00A9B43F002030A93A5
:10A5E000049B013304930AE00A9B43F004030A939B
:10A5F000049B0133049302E000230C9300BF0C9BE7
:10A60000002BD3D1002309939DF837302A2B0CD18E
:10A61000039B1B68191D039A11601B68099A134458
:10A620000993049B013304931AE0049B1B788DF873
:10A6300037309DF837302F2B12D99DF83730392B12
:10A640000ED8049B01330493099A13469B001344CC
:10A650005B001A469DF837301344303B0993D3E72B
:10A6600000230B93049B1B788DF837309DF837300F
:10A670002E2B1DD1049B01330493049B1B788DF872
:10A6800037309DF837302F2B12D99DF83730392BC2
:10A690000ED8049B013304930B9A13469B0013447A
:10A6A0005B001A469DF837301344303B0B93E4E7C8
:10A6B000049B1B788DF837309DF837306C2B03D016
:10A6C0009DF83730682B07D1049B01330493049B1A
:10A6D0001B788DF83730EFE79DF83730252B00F0E9
:10A6E000C280252BC0F2C480782B00F3C180582B88
:10A6F000C0F2BE80583B202B00F2BA8001A252F873
:10A7000023F000BFF3A7020071A8020071A80200A5
:10A7100071A8020071A8020071A8020071A80200CD
:10A7200071A8020071A8020071A8020071A80200BD
:10A7300089A70200ABA7020071A8020071A802005D
:10A7400071A8020071A80200ABA7020071A8020064
:10A7500071A8020071A8020071A8020071A802008D
:10A7600071A8020033A8020071A8020071A80200BB
:10A7700017A8020071A80200CFA7020071A802006A
:10A7800071A80200F3A70200039B1B68191D039A1E
:10A7900011601B680C930C9B8DF81F309DF81F30C7
:10A7A00019460598FFF737FD63E0039B1B68191DE9
:10A7B000039A11601B680C930A9B0193099B0093F9
:10A7C0000B9B0A220C990598FFF744FE51E0039B6E
:10A7D0001B68191D039A11601B680C930C990A9B46
:10A7E0000193099B00930B9B0A220598FFF79AFDA2
:10A7F0003FE0039B1B68191D039A11601B680C93B3
:10A800000C990A9B0193099B00930B9B10220598BE
:10A81000FFF788FD2DE0039B1B68191D039A11604B
:10A820001B6808930A9B099A08990598FFF719FD78
:10A830001FE0039B1B68191D039A11601B680C9392
:10A8400030210598FFF7E7FC78210598FFF7E3FC36
:10A850000C990023019308230093082310220598E4
:10A86000FFF760FD05E025210598FFF7D4FC00E027
:10A8700000BF049B0133049305E09DF8373019466F
:10A880000598FFF7C8FC049B1B78002B7FF479AE7A
:10A8900000E000BF059B1B7B002B04D00598FFF751
:10A8A0008AFC00E000BF0FB05DF804FB00B587B084
:10A8B000059004910392059B002B10D1194A1A4B65
:10A8C000D31ADB081B0443F00100184A18490E2371
:10A8D00000930B461749FCF702FA0E231DE0049B78
:10A8E000002B10D10F4A104BD31ADB081B0443F086
:10A8F0000100114A0E490E2300930B460D49FCF747
:10A90000EEF90E2309E0059B049A1A60059B1B686B
:10A910001B680399059898470346184607B05DF8E9
:10A9200004FB00BFA0C2030040C20300A0CA030092
:10A9300044CC0300A8CA0300D4CA030010B586B0F3
:10A940000590049103920293059B002B10D1604A5D
:10A95000604BD31ADB081B0443F001005E4A5F49D9
:10A960000E2300930B465E49FCF7B9F90E23ABE0CA
:10A97000039B002B10D1564A564BD31ADB081B04FD
:10A9800043F00100574A55490E2300930B465449A2
:10A99000FCF7A5F90E2397E0059B1B68002B10D14F
:10A9A0004B4A4C4BD31ADB081B0443F001004E4AC0
:10A9B0004A49082300930B464949FCF790F90823BC
:10A9C00082E0029B002B10D1414A424BD31ADB0894
:10A9D0001B0443F00100454A4049092300930B46FC
:10A9E0003F49FCF77CF909236EE0059B5B685A68D8
:10A9F000029BB3FBF2F101FB02F29B1A002B10D079
:10AA0000334A344BD31ADB081B0443F00100384AA5
:10AA10003249092300930B463149FCF760F90923B9
:10AA200052E0049800F01EF90346002B10D1284A8A
:10AA3000284BD31ADB081B0443F001002D4A274999
:10AA4000102300930B462649FCF749F910233BE0FD
:10AA5000039B184600F006F90346002B10D11C4A50
:10AA60001C4BD31ADB081B0443F00100224A1B498C
:10AA7000102300930B461A49FCF731F9102323E009
:10AA8000029A0499059800F0D3F80346002B10D1E0
:10AA90000F4A104BD31ADB081B0443F00100174A7E
:10AAA0000E49102300930B460D49FCF718F91023AB
:10AAB0000AE0059B1B68DC68089B0093029B039AD5
:10AAC00004990598A0470346184606B010BD00BF7C
:10AAD000A0C2030040C20300A0CA030058CC030078
:10AAE000A8CA030034CB0300DCCA0300F0CA030089
:10AAF0003CCB030068CB030080CB0300A4CB030056
:10AB000010B586B00590049103920293059B002B2B
:10AB100010D13E4A3E4BD31ADB081B0443F0010020
:10AB20003C4A3D490E2300930B463C49FCF7D7F8BD
:10AB30000E2368E0059B1B68002B10D1334A344B71
:10AB4000D31ADB081B0443F00100354A32490823BD
:10AB500000930B463149FCF7C2F8082353E0039BEE
:10AB6000002B10D1294A2A4BD31ADB081B0443F0CF
:10AB700001002C4A2849092300930B462749FCF77A
:10AB8000AEF809233FE00499059800F078F80346F1
:10AB9000002B10D11D4A1E4BD31ADB081B0443F0B7
:10ABA0000100214A1C49102300930B461B49FCF766
:10ABB00096F8102327E0059B5B681B68039A02FB4D
:10ABC00003F31A460499059800F032F80346002B67
:10ABD00010D10E4A0E4BD31ADB081B0443F00100C0
:10ABE000124A0D49102300930B460C49FCF777F8E5
:10ABF000102308E0059B1B681C69029B039A0499BB
:10AC00000598A0470346184606B010BDA0C2030031
:10AC100040C20300A0CA03006CCC0300A8CA030012
:10AC2000DCCA0300F0CA0300CCCB0300F4CB030062
:10AC300084B0039002910192039BDB68029A9A42CE
:10AC400009D3029A019B13445A1E039B1B699A4223
:10AC500001D8012300E0002303F00103DBB2184612
:10AC600004B0704782B00190019B03F00303002BF6
:10AC70000CBF01230023DBB2184602B0704782B03C
:10AC800001900091019B5B681B685A1E009B13405A
:10AC9000002B0CBF01230023DBB2184602B0704723
:10ACA00029DF704700BF184628DF704700BF1846ED
:10ACB00000B589B001900091019B1B689B68002B37
:10ACC00035D002AB00221A605A609A60DA601A61CD
:10ACD0005A61009B0393019B9B680793019B1B791F
:10ACE000002B02D0012B0DD01AE001238DF8083083
:10ACF000019B1B690493019BDB680593019B5B69C6
:10AD000006930DE002238DF80830019BDB684FF4B9
:10AD1000805202FB03F30493019B5B69069300BF1F
:10AD2000019B1B689B6802AA1046984700E000BF81
:10AD300009B05DF804FB00B587B00190019B5A692A
:10AD4000019B9B69D31AB3F5805F28BF4FF48053F2
:10AD500005930422059BB3FBF2F3012B38BF0123BB
:10AD60000593019B1A69019B9B6913440493019B02
:10AD7000DB681A46019B9B6913440393059A039968
:10AD80000498FFF78DFF0346184607B05DF804FBF3
:10AD900000B583B00190019BDA68019B1B691344E5
:10ADA0001846FFF781FF0346184603B05DF804FB21
:10ADB00008B5034B03491846FEF790FF00BF08BDD6
:10ADC000747E00209C7E002008B5084B0849184678
:10ADD000FEF76BFF0346074A1360064B1B68002B08
:10ADE00014BF01230023DBB2184608BD747E002087
:10ADF0009C7E0020987E002000B583B02A4B1B7AF1
:10AE0000002B0BD1FFF7E0FF034683F00103DBB219
:10AE1000002B03D0244B00225A6042E0224B022236
:10AE20001A72224B1B681B79002B02D0012B07D012
:10AE30000DE01E4B1B681846FFF77DFF019009E0EF
:10AE40001A4B1B681846FFF7A3FF019002E003238B
:10AE5000019300BF019B002B03D0019B112B0CD051
:10AE60000FE0114B1B7C83F00103DBB2002B17D0EA
:10AE70000021022000F060F912E00B4B01221A724F
:10AE80000FE00A4B1B6803211846FFF711FF064B22
:10AE900000221A72044B00225A60FFF789FF00E07B
:10AEA00000BF03B05DF804FB847E0020987E002084
:10AEB00008B50848FFF7B1F80346002B08D1064B48
:10AEC0005B7C83F00103DBB2002B01D0FFF794FF22
:10AED00000BF08BD887E0020847E002084B00190E1
:10AEE0001B4B0022DA60019B1B79002B02D0012B47
:10AEF00019D028E0019B5A69019B9B69D31AB3F5CD
:10AF0000805F28BF4FF480530393019B9A69039B92
:10AF10001A44019B9A61019B9A69019B5B699A4261
:10AF20000ED1012310E0019B1B695A1C019B1A6181
:10AF3000019B1A69019B5B699A4203D1012303E0DB
:10AF400000BF00E000BF0023184604B0704700BFF8
:10AF5000847E002082B00190084BDB680133074AF1
:10AF6000D360064BDB68082B04D9044B0022DA605F
:10AF7000012300E00023184602B07047847E0020C1
:10AF800000B583B001900091019B0C4A5A600C48B7
:10AF9000FFF743F80346002B0BD110F007F80346E8
:10AFA0001A46074B1A7407481C238C220649FEF7E1
:10AFB00008FE0023184603B05DF804FB80CC0300B4
:10AFC000847E0020747E0020E87D002000B583B0E0
:10AFD0000190009114220021054810F03BFD054B23
:10AFE0001846FEF721FE0023184603B05DF804FB67
:10AFF000847E0020747E002000B587B0039002910B
:10B0000001920093174A04AB19461046FEF720FE42
:10B010000590059B002B01D104231FE01C22002179
:10B02000059810F017FD059B00221A71059B039AE5
:10B030001A60059B089A9A60059B029A1A61059B03
:10B04000019ADA60059B009A5A61064A04AB1946D8
:10B050001046FEF716FEFFF72BFF0023184607B039
:10B060005DF804FB747E002000B585B0039002916A
:10B0700001920093029B009A1946019810F0C1FCBE
:10B080000023184605B05DF804FB000000B587B04A
:10B090000390029101920093184A04AB194610469E
:10B0A000FEF7D6FD0590059B002B01D1042320E07F
:10B0B0001C220021059810F0CDFC059B01221A717D
:10B0C000059B039A1A60059B009A9A604FF4805280
:10B0D000029BB3FBF2F2059BDA60059B019A5A6171
:10B0E000064A04AB19461046FEF7CBFDFFF7E0FE1B
:10B0F0000023184607B05DF804FB00BF747E0020F3
:10B1000082B001900091009B184602B0704782B057
:10B11000019000910023184602B0704782B0019060
:10B12000044B1B7A002B14BF01230023DBB218460B
:10B1300002B07047847E002000B585B00190009178
:10B14000019B022B02D0019B032B48D1274B1B7A7A
:10B15000022B05D0022B35DC002B42D0012B31E035
:10B1600000238DF80F30019B022B03D0019B032B92
:10B1700009D011E01E4B1B681846FFF7AFFE0346CF
:10B180008DF80F3008E01A4B1B681846FFF7E2FEF7
:10B1900003468DF80F3000BF9DF80F30002B10D004
:10B1A000124B00221A72124B1A68019B022B01D11A
:10B1B000002300E00D2319461046FFF779FDFFF745
:10B1C000F7FD00BF094B5B7C83F00103DBB2002B72
:10B1D00002D0FFF711FE05E00FF0CCFE02E000BF49
:10B1E00000E000BF05B05DF804FB00BF847E0020D6
:10B1F000987E002082B0034600918DF80730064B00
:10B2000001225A74044B1B7A002B0CBF012300232C
:10B21000DBB2184602B07047847E002000B583B0D0
:10B22000034600918DF807309DF80730012B03D0BD
:10B230009DF80730032B0DD1084B00225A749DF85E
:10B240000730012B0CBF01230023DAB2034B1A7421
:10B25000FFF7D2FD00BF03B05DF804FB847E002041
:10B2600000B583B001900198FEF71BFF0346184616
:10B2700003B05DF804FB00B58BB001900091019B19
:10B280001B8A043B0793009A079B1344DA1C079B15
:10B29000B2FBF3F38DF81B300198FEF72DFF0590FC
:10B2A000059B002B01D1002338E0059B00221A7179
:10B2B000059B01225A71079B9AB2059BDA80059B78
:10B2C00009939DF81B30013B0493099B019A1A6076
:10B2D000002308931DE00198FEF70EFF0390039BE7
:10B2E000002B0ED0059B5B790133DAB2059B5A71B6
:10B2F000099B039A1A60039B019A1A60039B0993A6
:10B3000004E0059800F00EF8002307E0089B0133E5
:10B310000893089A049B9A42DDD3059B18460BB00C
:10B320005DF804FB00B58BB00190019B0793079B70
:10B330005B798DF81B30019B08939DF81B30013B16
:10B3400005930023099305E0089B1B680893099B5C
:10B3500001330993099A059B9A42F5D3089B1B6810
:10B360000493019B0893002309930BE0089B1B683F
:10B37000039308990498FEF7FDFE039B0893099B2D
:10B38000013309939DF81B30099A9A42EED300BF0E
:10B3900000BF0BB05DF804FB00B585B00190019BC8
:10B3A0000393039B043301211846FEF706FE00BFFA
:10B3B00005B05DF804FB00B587B00190019B0593D3
:10B3C000059B043301211846FEF70FFE0346039345
:10B3D00003AB0493049B1B78002B02D10198FFF769
:10B3E000A1FF00BF07B05DF804FB00B591B003906A
:10B3F000029101920093039B0993039B0F93099B76
:10B40000DB881A46099B5B7902FB03F3043B089334
:10B41000099BDB880793009B1A1D079BB2FBF3F384
:10B420000E93009B0433079AB3FBF2F2079901FBDA
:10B4300002F29B1A0D93019B1A68009B1344089A11
:10B440009A4203D2089A009BD31A01E0019B1B6821
:10B450000C93019B0C9A1A6005E00F9B1B680F93DD
:10B460000E9B013B0E930E9B002BF6D100230B93FA
:10B47000079A0D9BD31A0A930A9A0C9B934228BFF2
:10B4800013460A932AE0029A0B9B134406930F9AE1
:10B490000D9B1344043305939DF84830002B05D0D1
:10B4A0000A9A0599069810F0ACFA04E00A9A0699EF
:10B4B000059810F0A6FA00230D930F9B1B680F93BD
:10B4C0000C9A0A9BD31A0C930B9A0A9B13440B9366
:10B4D000079A0C9B934228BF13460A930C9B002BA0
:10B4E000D1D100BF00BF11B05DF804FB00B589B039
:10B4F0000590049103920293039B079307AA0023EC
:10B500000093029B04990598FFF76FFF00BF09B0F5
:10B510005DF804FB00B589B0059004910392029395
:10B52000039B079307AA01230093029B04990598A4
:10B53000FFF75BFF00BF09B05DF804FB82B001902C
:10B54000019B9B6800229A60019B9B6800221A6104
:10B55000019B9B6800225A61019B9B680022DA6074
:10B56000019B9B6800225A60019B9B6800221A6025
:10B5700000BF02B0704782B001900091019B009A19
:10B580001A60019B1B681A68019B5A60019B5A68EC
:10B59000019B1B685B689A4202D1019B00225A60A2
:10B5A00000BF02B0704782B00190019B5B68002B26
:10B5B00014D0019B5B681A46019B1B689B6813446F
:10B5C0001A46019B5A60019B5A68019B1B685B6885
:10B5D0009A4204D1019B00225A6000E000BF02B0F1
:10B5E0007047000000B585B00190019800F00EF89A
:10B5F0000390039B002B01D0039B00E0024B1846F5
:10B6000005B05DF804FB00BFACCC030086B0019030
:10B61000164B0593164B04931FE0049A059BD31A0F
:10B62000DB10DA0F13445B10DB00059A134403931D
:10B63000039B1B680293029A019B9A4202D9039BC7
:10B6400004930AE0029A019B9A4203D2039B0833B7
:10B65000059302E0039B5B6804E0059A049B9A4211
:10B66000DBD30023184606B0704700BFACD0030000
:10B67000D4D10300BFF34F8F00BF064BDB6803F448
:10B68000E0620449044B1343CB60BFF34F8F00BF0C
:10B6900000BFFDE700ED00E00400FA0582B01B4B9F
:10B6A0001B68B3F1FF3F0AD1194B1B68DBB2019352
:10B6B000184B1B681B0903F00F03009305E0134BA5
:10B6C0001B680193144B1B680093019B062B19D137
:10B6D000009B033B032B13D801A252F823F000BFB9
:10B6E000F1B60200F5B60200F9B60200FDB602009E
:10B6F000012308E0012306E0012304E0012302E026
:10B70000012300E00023184602B07047300100100A
:10B71000E00F00F0E80F00F03401001082B0154B8C
:10B720001B68DBB20193144B1B681B0903F00F036A
:10B730000093019B062B19D1009B033B032B13D8CD
:10B7400001A252F823F000BF59B702005DB7020012
:10B7500061B7020065B70200012308E0002306E09C
:10B76000002304E0002302E0002300E00023184649
:10B7700002B07047E00F00F0E80F00F082B01B4B02
:10B780001B68B3F1FF3F0AD1194B1B68DBB2019371
:10B79000184B1B681B0903F00F03009305E0134BC4
:10B7A0001B680193144B1B680093019B062B19D156
:10B7B000009B033B032B13D801A252F823F000BFD8
:10B7C000D1B70200D5B70200D9B70200DDB7020039
:10B7D000012308E0012306E0012304E0012302E045
:10B7E000012300E00023184602B07047300100102A
:10B7F000E00F00F0E80F00F03401001082B0154BAC
:10B800001B68DBB20193144B1B681B0903F00F0389
:10B810000093019B062B19D1009B033B032B13D8EC
:10B8200001A252F823F000BF39B802003DB802006F
:10B8300041B8020045B80200012308E0002306E0F9
:10B84000002304E0002302E0002300E00023184668
:10B8500002B07047E00F00F0E80F00F082B01B4B21
:10B860001B68B3F1FF3F0AD1194B1B68DBB2019390
:10B87000184B1B681B0903F00F03009305E0134BE3
:10B880001B680193144B1B680093019B062B19D175
:10B89000009B033B032B13D801A252F823F000BFF7
:10B8A000B1B80200B5B80200B9B80200BDB80200D4
:10B8B000012308E0012306E0012304E0012302E064
:10B8C000012300E00023184602B070473001001049
:10B8D000E00F00F0E80F00F03401001082B0154BCB
:10B8E0001B68DBB20193144B1B681B0903F00F03A9
:10B8F0000093019B062B19D1009B033B032B13D80C
:10B9000001A252F823F000BF19B902001DB90200CC
:10B9100021B9020025B90200012308E0002306E056
:10B92000002304E0002302E0002300E00023184687
:10B9300002B07047E00F00F0E80F00F082B0154B46
:10B940001B68DBB20193144B1B681B0903F00F0348
:10B950000093019B062B19D1009B033B032B13D8AB
:10B9600001A252F823F000BF79B902007DB90200AC
:10B9700081B9020085B90200012308E0002306E036
:10B98000002304E0002302E0002300E00023184627
:10B9900002B07047E00F00F0E80F00F082B01B4BE0
:10B9A0001B68B3F1FF3F0AD1194B1B68DBB201934F
:10B9B000184B1B681B0903F00F03009305E0134BA2
:10B9C0001B680193144B1B680093019B062B19D134
:10B9D000009B033B032B13D801A252F823F000BFB6
:10B9E000F1B90200F5B90200F9B90200FDB902008F
:10B9F000002308E0002306E0012304E0012302E025
:10BA0000012300E00023184602B070473001001007
:10BA1000E00F00F0E80F00F03401001082B01B4B83
:10BA20001B68B3F1FF3F0AD1194B1B68DBB20193CE
:10BA3000184B1B681B0903F00F03009305E0134B21
:10BA40001B680193144B1B680093019B062B19D1B3
:10BA5000009B033B032B13D801A252F823F000BF35
:10BA600071BA020075BA020079BA02007DBA02000A
:10BA7000012308E0012306E0012304E0012302E0A2
:10BA8000012300E00023184602B070473001001087
:10BA9000E00F00F0E80F00F03401001082B01B4B03
:10BAA0001B68B3F1FF3F0AD1194B1B68DBB201934E
:10BAB000184B1B681B0903F00F03009305E0134BA1
:10BAC0001B680193144B1B680093019B062B19D133
:10BAD000009B033B032B13D801A252F823F000BFB5
