:020000022000DC
:1060000000000120756302005D63020055950200E7
:106010006163020063630200656302000000000028
:106020000000000000000000000000003DDD020054
:10603000696302000000000061DD02006D63020080
:106040005D0B03006F6302008919030069D202002F
:106050006F6302006F630200A9160300C9BA020051
:106060006F6302006F6302006F6302006F630200E0
:106070006F6302006F6302006F6302006F630200D0
:106080006F630200B9E102006F6302006F630200F8
:106090006F6302006F63020079C003006F63020048
:1060A0006F6302006F6302006F630200C1C40200ED
:1060B0006F6302006F630200000000000000000038
:1060C0006F6302006F6302006F6302006F63020080
:1060D0006F6302006F6302006F6302000000000044
:1060E00000000000000000000000000000000000B0
:1060F00000000000000000000000000000000000A0
:10610000000000000000000000000000000000008F
:10611000000000000000000000000000000000007F
:10612000000000000000000000000000000000006F
:10613000000000000000000000000000000000005F
:10614000000000000000000000000000000000004F
:10615000000000000000000000000000000000003F
:10616000000000000000000000000000000000002F
:10617000000000000000000000000000000000001F
:10618000000000000000000000000000000000000F
:1061900000000000000000000000000000000000FF
:1061A00000000000000000000000000000000000EF
:1061B00000000000000000000000000000000000DF
:1061C00000000000000000000000000000000000CF
:1061D00000000000000000000000000000000000BF
:1061E00000000000000000000000000000000000AF
:1061F000000000000000000000000000000000009F
:10620000354936480A1A02D0072291438D4634494F
:1062100034480A1A06D00722914381F309880222E2
:1062200082F3148830483149314A00F044F831484B
:106230003149324A00F03FF831483249324A00F0E1
:106240003AF832483249334A00F035F83248334997
:10625000334A00F030F833483349344A00F02BF821
:1062600033483449344A00F026F83448344900228F
:1062700000F02CF833483449002200F027F8334866
:106280003349091A082902DB002202604160314AC1
:1062900090471F481F49884205D00268043003B464
:1062A000904703BCF7E700208646EC46002000211B
:1062B000294A9047FEE7884207D0521A05D0037852
:1062C00001300B700131013AF9D17047884202D098
:1062D00002700130FAE770470000012000F800204A
:1062E0000000012000000120E02B0400CC5700201A
:1062F0004C590020D4630200D46302007CF40300F4
:10630000E02B0400CC570020CC57002024F60300DB
:1063100024F6030024F6030024F6030024F6030009
:1063200024F6030024F6030024F60300DF2B040008
:10633000602D04004C5900204C5900204C5900207D
:10634000A4DA0020A4DA0020A4DA0020A4DA0020D5
:10635000A4DE00209D630200392F0300FEE7FEE764
:10636000FEE7FEE7FEE7FEE7FEE7FEE7FEE7FEE705
:10637000704700BF1048804710484FF0070188431E
:1063800085460F4880470F48016841F4700101605D
:10639000BFF34F8FBFF36F8FFFF732BF0A480B4930
:1063A0000B4A884207D0521A05D0037801300B708F
:1063B0000131013AF9D170477163020000000120F8
:1063C00081D5020088ED00E010F60300B8570020E8
:0463D000CC57002086
:1063D40000B585B00190019B002B0AD0074B43F018
:1063E40001030393019B9B010293039B029898472B
:1063F40000E000BF05B05DF804FB00BF30F6030009
:1064040000B583B00190019B002B0AD04FF47A7041
:10641400FFF7DEFF019B013B0193019B002BF5D1AC
:1064240000E000BF03B05DF804FB08B50CF090FF7A
:1064340000BF08BD00B589B0039002910192019B91
:10644400002B33D00023079303230693029A079B60
:106454001344019A194600200CF02AFF0590079A6C
:10646400059B13440793019A059BD31A0193059B3B
:10647400002B13D10F4B1B7883F00103DBB2002BED
:1064840013D10120FFF7BCFF069B013B0693069B3B
:10649400002B03D1074B00221A7007E0054B0122A1
:1064A4001A70019B002BD1D100E000BF00BF09B0DE
:1064B4005DF804FB4C59002000B585B003900291AF
:1064C400054B00934023054A0299039800F012F803
:1064D40000BF05B05DF804FB396402005059002088
:1064E40082B0019000BF02B0704782B0019000BF3B
:1064F40002B0704700B5A1B00590049103920293D5
:10650400049804F0A3FD039B1593029B16930023A8
:10651400179300238DF8603000231993229B1A935C
:1065240000231F930FA91F9B0822049804F04CFE1C
:1065340008231F93119B1293BDF84030ADF84C30E3
:10654400BDF84230ADF84E3000238DF851309DF83F
:106554003C3003F00303DBB2012B26D10F9BC3F3C2
:1065640095231C939DF83C30C3F3C203DBB28DF832
:106574005030BDF83C30C3F38313DBB21B931B9B39
:106584009A0009A91F9B049804F01EFE1B9B9B0004
:106594001F9A13441F9312AA09A915AB009313461B
:1065A4001B9A1C9800F0F0FE2FE09DF83C3003F09D
:1065B4000303DBB2022B28D1BDF83E30C3F38913A9
:1065C4009BB21E939DF83C30C3F3C203DBB28DF83B
:1065D40050301E9B082B28BF08231D9307A91F9B1F
:1065E4001D9A049804F0F0FD1F9A1D9B13441F93F9
:1065F4001E9A1D9BD31A1E9315AB12AA07A81D99A8
:1066040000F064FF1E9B002BE3D1049804F02DFDE1
:1066140000BF21B05DF804FB82B00190019BDB68F0
:1066240001225A7100BF02B07047000000B583B068
:106634004FF0FF330193FFF7F8FE0421054800F003
:10664400B1FD01900348FFF7E7FF00BF03B05DF819
:1066540004FB00BF00F6030000B583B00190009175
:10666400019B1B681B6800990198984700BF03B001
:106674005DF804FB00B583B00190019B1B685B6867
:106684000198984700BF03B05DF804FB00B583B0E0
:106694000190019B1B689B680198984700BF03B059
:1066A4005DF804FB82B001900B468DF80330019B2A
:1066B400DB689DF803201A7100BF02B0704782B0F6
:1066C4000190019BDB681B79184602B0704782B0C9
:1066D4000190019BDB6801225A7100BF02B0704730
:1066E40082B00190019BDB685B79184602B0704769
:1066F40000B585B001900091184B40F2FF729A608A
:10670400164B00221A60154B00225A60134B03F5F6
:106714000053183300221A60104B03F5005314334E
:1067240000221A600D4B03F50053203301221A7026
:106734000B4804F0EFFB0390039B002B01D0039B59
:1067440008E0084804F054FD074A084BD31ADB0854
:1067540002930023184605B05DF804FBF85A0020A4
:1067640004F5030048F6030000F6030018F50300DF
:10677400024A034BD31ADB081846704700F603009D
:1067840018F5030000B587B001900B468DF803306F
:106794009DF80330002B1FD0FFF7EAFF049000237D
:1067A400059313E0059B9B000E4A13440393039B3C
:1067B4001B881A46019B1B689A4204D1019B059AC7
:1067C4001A60002309E0059B01330593059A049B95
:1067D4009A42E7D3052300E00023184607B05DF88A
:1067E40004FB00BFCC57002000B585B001900B46D8
:1067F4008DF803309DF8032001AB11461846FFF7CE
:10680400C1FF0346002B07D1019BDB00054A13445B
:106814000393039B1B6800E00023184605B05DF852
:1068240004FB00BF18F5030084B001900B468DF8FB
:106834000330019BDB00174A134402939DF8033095
:10684400013B032B1CD801A252F823F0616802001B
:1068540069680200716802007B68020002238DF8F7
:106864000F3011E004238DF80F300DE0029B1B79EB
:106874008DF80F3008E0029B5B798DF80F3003E050
:1068840000238DF80F3000BF9DF80F30184604B078
:10689400704700BF18F5030084B0019000910023F5
:1068A4008DF80F30019B1B7803F00403DBB2002B3F
:1068B40024D0019B1B78C3F30103DBB2012B02D06C
:1068C400022B0CD017E0009B1B68019A1288C2F3BC
:1068D4008312D2B213449A1C009B1A600BE0009BF3
:1068E4001B68019A5288C2F3891292B213449A1C0B
:1068F400009B1A6000BF01238DF80F309DF80F3004
:10690400184604B07047000000B58BB00023ADF802
:1069140026303B4803F0E7F93A4803F0E4F93A4BF0
:106924005B680493384B9B680693049A069B134058
:1069340002339B00344A13440433089304AB1946CE
:106944000898FFF7A9FF0346002B09D0049A069B79
:10695400134002339B002C4A134404330893EDE79D
:1069640000BF0023079311E0049B5A1C0492069A6B
:106974001340079A920001A90A44234902339B0059
:106984000B445B681360079B01330793079B012B40
:10699400EAD99DF80430C3F30103DBB2012B10D014
:1069A400022B1CD1BDF80A30ADF82630BDF80630F4
:1069B400C3F389139BB203339A08049B13440493CF
:1069C4000EE0BDF80A30ADF82630BDF80430C3F34C
:1069D4008313DBB21A46049B1344049300E000BF04
:1069E400084803F08CF90590059B002B02D0049B0A
:1069F400054A5360BDF8263018460BB05DF804FB19
:106A0400107B00200C7B0020F85A002000B585B0D4
:106A14000021074803F09CF80390039B0293029B18
:106A240083F310030193019B184605B05DF804FB42
:106A3400147B002000B589B0039002910192009369
:106A4400039B1B0C0693FFF7E1FF0790079B1904B8
:106A5400009B5A1C0A9B1340069A0A431B490233A3
:106A64009B000B445A60009A0A9B134002339B001C
:106A7400164A134404330593039B03F00703D9B266
:106A8400059A137861F3C5031370019B03F00F0398
:106A9400D9B2059A138861F389131380029BC3F357
:106AA4001501059A136861F39F231360059A1378FF
:106AB400012161F301031370059A13786FF38203C4
:106AC400137000BF09B05DF804FB00BFF85A002042
:106AD40000B58DB00390029113468DF80730039BE7
:106AE40002330A9301238DF8273000238DF81B30DD
:106AF4000DF11B03184600F021FF404B1A68029B5E
:106B04001A603E4B9A683D4B59683C4B1B68CB1A44
:106B1400134401330B9314E00121394803F0A7F81F
:106B2400FFF7F2FE07900799354803F0A0F8334BBE
:106B34009A68324B5968314B1B68CB1A13440133A2
:106B44000B930A9A0B9B9A42E6D89DF82730002BA8
:106B540048D0002305939DF80730002B17D09DF8EB
:106B64001430012262F301038DF814309DF81430BF
:106B740043F004038DF81430039B03F00F03DAB2DF
:106B8400BDF8143062F38913ADF8143016E09DF8A3
:106B94001430022262F301038DF814309DF814308E
:106BA40043F004038DF81430039BC3F309039AB232
:106BB400BDF8163062F38F13ADF816300F4B1A6818
:106BC4000E4B9B68134002339B000C4A134404335E
:106BD4000893059A089B1A60084B1A680A9B134489
:106BE400064A13609DF81B30184600F0B1FE9DF86C
:106BF400273018460DB05DF804FB00BFF85A00209A
:106C0400147B002000B58BB005900491039202938D
:106C1400204B9B68079306AB012219460298FFF7A5
:106C240057FF0346002B24D0069B0233099300230D
:106C3400089311E0089B9B00039A1A44099B591C72
:106C4400099107990B401268124902339B000B44C7
:106C54005A60089B01330893089A029B9A42E9D32D
:106C6400069A079B00931346029A04990598FFF726
:106C7400E1FE084B03F5005320331B78002B05D0AD
:106C840000BF00F079F80346002BFAD100BF0BB027
:106C94005DF804FBF85A002000B583B00190009120
:106CA4000023002200990198FFF7ACFF00BF03B056
:106CB4005DF804FB00B587B0039002910192019B3B
:106CC400059305AA012302990398FFF79BFF00BFD0
:106CD40007B05DF804FB00B587B003900291019200
:106CE4000093019B0493009B059304AA0223029939
:106CF4000398FFF787FF00BF07B05DF804FB00B5FA
:106D040089B00390029101920093019B0593009B2B
:106D140006930A9B079305AA032302990398FFF796
:106D240071FF00BF09B05DF804FB00B589B00390A2
:106D3400029101920093019B0493009B05930A9B8B
:106D440006930B9B079304AA042302990398FFF765
:106D540059FF00BF09B05DF804FB0000054B5A68F9
:106D6400044B1B689A420CBF01230023DBB2184674
:106D7400704700BFF85A002000B599B0FFF7EEFF46
:106D84000346002B01D00023CAE19D4B03F50053B9
:106D9400183300221A60BFF34F8F00BF984B5B6813
:106DA4000493974B9B681093049A109B13400233EF
:106DB4009B00934A13440433119300231793002335
:106DC400169300230F9304AB19461198FFF764FD43
:106DD4000346002B1BD08A4B03F5005318331B6862
:106DE400002B14D1864B1A68049B9A4205D8844B15
:106DF4001B68834A5360002392E1049A109B13405A
:106E040002339B007E4A134404331193DBE70023CF
:106E1400159311E0049B5A1C0492109A1340159A7E
:106E2400920001A90A44764902339B000B445B6833
:106E34001360159B01331593159B012BEAD99DF81B
:106E4400043003F00303DBB2022B40F09C80BDF856
:106E54000630C3F389139BB20D93BDF80630C3F318
:106E640089139BB2502B28BF50239BB20C930C9BCD
:106E7400C3F309039AB2BDF8063062F38F13ADF879
:106E840006300C9B08330B939DF80430C3F3C20304
:106E9400DBB20F930B995B4804F047F81790179BEC
:106EA400002B00F0D180179804F0D0F801A9169BAC
:106EB4000822179804F074F9169B08331693049B60
:106EC400DA43109B134001339B000A930C9A0A9BEC
:106ED4009A4242D90A9B002B08D0049A109B134073
:106EE40002339B00464A1344043300E0464B0893A4
:106EF4000A9B002B02D00A9BDBB201E00C9BDBB2A5
:106F04008DF81F300A9B002B01D03F4B00E000237B
:106F140006930A9B002B06D00C9BDAB20A9BDBB2C9
:106F2400D31ADBB200E000238DF817309DF81F2040
:106F3400169B0899179804F033F99DF81F30169A98
:106F440013441693069B002B16D09DF81720169B0E
:106F54000699179804F024F90EE0049A109B134044
:106F640002339B00264A134404330993169B0C9A5C
:106F74000999179804F014F90D9B03339A08049B9C
:106F84001344049360E09DF8043003F00303DBB280
:106F9400012B59D1BDF80430C3F38313DBB2062BA4
:106FA40028BF0623DAB2BDF8043062F38913ADF8C2
:106FB4000430BDF80430C3F38313DBB202330E9301
:106FC4009DF80430C3F3C203DBB20F930E9B9B0006
:106FD40019460C4803F0A9FF1790179B002B33D0D8
:106FE400179804F033F801A9169B0822179804F0A7
:106FF400D7F8169B08331693002315931BE000BFA4
:10700400F85A002004F50300045B0020049B5A1C7A
:107014000492109A134002339B00434A1344191DEF
:10702400169B0422179804F0BBF8169B043316939E
:10703400159B01331593BDF80430C3F38313DBB2FE
:107044001A46159B9342E1D3179B002B46D0364B2F
:1070540003F5005310331B681493334B03F50053AB
:1070640018331B68002B1BD0179803F0FEFF51E068
:1070740000238DF84F301498FFF732FB0346002BA2
:1070840002D001238DF84F309DF84F30002B03D0F0
:1070940017991498FFF7E0FA149BDB681B681493A4
:1070A400149B002BE4D1179803F0DFFF00238DF825
:1070B40003300DF10303184600F040FC1A4B03F5AE
:1070C400005318331B68002B02D1049B164A5360EB
:1070D4009DF80330184600F03BFC1BE0124B03F50F
:1070E400005310331B68129306E01298FFF7CEFA90
:1070F400129BDB681B681293129B002BF5D10B4A81
:107104000B4BD31ADB081B0443F00203094918464E
:10711400FFF7C2FDFFF722FE034683F00103DBB253
:10712400184619B05DF804FBF85A002060F5030016
:1071340018F5030058F6030000B585B00023039347
:1071440025E0174B03F5005310331B68029301230A
:107154008DF807300FE00298FFF7B1FA03461A469C
:10716400039B934203D100238DF8073006E0029B72
:10717400DB681B680293029B002BECD19DF807305F
:10718400002B01D0039B07E0039B01330393039B74
:10719400092BD6DD4FF0FF33184605B05DF804FB2C
:1071A400F85A002000B585B001900B468DF80330E5
:1071B400FFF7C2FF0390039BB3F1FF3F01D1039B91
:1071C4002AE0039BDBB219460198FFF76BFA144BD4
:1071D40003F5005310331B68002B0AD1104B03F541
:1071E40000531033019A1A60019BDB6800221A6075
:1071F40011E00B4B03F5005310331B68DA68019B55
:10720400DB6812681A60064B03F5005310331B68E1
:10721400DB68019A1A60039B184605B05DF804FB0D
:10722400F85A002000B583B00F4B03F50053103318
:107234001B6801930C4B03F50053203301221A7091
:1072440009E00198FFF743FA0198FFF713FA019B4D
:10725400DB681B680193019B002BF2D100BF00BFC8
:1072640003B05DF804FB00BFF85A002082B001901F
:10727400009100BF02B0704710B584B00390029132
:10728400039BDB88002B0AD0039BDB881A461F4B29
:10729400009313461E4A1F49029802F0FEFD039B09
:1072A4001B7A052B2ED0039B5B7A002B12D0039BF9
:1072B4009B881A46039B1B7A19461046FFF7B4FABB
:1072C40003461A46144B53F822301A4613490298BF
:1072D40002F0E3FD039B1B6819460298FFF7C6FF03
:1072E400039B1B7A1A460E4B53F82240039B9B8840
:1072F40000211846FFF778FA034622460949029806
:1073040002F0CBFD00BF04B010BD00BF8CF603003B
:107314009CF60300D4F60300E8570020ECF60300C3
:10732400D4570020F0F6030000B585B00390029115
:1073340013468DF80730039B1B7A052B0FD0039B54
:107344005B7A002B06D00D4B1B681A460C49029839
:1073540002F0A3FD0B49029802F09FFD07E09DF89F
:107364000730002B03D00749029802F096FD0298DB
:1073740002F07BFD00BF05B05DF804FBE857002078
:10738400ECF60300FCF6030030B58BB007900691D1
:10739400059204930E9B1B7B8DF827300E9B0022D5
:1073A4001A730E990498FFF767FF059B062B7FD885
:1073B40001A252F823F000BFD9730200E373020064
:1073C400F373020007740200257402004D74020076
:1073D4007D74020007990E9802F05FFD69E0069B38
:1073E4001B681A4607990E9802F057FD61E0069B48
:1073F4001A68069B04331B6807990E9802F04DFD2A
:1074040057E0069B1A68069B04331968069B0833E9
:107414001B6800930B4607990E9802F03EFD48E066
:10742400069B1968069B04331868069B08331B687F
:10743400069A0C3212680192009303460A46079991
:107444000E9802F02AFD34E0069B1868069B04336C
:107454001C68069B08331B68069A0C32126806994E
:10746400103109680291019200932346024607995C
:107474000E9802F012FD1CE0069B1C68069B043368
:107484001D68069B08331B68069A0C32126806991D
:107494001031096806981430006803900291019233
:1074A40000932B46224607990E9802F0F6FC00E062
:1074B40000BF00220E990498FFF736FF0E9B9DF83B
:1074C40027201A7300BF0BB030BD00BF00B587B0D2
:1074D4000390029101920093029B082B60D8009BB9
:1074E4001B7B8DF81330009B00221A7300990198BE
:1074F400FFF7C2FE0023059314E0059A029B9A420B
:1075040009D2039A059B13441B781A46264900980E
:1075140002F0C3FC03E02549009802F0BEFC059B81
:1075240001330593059B072BE7D92149009802F005
:10753400B4FC0023059326E0059A029B9A421BD2D1
:10754400039A059B13441B788DF812309DF8123072
:107554007E2B0AD89DF81230184617F005FB034617
:10756400002B02D09DF8123000E02E231A46114958
:10757400009802F092FC03E00F49009802F08DFCA1
:10758400059B01330593059B072BD5D9012200994F
:107594000198FFF7C9FE009B9DF813201A7300E0C1
:1075A40000BF07B05DF804FB00F7030008F7030011
:1075B4000CF7030010F7030014F7030000B587B0BD
:1075C40001900023039300230493019B059303ABD1
:1075D4001A46002144F2010015F052FB00BF07B027
:1075E4005DF804FB00B585B00190019808F09CFF9C
:1075F4000390039B1B7B002B0CD0039B5B7B83F0D2
:107604000103DAB2039B1A73039B9B68039A126803
:107614001046984700BF05B05DF804FB00231846E8
:107624007047000000B58BB005900B4603928DF8AF
:107634001330059B1B68089300230993039B002BBD
:1076440002D0059B002B01D1072338E0089B1B7B4C
:10765400002B01D0082332E0089B5B68002B2BD160
:1076640010220021089817F067FB9DF81330002BB7
:1076740014BF01230023DBB207939DF81330002BC2
:107684000CBF01230023DAB2089B5A73089B039AA8
:107694009A600D4B0093089B079A4FF47A710B483C
:1076A40008F094FC0246089B5A60089B5B68002B18
:1076B40004D10E23099301E0082300E0099B184636
:1076C4000BB05DF804FB00BFE975020018F7030076
:1076D40000B58BB0059004910392059B0993099B17
:1076E4005B680893089B002B01D1082363E0099B86
:1076F4001B7B002B01D000235DE0099B039A1A60D9
:10770400EFF305830793079B002B2CD000230693EC
:1077140006AB00220092049A0921089808F096FC0E
:107724000346012B01D0042345E007F021FE024665
:1077340006AB002100910621089808F087FC034657
:10774400012B01D0042336E0069B002B2FD01C4BC9
:107754004FF080525A6040BF00BFBFF34F8F00BF4D
:10776400BFF36F8F23E0089808F0C8FE0346002B90
:1077740001D000231FE0022300930023049A042174
:10778400089808F063FC0346012B01D0042312E09F
:1077940007F0E4FD02460223009300230121089828
:1077A40008F054FC0346012B01D0042303E0099B99
:1077B40001221A73002318460BB05DF804FB00BFC6
:1077C40000ED00E000B589B00390039B0793079B8D
:1077D4005B680693069B002B01D1082334E0EFF38A
:1077E40005830593059B002B1DD00023049304AB54
:1077F4000022009200220821069808F027FC034684
:10780400012B01D004231FE0049B002B18D0104B44
:107814004FF080525A6040BF00BFBFF34F8F00BF8C
:10782400BFF36F8F0CE00223009300230022032197
:10783400069808F00BFC0346012B01D0042303E057
:10784400079B00221A730023184609B05DF804FB55
:1078540000ED00E082B0EFF310830093009B0193EE
:1078640072B600BF019B184602B0704762B600BFF3
:1078740000BF704700B585B00190FFF7EBFF0390A0
:10788400164B9B68002B1BD1144B01229A60144B9E
:10789400D3F88020134B1340104A1360104B114A45
:1078A400C3F880200E4BD3F884300C4A53600C4B41
:1078B4004FF0FF32C3F88420019B00221A7002E0CB
:1078C400019B01221A70039B002B01D1FFF7CEFF0D
:1078D4000023184605B05DF804FB00BF1C7B0020A4
:1078E40000E100E0FC06FFBD00B585B003468DF85D
:1078F4000730104B9B68002B16D09DF80730002BE7
:1079040012D1FFF7A7FF03900B4A0A4B1B681360C1
:10791400094A084B5B685360064B00229A60039B3C
:10792400002B01D1FFF7A2FF0023184605B05DF834
:1079340004FB00BF1C7B002000E100E000B583B025
:1079440001900198FFF796FF00BF03B05DF804FBB8
:1079540000B583B003468DF807309DF8073018460C
:10796400FFF7C2FF00BF03B05DF804FB82B00190D3
:10797400019B03F00303002B0CBF01230023DBB2A4
:10798400184602B07047000000B585B0019000238E
:1079940003930EE00B4A039B52F82330002B05D0CF
:1079A400084A039B52F8233001989847039B0133FC
:1079B4000393039B032BEDD900BF00BF05B05DF813
:1079C40004FB00BF387B002082B001900091019B32
:1079D4001B78013B052B61D801A252F823F000BFAC
:1079E400FD790200057A02002B7A02005D7A02001A
:1079F4007D7A0200997A0200009B00221A704EE000
:107A0400009B01221A70019B1A89009B9A81019B99
:107A14009A88009BDA81019BDA68009B9A60009B3C
:107A240000221A743BE0009B02221A70019B1A89FF
:107A3400009B9A81019B9A88009BDA81019BDA68FA
:107A4400009B9A60019B9B7D062B0CBF01230023A6
:107A5400DAB2009B1A7422E0009B03221A70019B85
:107A6400DA88009B9A81019B1A89009BDA81019B29
:107A7400DA68009B9A6012E0009B04221A70019B52
:107A8400DA88009B9A81009B0022DA81009B002205
:107A94009A6004E0009B05221A7000E000BF00BF5A
:107AA40002B0704784B001900091019B0393039A44
:107AB400009B9A4206D2039B1B68B3F1FF3F01D09F
:107AC400012300E0002303F00103DBB2184604B0F5
:107AD400704782B00190019B5B8803339B00019A3D
:107AE4001344184602B0704700B583B0019000916A
:107AF4000198FFF7EEFF0246009B934201D2022356
:107B04000CE0019B9B884FF6FF72934203D0019BCC
:107B14001B88002B01D1012300E00023184603B089
:107B24005DF804FB00B583B00190019B002B13D0DA
:107B34000D4BDB681A46019B93420DD30A4B1B691C
:107B44001A46019B934207D80198FFF70FFF03469B
:107B5400002B01D0012300E0002303F00103DBB27A
:107B6400184603B05DF804FBB857002082B00190BA
:107B7400019B002B04D0019B1B680B4A934201D04C
:107B840003230DE0019B04331B68084A934204D08D
:107B9400074A934203D1012302E0002300E00323B8
:107BA400184602B0704700BFDEC0ADDEFE011EF114
:107BB400FF011EF184B00190002303930CE0039BAA
:107BC4009B00019A13441B68B3F1FF3F01D00023CB
:107BD40007E0039B01330393039BB3F5806FEED35C
:107BE4000123184604B0704782B003460A46ADF834
:107BF40006301346ADF80430BDF806201349134689
:107C04009B0013449B000B4408331A88BDF80430CE
:107C14001344ADF80430BDF806200C4913469B000C
:107C240013449B000B440A331A88BDF804301344F0
:107C3400ADF80430BDF8043040F2FF32934294BFF3
:107C440001230023DBB2184602B07047E87B002012
:107C540084B0019000910A2303930023ADF80A3005
:107C640027E0BDF80A20174913469B0013449B00E4
:107C74000B4404331B68009A9A4215D9BDF80A20B4
:107C8400104913469B0013449B000B4404331B68A8
:107C940003F58053009A9A4206D200230393019B72
:107CA400BDF80A201A8008E0BDF80A300133ADF8A7
:107CB4000A30BDF80A30012BD3D9039B184604B00F
:107CC400704700BFE87B002000B589B003900291A3
:107CD4000192039B03F580530693039B083303939C
:107CE400029B02221A80039B079332E006990798AD
:107CF400FFF7FAFE03468DF817309DF81730002B76
:107D04000AD1079B9A68184B1B689A4213D9079BA0
:107D14009B68154A13600EE0019B002B02D0019B67
:107D240001221A709DF81730022B04D1029B4FF4E4
:107D340080621A8014E0029B1A88079B5B881344B4
:107D44009BB203339AB2029B1A800798FFF7C1FED5
:107D5400079006990798FFF7A5FE0346002BC5D1A7
:107D640009B05DF804FB00BF487B002082B001909D
:107D74000091009B9B7D022B09D9019B1A89009BD2
:107D8400DB8813449BB203339AB2019B1A81019B93
:107D94005A89009BDB88D31A9BB2033B9AB2019B9E
:107DA4005A8100BF02B0704700B583B0074B1B680F
:107DB4001946002300930823054A064802F018FCDC
:107DC4000346184603B05DF804FB00BF107C002096
:107DD4001CF70300B857002000B585B00390039941
:107DE400002300930823044A044802F001FC0346DC
:107DF400184605B05DF804FB24F70300B8570020CB
:107E040000B585B003460091ADF8063000238DF827
:107E14000F30BDF806300333ADF80A30BDF80A3030
:107E240040F2FD32934201D909234AE00023ADF820
:107E34000C303BE0BDF80C20244913469B0013444E
:107E44009B000B441B78002B2BD1BDF80A20BDF8F6
:107E54000C3011461846FFF7C7FE0346002B20D00E
:107E640001238DF80F30009BBDF80C201A80BDF85B
:107E74000C20164913469B0013449B000B440A3301
:107E84001988BDF80C20BDF80A300B4498B20F498C
:107E940013469B0013449B000B440A3302461A808A
:107EA40008E0BDF80C300133ADF80C30BDF80C30EF
:107EB400012BBFD99DF80F30002B01D0002300E027
:107EC4000723184605B05DF804FB00BFE87B0020DB
:107ED40082B003460A46ADF806301346ADF80430C6
:107EE400BDF804200D4913469B0013449B000B442A
:107EF4000A331A88BDF80630D31A9BB2BDF80420A1
:107F0400033B98B2054913469B0013449B000B4462
:107F14000A3302461A8000BF02B07047E87B002093
:107F240008B50121024801F0A2FE0346184608BD27
:107F3400487B002000B585B003460091ADF80630BB
:107F4400BDF80620244913469B0013449B000B44B0
:107F540004331B6803F580530293009B1B6803934F
:107F6400039B002B04D00398FFF7B3FD039026E096
:107F7400BDF80620184913469B0013449B000B448C
:107F840004331B680833039319E002990398FFF73D
:107F9400ABFD0346022B10D0022B10DC002B02D0C9
:107FA400012B05D00BE0009B039A1A6001230EE01D
:107FB4000398FFF78EFD039001E0002307E0029988
:107FC4000398FFF76FFD0346002BDED1002318460C
:107FD40005B05DF804FB00BFE87B002000B585B068
:107FE40001900091019B5B681846FFF79BFD0346D7
:107FF400002B19D0019B1A89244B1B899A4213D157
:10800400019B1A68019B5B689B689A420CD1019B97
:108014005B6819460098FFF71BFE0346002B0CBF54
:1080240001230023DBB22CE0009B00221A8023E012
:108034000023029310E0029B0393039B9A68019B25
:108044001B689A4208D1029A019B5A600F4B1A8905
:10805400019B1A81012314E0009B1B8802AA11468C
:108064001846FFF767FF0346002BE4D1009B1B88EB
:1080740001339AB2009B1A80009B1B88012BD7D92D
:108084000023184605B05DF804FB00BF187C0020EF
:1080940000B587B00390029101920093304B1B7896
:1080A400DBB283F00103DBB2002B01D0022353E0E7
:1080B400019B002B02D0009B002B48D105234BE0F1
:1080C400009B9B881946274A0B469B000B449B0048
:1080D40013441B78002B33D124E0009B1B680593C9
:1080E400039B002B06D0059B9A88039B1B889A420E
:1080F40000D017E0029B002B06D0059B1A88029B38
:108104001B889A4200D00DE0059B9A68019B1A6077
:10811400009B1A68019B5A60134B1A89019B1A81B0
:10812400002319E0009B9B88009A11461846FFF72C
:1081340001FF0346002BD0D1009B00221A6000E00F
:1081440000BF009B9B8801339AB2009B9A80009BDE
:108154009B88012BB4D90A23184607B05DF804FBA9
:10816400287B0020E87B0020187C002000B585B027
:108174000190084B0199184601F0D4FB03901C228E
:108184000021039816F0D8FD039B184605B05DF84E
:1081940004FB00BFD87B002000B583B00190044BE2
:1081A4000199184601F0D7FB00BF03B05DF804FB4A
:1081B400D87B002000B583B00190054B0199184687
:1081C40001F0DDFB0346184603B05DF804FB00BF75
:1081D400D87B002000B583B00190044B0199184668
:1081E40001F0E6FB00BF03B05DF804FBD87B002080
:1081F40008B50121054801F052FD0346002B14BFC8
:1082040001230023DBB2184608BD00BF307B0020E9
:1082140000B587B0002305930023ADF81230032383
:10822400ADF8103000238DF80F300023ADF80C307A
:10823400F3E0BDF80C301A03804BDB68134402935F
:108244000298FFF793FC03468DF807309DF807303A
:10825400032B08D0032B00F3DA80002B65D0012B0D
:1082640000F09880D3E00298FFF7A4FC0346002BAB
:108274003BD0734B1B68002B29D0BDF812207149E9
:1082840013469B0013449B000B4402221A70BDF852
:1082940012206C4913469B0013449B000B44043387
:1082A400029A1A60BDF81220664913469B001344D3
:1082B4009B000B44083302221A80634ABDF8123033
:1082C4005380BDF812300133ADF8123008E05C4A37
:1082D400029B13605A4B02229A8001238DF80F30BF
:1082E400059B43F00103059392E0BDF81030013B78
:1082F400ADF81030BDF81220524913469B001344C8
:108304009B000B440433029A1A60BDF812204D49B5
:1083140013469B0013449B000B4403221A70BDF8C0
:1083240012300133ADF8123072E0BDF81220454925
:1083340013469B0013449B000B4400221A70BDF8A3
:108344001220404913469B0013449B000B44043302
:10835400029A1A60BDF8122013469B0013449B0036
:108364000833384A9918BDF8122013469B00134469
:108374009B001033334A13441A460298FFF7A4FCB7
:10838400059B43F002030593BDF812300133ADF8A9
:1083940012303DE09DF80F30002B25D0BDF812209F
:1083A400284913469B0013449B000B4402221A7075
:1083B400BDF81220224B1968224813469B0013442F
:1083C4009B00034404331960BDF812201D49134671
:1083D4009B0013449B000B44083302221A80BDF80F
:1083E40012300133ADF81230154A029B136000229B
:1083F40016490298FFF768FC114B9B88022B01D1A8
:10840400042300E00823059A1343059300E000BF0A
:10841400BDF80C300133ADF80C30BDF80C30022B34
:108424007FF607AFBDF81030012B01D80023059368
:10843400059BDBB2184607B05DF804FBB857002073
:10844400107C0020E87B0020187C0020147C002095
:1084540000B587B003900291039B02229A7502999A
:10846400039B1A1D002300930423074802F0C0F85D
:108474000590059B002B01D1002300E00E23184634
:1084840007B05DF804FB00BFB857002000B587B003
:1084940003900291039B1B69002B01D0032200E08F
:1084A4000122039B9A75029B08331946039B03F12F
:1084B4000C02002300930423064802F099F8059067
:1084C400059B002B01D1002300E00E23184607B0C2
:1084D4005DF804FBB857002000B587B00390029103
:1084E400039B1B78032B01D1052200E00622039B8A
:1084F4009A75029B04331946039B03F10802002377
:1085040000930423064802F073F80590059B002BA2
:1085140001D1002300E00E23184607B05DF804FBE8
:10852400B857002000B587B003900B46ADF80A3069
:1085340003990023009304230C4A0D4802F058F8D1
:108544000590059B002B01D00E230BE0BDF80A20FB
:10855400084913469B0013449B000B44103301222B
:108564001A700023184607B05DF804FB2CF70300CB
:10857400B8570020E87B002000B589B0019002AB19
:1085840000221A605A609A60019BDB6802930DF125
:10859400160202AB11461846FFF720FD0346002BD6
:1085A40012D0039B0693069B9A88019BDA80069B54
:1085B4001A88019B1A81039BBDF8162011461846A0
:1085C400FFF7B0FF079001E00A230793079B1846C3
:1085D40009B05DF804FB000000B587B00190019B71
:1085E400981D02AA0D4B0021FFF752FD0590059B33
:1085F400002B08D1039B094A928811461846FFF7BD
:1086040091FF059004E008220021044816F094FB31
:10861400059B184607B05DF804FB00BF287C0020CA
:1086240000B587B003900291039B01229A75029BC7
:108634000C331846039B1A69039BDB889B000021BB
:1086440000910146064801F0D3FF0590059B002BDD
:1086540001D1002300E00E23184607B05DF804FBA7
:10866400B857002082B0184B1B8901339AB2164BBD
:108674001A81154B00225A80134B00221A730023CF
:10868400ADF8063018E0BDF80620104913469B00EB
:1086940013449B000B441A78BDF80630002A0CBF23
:1086A40001220022D1B2084A13440A469A72BDF844
:1086B40006300133ADF80630BDF80630012BE2D99F
:1086C40000BF00BF02B07047187C0020E87B002088
:1086D40084B0019000238DF80F300023ADF80C30E6
:1086E40031E0BDF80C301C4A13449B7A002B25D092
:1086F400BDF80C30184A134400229A72BDF80C20BD
:10870400164913469B0013449B000B440C331B680F
:10871400002B13D1BDF80C20104913469B001344C1
:108724009B000B4410331B78002B07D0019BBDF832
:108734000C201A8001238DF80F3008E0BDF80C30AE
:108744000133ADF80C30BDF80C30012BC9D99DF8BC
:108754000F30184604B07047187C0020E87B0020D6
:1087640008B5084B05221A70074B02229A80064B63
:108774001B68194600230122044802F01BF8034633
:10878400184608BD187C0020107C0020B857002033
:1087940000B583B0164B5B88ADF80230BDF80220FB
:1087A400144913469B0013449B000B440C331B6871
:1087B400002B14D10E4B04221A70BDF802200D496F
:1087C40013469B0013449B000B4404331B68194657
:1087D40000230122084801F0EDFF019002E0FFF7B9
:1087E400BFFF0190019B184603B05DF804FB00BF76
:1087F400187C0020E87B0020B857002000B587B023
:10880400104B5B680593104B1A680F4B9B889B00B9
:1088140013440493059B5B880333ADF80E30094B76
:1088240003221A700499074B5A68BDF80E309B0056
:1088340000200090054801F0DBFE0346184607B00F
:108844005DF804FB187C0020107C0020B857002041
:1088540000B583B00A4B5B880A491846FFF76AFBE8
:108864000346002B03D0FFF7C9FF019002E0FFF796
:108874008FFF0190019B184603B05DF804FB00BF15
:10888400187C00201C7C002008B50A4B06221A70B4
:10889400084B5B881946084A0B469B000B449B0017
:1088A400134404331B681846FFF796FA0346184628
:1088B40008BD00BF187C0020E87B002008B5054BEC
:1088C40007221A70034B00225A60FFF76DFA034621
:1088D400184608BD187C002008B50D48FFF7F8FEBF
:1088E400034683F00103DBB2002B0BD0094B0022BB
:1088F4001A70084B00225A80064B00225A6041F637
:108904001D5302E0FFF7A4FF0346184608BD00BF4D
:108914001A7C0020187C002082B0094B5B6801930C
:10892400019B5B880333ADF80230064B9A88BDF88F
:10893400023013449AB2034B9A8000BF02B07047CE
:10894400187C0020107C002082B0184B1B68019317
:10895400174B5B881946174A0B469B000B449B0038
:10896400134404331B68114A1360114B5B88194686
:10897400104A0B469B000B449B0013440433019A9A
:108984001A600B4B5B881946084B9888094A0B46BA
:108994009B000B449B001344083302461A80034B8C
:1089A40002229A8000BF02B0704700BF107C0020F2
:1089B400187C0020E87B002008B51A4B1B78072B95
:1089C4002CD801A252F823F0ED890200218A02007A
:1089D400218A0200F9890200058A0200118A020034
:1089E400118A0200198A0200FFF73CFE0D4B012296
:1089F4001A7014E0FFF790FF0A4B02221A700EE07F
:108A0400FFF7A2FF074B06221A7008E0054B072266
:108A14001A7004E0034B01221A7000E000BF00BF8B
:108A240008BD00BF187C002000B587B001900091FC
:108A34000F230593019B002B04D0624B00225A6044
:108A44000123BBE0009B1B79032B00F2AB8001A246
:108A540052F823F0698A0200778A0200058B02002B
:108A6400258B0200009B01221A71FFF79DF90590E6
:108A74009BE000238DF813300023ADF810302BE079
:108A8400BDF81020504913469B0013449B000B442F
:108A94001B78022B1BD1BDF810204B4913469B00B9
:108AA40013449B000B4400221A7001238DF81330E9
:108AB400BDF81020444913469B0013449B000B440B
:108AC40004331B681846FFF787F9059008E0BDF8E2
:108AD40010300133ADF81030BDF81030012BCFD970
:108AE4009DF8133083F00103DBB2002B5CD0354BCF
:108AF40001221A70334B00225A6041F61D535DE087
:108B0400009B00221A71314B02229A802F4B1B6862
:108B14001946002301222E4801F04CFE059044E042
:108B2400009B00221A71294B1B681846FFF754F961
:108B34000590284B5B88ADF80E30244B1B680293DC
:108B4400BDF80E20204913469B0013449B000B44A0
:108B540004331B681D4A1360BDF80E201A491346DE
:108B64009B0013449B000B440433029A1A60BDF823
:108B74000E20164B9888144913469B0013449B00FF
:108B84000B44083302461A80104B02229A80BDF827
:108B94000E200D4913469B0013449B000B440022F6
:108BA4001A7002E000BF00E000BF059B002B04D058
:108BB400044B00225A600E2300E00023184607B03D
:108BC4005DF804FB287B0020E87B0020107C00205B
:108BD400B8570020187C002000B587B001900091A0
:108BE400009B9B8A1A4613469B0013449B003A4AF7
:108BF40013440493019B002B05D000990498FFF7BC
:108C0400B5F8012363E0049B5A68049B1B899B000D
:108C140013440393009B9B7D062B4DD801A252F86D
:108C240023F000BF6B8C02008F8C0200778C020053
:108C3400838C0200458C02009B8C0200B58C0200E0
:108C4400264B00225A60009B9B69244A13602449E6
:108C54002248FFF7C3F9034683F00103DBB2002B7C
:108C640001D00A2333E003990098FFF7F1FB059044
:108C740025E003990098FFF709FC05901FE003998C
:108C84000098FFF7CDFC059019E003990098FFF7D1
:108C940023FC059013E0009B06229A750F4B5B683A
:108CA4000F4A128811461846FFF73CFC059006E06F
:108CB40041F61D53059302E00F23059300BF059B66
:108CC400002B03D000990498FFF750F8059B184631
:108CD40007B05DF804FB00BFE87B0020307C002077
:108CE4003C7C002000B585B001900091019B002BD5
:108CF40001D0012326E0009B1B79022B19D0022B03
:108D04001BDC002B02D0012B08D016E0009B0222B2
:108D14001A710098FFF730FC039012E00098FFF7F7
:108D24005BFC0390039B0A2B0AD141F61D5303936A
:108D340006E041F61D53039303E00F23039300E081
:108D440000BF039B184605B05DF804FB00B585B071
:108D54000190019B002B01D001233BE01F4B1B7BA7
:108D6400002B03D01D4B00221A7301E0FFF724FEF1
:108D74001A4B1B78013B062B28D801A252F823F08A
:108D8400A18D0200A98D0200B18D0200B98D0200EF
:108D9400D18D0200C18D0200C98D0200FFF79CFD38
:108DA400039016E0FFF754FD039012E0FFF726FD51
:108DB40003900EE0FFF7ECFC03900AE0FFF764FD7C
:108DC400039006E0FFF77AFD039002E00F2303937C
:108DD40000BF039B184605B05DF804FB187C002017
:108DE40000B589B001903A4B1B68002B05D1394876
:108DF400FFF7E0F90346364A1360354B1B681B78CE
:108E0400013B052B2BD801A252F823F0298E020036
:108E1400398E0200398E0200498E0200498E02000A
:108E2400598E02002A4B1B6819460198FFF7FCFD76
:108E3400019017E0264B1B6819460198FFF7CCFEFA
:108E440001900FE0224B1B6819460198FFF74AFF77
:108E5400019007E00198FFF779FF019002E00F23EA
:108E6400019300BF019B002B2BD003AB00221A609F
:108E74005A609A60DA601A61019B41F61D5293426E
:108E840001D0019B00E000230493114B1B6803AA4B
:108E940011461846FEF798FD03AB1846FEF774FD1D
:108EA4000B4B00221A60002301930A48FFF792F942
:108EB400FFF79EF9034683F00103DBB2002B02D1D6
:108EC40091E700BF00E000BF00BF09B05DF804FBFC
:108ED400407C0020447C002008B50121054800F0B6
:108EE400AEFE0346002B02D10020FFF779FF00BF3E
:108EF40008BD00BF307B002000B583B00190019B0A
:108F04005B681846FFF76CFF00BF03B05DF804FB15
:108F140000B58BB00390029101928DF803300023C9
:108F2400ADF824300023ADF82630514B1B78DBB26A
:108F340083F00103DBB2002B01D0022393E0029BF8
:108F4400002B01D105238EE0029B1B884FF6FF7294
:108F5400934203D0029B5B88002B01D1042382E05F
:108F6400029B5B681846FEF701FD034683F001038C
:108F7400DBB2002B01D0032375E0019B002B11D140
:108F8400029B9B68ADF826300DF11A02BDF826301D
:108F940011461846FEF734FF0890089B002B09D0B1
:108FA400089B60E0019B1B88ADF81A30019B5B882D
:108FB400ADF8263005AB1846FFF7D8F80790079BA5
:108FC400002B09D1BDF81A20BDF8263011461846E9
:108FD400FEF77EFF082346E0079B9DF803201A70E6
:108FE400079B00229A75BDF81A20079B9A82029B60
:108FF4005A68079B1A61FEF793FF0246079BDA60E3
:10900400029B1A88079B1A81029B5A88079B9A80A5
:10901400079BBDF82620DA809DF80330032B06D188
:10902400079B04229A75039B1A68079B9A61079B06
:10903400BDF824205A8105AB1846FFF7ADF8039B11
:10904400002B0DD0039B00225A60079BDA68039B18
:109054001A60039B00229A72064B1A89039B1A8199
:10906400FFF73AFF002318460BB05DF804FB00BF7E
:10907400287B0020187C002000B585B001900C4BA3
:109084001B68042B02D10C2303930BE0084B1B68D1
:109094000849019A41F823200121054800F0E7FD21
:1090A40000230393039B184605B05DF804FB00BF3F
:1090B400347B0020387B002084B040F6F8731B68B2
:1090C400B3F1FF3F02D10F4B1B6802E040F6F87387
:1090D4001B6803934FF080531B6902934FF0805336
:1090E4005B690193039BB3F1FF3F04D1019B029A97
:1090F40002FB03F300E0039B0093009B184604B0BB
:10910400704700BF1410001000B583B04FF44053F3
:109114000193FFF7D1FF0346054A1361044B1A6913
:10912400019BD31A024AD36000BF03B05DF804FB6D
:10913400B857002008B5FFF7E7FF002203490448A9
:1091440001F00EFA0346184608BD00BF54FF0300A1
:10915400B857002008B504481C238C22034900F0AA
:109164009AFB00BF08BD00BFD87B00204C7B0020C9
:1091740000B58BB002AB00221A605A609A60DA60C4
:109184001A61414B1B78DBB2002B05D002AB1846A9
:10919400FEF7FAFB002373E03C4800F098FD034619
:1091A400002B01D000236BE0FFF7C4FF0990099B5B
:1091B400002B01D0099B63E0FFF7CCFFFFF728F8F1
:1091C40003468DF823309DF82330062B07D0062B59
:1091D40011DC002B01D0022B0DD10B2350E02A4BC4
:1091E40001221A70284B00225A6002AB1846FEF77F
:1091F400CBFB002344E000BF01AB1846FEF7B6FFEB
:109204000790079B002B01D1082339E0079B01221B
:109214001A709DF82330013B0A2B29D801A252F879
:1092240023F000BF5592020075920200559202008D
:10923400759202006D920200759202006D92020016
:10924400759202005D920200659202005D92020036
:10925400079B00221A710CE0079B03221A7108E095
:10926400079B02221A7104E0079B01221A7100E095
:1092740000BF01AB1846FEF78FFFFFF72DFE00235A
:1092840018460BB05DF804FB287B00202C7B0020E3
:1092940000B585B001900091019B002B02D0009B8A
:1092A400002B01D1052329E00DF10A031946019889
:1092B400FEF794FE0346002B1FD0019B5B680393CB
:1092C400BDF80A301A4613469B0013449B0008332A
:1092D4000C4A134404330121184600F0C8FC009BD7
:1092E400039A1A60019B5B6803F10C02009B5A60AD
:1092F400019B01229A72002300E00A23184605B05C
:109304005DF804FBE87B002000B585B00190019B6B
:10931400002B01D1052339E00DF10A031946019808
:10932400FEF75CFE0346002B2DD0BDF80A3019462B
:10933400184A0B469B000B449B0013440C331B68D8
:10934400002B1DD0019B9B7A002B19D0BDF80A304D
:109354001A46104913469B0013449B000B440C33DC
:109364001B68591E0B4813469B0013449B0003447F
:109374000C331960019B00229A720023039304E0CA
:109384000623039301E00A230393039B184605B0C5
:109394005DF804FBE87B002000B583B001900091E8
:1093A4000223002200990198FFF7B2FD03461846F4
:1093B40003B05DF804FB00B583B001900091019BFC
:1093C400002B01D1052306E0032300220099019814
:1093D400FFF79EFD0346184603B05DF804FB00004A
:1093E40000B585B00346ADF80630184B1B78DBB2E8
:1093F40083F00103DBB2002B01D0022322E0BDF88D
:1094040006304FF6FF72934201D104231AE002ABF7
:109414001846FEF7ABFE0390039B002B01D10823F3
:1094240010E0039B05221A70039B01221A71039B0F
:10943400BDF80620DA8002AB1846FEF7ADFEFFF752
:109444004BFD0023184605B05DF804FB287B002083
:1094540000B583B0144B1B78DBB283F00103DBB29D
:10946400002B01D002231AE06B461846FEF77EFE5D
:109474000190019B002B01D1082310E0019B0622DF
:109484001A706B461846FEF787FE084B1B78002BB4
:1094940002D0064B01221A73FFF71EFD0023184663
:1094A40003B05DF804FB00BF287B0020187C00207B
:1094B40000B585B0029201930346ADF80E300B4619
:1094C400ADF80C3003A90DF10E00019B029AFEF7D2
:1094D400DFFD0346184605B05DF804FB00B585B012
:1094E400034602910192ADF80E300DF10E01019B7D
:1094F400029A0020FEF7CCFD0346184605B05DF83D
:1095040004FB00B585B0034602910192ADF80E301C
:109514000DF10E00019B029A0021FEF7B9FD0346EE
:10952400184605B05DF804FB82B001900091019BE0
:10953400002B02D0009B002B01D1052304E0019BEA
:109544001A68009B1A600023184602B07047000096
:109554001EF0040F1CBFEFF309800AE0EFF308804C
:109564000549064A884201D8904202D88D464FF0F8
:109574000000034B184700000000012000F8002001
:10958400CD95020000BF00BFBFF34F8F00BF074B54
:10959400DB6803F4E0620549054B1343CB60BFF37A
:1095A4004F8F00BF00BF00BFFCE700BF00ED00E02D
:1095B4000400FA0500B583B00190FFF7E5FF00BF92
:1095C40003B05DF804FB000010B588B00390FDF70C
:1095D40029FE00BFFDF7D0FB0346002BFAD1039B05
:1095E4000693544B9B6A0593069B002B35D0524A35
:1095F400524BD31ADB081B0443F00100069B9B6902
:109604001A464F49FDF756FB4B4A4C4BD31ADB081D
:109614001B0443F00100069B1968069B5C68069BCB
:109624009B68069AD2680192009323460A464549EC
:10963400FDF77BFB404A414BD31ADB081B0443F084
:109644000100069B1A69069B5969069BDB69009316
:109654000B463D49FDF753FB0AE0374A374BD31A13
:10966400DB081B0443F0010338491846FDF714FBDB
:10967400304BDB6A03F00203002B0AD02E4A2F4B37
:10968400D31ADB081B0443F0010331491846FDF7E4
:1096940003FB0023079320E00122079B02FA03F354
:1096A4001A46059B1340002B14D02A4A079B52F8F4
:1096B4002330002B0ED0204A204BD31ADB081B0486
:1096C40043F00100234A079B52F823301A462249EB
:1096D400FDF7F0FA079B01330793079B192BDBD99E
:1096E400059B03F08003002B0CD0134A134BD31AB1
:1096F400DB081B0443F001030E4A526B174918465A
:10970400FDF7D8FA059B03F40043002B0CD00A4A5A
:109714000A4BD31ADB081B0443F00103054A926B7E
:109724000F491846FDF7C6FA0398FFF743FF00BF39
:1097340008B010BD00ED00E080F5030018F503004B
:109744003CF7030054F703008CF70300B4F703005D
:10975400E8F703000C5800202CF8030038F8030045
:1097640058F8030086B001900091019B53E8011F53
:109774008AB2D88902449889824228BF121A188969
:10978400824202BFBFF32F8F002307E0C2EA010227
:1097940043E801200028E9D14FF001038DF80F3090
:1097A400059002910492029A009B1A609DF80F3072
:1097B400DBB2184606B0704784B00190019951E8B5
:1097C400013FC3EA034341E80132002AF7D103927F
:1097D400029300BF04B0704786B001900091019BD2
:1097E40053E8021F1FFAA1F2D888824202BFBFF3D6
:1097F4002F8F00230DE0D88902449889824228BF24
:10980400121AC1EA024243E802200028E8D14FF0CC
:1098140001038DF80F30059002910492029A009B87
:109824001A609DF80F30DBB2184606B0704784B05A
:109834000190019951E8023FC3EA234341E802320F
:10984400002AF7D10392029300BF04B0704786B098
:109854000190019B53E8021FDA88B1EB314F4FF0BE
:10986400000017BF89B242EA024241EA024204E020
:109874005968B1EB314F08BF012043E802210029A8
:10988400E8D18DF80F00059104929DF80F30DBB2FA
:10989400184606B0704784B00390029111461A46E8
:1098A4000B46ADF806301346ADF80430029B002B8E
:1098B40001D10E231FE0BDF80630BDF80420B3FB30
:1098C400F2F102FB01F29B1A9BB2002B01D0092397
:1098D40011E0039B029A1A60039B00225A60039BC7
:1098E40000229A60039BBDF806209A81039BBDF871
:1098F4000420DA810023184604B0704700B585B00F
:1099040001900198FFF7A3FF03468DF80F309DF8EF
:109914000F30002B01D0002300E01123184605B0BE
:109924005DF804FB00B585B001900091009B1946D9
:109934000198FFF717FF0346002B07D0019B1B6814
:10994400009A128813440393039B00E000231846F3
:1099540005B05DF804FB00B583B001900091009B55
:109964001A88009B5B889A4204D10198FFF724FF70
:10997400012300E00023184603B05DF804FB00B5A2
:1099840085B001900091009B19460198FFF724FFD0
:109994000346002B07D0019B1B68009A528813448E
:1099A4000393039B00E00023184605B05DF804FB15
:1099B40000B583B001900091009B1A88009B5B88DE
:1099C4009A4204D10198FFF732FF012300E00023FB
:1099D400184603B05DF804FB00B585B00190009112
:1099E400009B5B099B00019A1A44009B03F01F0330
:1099F400012101FA03F31946104600F0D8F8039048
:109A040000BF05B05DF804FB00B583B00190009180
:109A1400009B5B099B00019A1A44009B03F01F03FF
:109A2400012101FA03F31946104600F0A8F8024692
:109A3400009B03F01F0322FA03F303F00103002B3E
:109A440014BF01230023DBB2184603B05DF804FB06
:109A540000B585B001900091009B5B099B00019AC1
:109A64001A44009B03F01F03012101FA03F3DB43B3
:109A74001946104600F0CBF8039000BF05B05DF81E
:109A840004FB82B001900091009B5B099B00019A4A
:109A940013441A68009B03F01F0322FA03F303F034
:109AA4000103002B14BF01230023DBB2184602B0CC
:109AB400704700B58BB001900091002309933BE0FF
:109AC400099B9B00019A13441B68DB430693069B86
:109AD40093FAA3F30593059BB3FA83F3089323E066
:109AE400099B5B01089A13440793079A009B9A42C7
:109AF4001ED207990198FFF787FF034683F00103FD
:109B0400DBB2002B01D0079B1EE0099B9B00019A4E
:109B140013441B68DB430493049B93FAA3F303935A
:109B2400039BB3FA83F30893089B1F2BD8D900E057
:109B340000BF099B01330993009B013B5B0901337F
:109B4400099A9A42BCD3009B18460BB05DF804FBFB
:109B540010B487B001900091019B009A53E8004F24
:109B6400104643E8000191F0000FF7D105940490EA
:109B74000391059B184607B05DF8044B704710B479
:109B840087B001900091019B009A53E8004F44EA8A
:109B9400020043E8000191F0000FF6D1059404900F
:109BA4000391059B184607B05DF8044B704710B449
:109BB40087B001900091019B009A53E8004F44EA5A
:109BC400020043E8000191F0000FF6D105940490DF
:109BD4000391049B184607B05DF8044B704710B41A
:109BE40087B001900091019B009A53E8004F04EA6A
:109BF400020043E8000191F0000FF6D105940490AF
:109C04000391059B184607B05DF8044B704710B4E8
:109C140087B001900091019B009A53E8004F04EA39
:109C2400020043E8000191F0000FF6D1059404907E
:109C34000391049B184607B05DF8044B704710B4B9
:109C440087B001900091019B009A53E8004F04EB08
:109C5400020043E8000191F0000FF6D1059404904E
:109C64000391059B184607B05DF8044B704710B488
:109C740087B001900091019B009A53E8004F04EBD8
:109C8400020043E8000191F0000FF6D1059404901E
:109C94000391049B184607B05DF8044B704710B459
:109CA40087B001900091019B009A53E8004FA4EB08
:109CB400020043E8000191F0000FF6D105940490EE
:109CC4000391049B184607B05DF8044B704700B538
:109CD40083B0019001210198FFF751FF0346184614
:109CE40003B05DF804FB00B583B001900121019835
:109CF400FFF75DFF0346184603B05DF804FB00B5AB
:109D040083B0019000210198FFF769FF03461846CC
:109D140003B05DF804FB82B001900B468DF803306C
:109D2400019BDA689DF803300199098A01FB03F36A
:109D34001344184602B0704782B001900091009B12
:109D4400019AD2689B1A019A128AB3FBF2F3DBB22E
:109D5400184602B0704784B00190019B002B01D1DA
:109D64000E2320E0019B9A68019B5B68D31A8DF84F
:109D74000F30019B1B68019A52681A6007E0019B2F
:109D84001A681368591C11609DF80F201A709DF809
:109D94000F305A1E8DF80F20002BF0D1019B1B6849
:109DA40000221A710023184604B0704700B585B02C
:109DB40001900023039300238DF80A300DF10A0368
:109DC4001846FDF7BBFD019B1B681A68019B5B6885
:109DD4009A421FD9019B1B681A68013A1A601B68D2
:109DE4001B7819460198FFF796FF0390019B9A6828
:109DF400019B1B681B68D31A8DF80B30019B1B68F1
:109E04001B799DF80B209A4204D9019B1B689DF88D
:109E14000B201A719DF80A301846FDF799FD039B33
:109E2400184605B05DF804FB10B584B001900091AC
:109E3400009B039300238DF80B300DF10B031846A0
:109E4400FDF77CFD019B1B681C68621C1A6003996A
:109E54000198FFF771FF034623709DF80B301846F5
:109E6400FDF776FD00BF04B010BD00B583B00190CE
:109E7400019B9B68002B0CD0019B5B69019A1069C4
:109E8400019A1168019A92689847019B00229A608E
:109E940000E000BF03B05DF804FB0EB400B584B06D
:109EA4000190059B002B0AD00023039306AB039378
:109EB40003AB1A460599019800F0B4F900E000BF1D
:109EC40004B05DF804EB03B0704700B583B00190B3
:109ED4000B468DF803309DF803300A2B03D10D2176
:109EE4000198FFF7F2FF019B1A68019B9B68581CBD
:109EF4000199886013449DF803201A70019B9A68A5
:109F0400019B5B689A4202D30198FFF7AEFF00BF42
:109F140003B05DF804FB00B587B003900291019291
:109F2400009300230593009B03F00103002B24D02E
:109F34000BE0029B01330293059B013305939DF8CB
:109F4400133019460398FFF7C0FF029B1B788DF866
:109F540013309DF81330002BEBD106E0019B013B3D
:109F6400019320210398FFF7B0FF019A059B9A42C1
:109F74002ED9019B002BF1D12AE0029B002B0BD0A0
:109F8400029814F02EFF059006E0019B013B01931B
:109F940020210398FFF799FF019A059B9A420FD954
:109FA400019B002BF1D10BE0029B01330293059B33
:109FB400013305939DF8133019460398FFF785FF85
:109FC400029B1B788DF813309DF81330002BEBD1D6
:109FD40000BF07B05DF804FB00B589B0039002919F
:109FE40001920093029B07930123069307E0079ACB
:109FF400019BB2FBF3F30793069B01330693079A85
:10A00400019B9A42F3D2009A069B9A4201D9009B83
:10A0140006930B9B03F00103002B22D10A9B002B18
:10A024001FD00B9B03F00203002B06D0009B002BD8
:10A0340003D130238DF8173002E020238DF8173038
:10A0440008E00A9B013B0A939DF8173019460398D0
:10A05400FFF73BFF0A9B002B03D0069A0A9B9A4208
:10A06400EFD301230793009B012B03D9009B013BF2
:10A07400009309E0029A079BB2FBF3F30493049A5A
:10A08400019B9A4200D205E0079B019A02FB03F36D
:10A094000793E8E7029A079BB2FBF3F30493049B4C
:10A0A400079A02FB03F3029AD31A0293154A049BFC
:10A0B40013441B7819460398FFF707FF079A019B7F
:10A0C400B2FBF3F30793079B002BE3D10B9B03F045
:10A0D4000103002B11D00A9B002B0ED006E00A9B33
:10A0E400013B0A9320210398FFF7EFFE0A9B002B04
:10A0F40003D0069A0A9B9A42F1D300BF09B05DF8D7
:10A1040004FB00BF48FD030000B589B0059004912D
:10A1140003920293049B002BB8BF5B420693012376
:10A12400079307E0039B069A92FBF3F30693079BBE
:10A1340001330793039B069A9A42F3DA029A079B28
:10A144009A4201D9029B07930A9B002B0AD0049BD5
:10A15400002B04DB0B9B03F00403002B02D00A9BAF
:10A16400013B0A930B9B03F00203002B02D0029BDA
:10A17400002B16D00B9B03F00103002B11D10A9B7B
:10A18400002B0ED006E00A9B013B0A932021059880
:10A19400FFF79BFE0A9B002B03D0079A0A9B9A4267
:10A1A400F1D3049B002B07DA049B5B4204932D211B
:10A1B4000598FFF78AFE08E00B9B03F00403002BCD
:10A1C40003D02B210598FFF780FE0B9B03F00203BD
:10A1D400002B19D00B9B03F00103002B14D1029B1D
:10A1E400002B11D10A9B002B0ED006E00A9B013BE9
:10A1F4000A9330210598FFF768FE0A9B002B03D0D1
:10A20400079A0A9B9A42F1D304990B9B01930A9BE8
:10A214000093029B039A0598FFF7DEFE00BF09B086
:10A224005DF804FB00B58FB0059004910392049B84
:10A23400002B00F09181049B1B788DF83730049B30
:10A24400013304939DF83730002B00F07C819DF896
:10A254003730252B40F06B8100230A9301230C93A4
:10A26400049B1B788DF837309DF83730302B0DD098
:10A27400302B1BDC2B2B11D02D2B17D10A9B43F039
:10A2840001030A93049B0133049312E00A9B43F0F5
:10A2940002030A93049B013304930AE00A9B43F0EC
:10A2A40004030A93049B0133049302E000230C93F8
:10A2B40000BF0C9B002BD3D1002309939DF83730AA
:10A2C4002A2B0CD1039B1B68191D039A11601B6870
:10A2D400099A13440993049B013304931AE0049BE1
:10A2E4001B788DF837309DF837302F2B12D99DF815
:10A2F4003730392B0ED8049B01330493099A134643
:10A304009B0013445B001A469DF837301344303BDE
:10A314000993D3E700230B93049B1B788DF8373004
:10A324009DF837302E2B1DD1049B01330493049BDD
:10A334001B788DF837309DF837302F2B12D99DF8C4
:10A344003730392B0ED8049B013304930B9A1346F0
:10A354009B0013445B001A469DF837301344303B8E
:10A364000B93E4E7049B1B788DF837309DF8373066
:10A374006C2B03D09DF83730682B07D1049B013335
:10A384000493049B1B788DF83730EFE79DF8373042
:10A39400252B00F0C280252BC0F2C480782B00F35B
:10A3A400C180582BC0F2BE80583B202B00F2BA80EB
:10A3B40001A252F823F000BFABA4020029A50200B9
:10A3C40029A5020029A5020029A5020029A5020049
:10A3D40029A5020029A5020029A5020029A5020039
:10A3E40029A5020041A4020063A4020029A50200D9
:10A3F40029A5020029A5020029A5020063A40200E0
:10A4040029A5020029A5020029A5020029A5020008
:10A4140029A5020029A50200EBA4020029A5020037
:10A4240029A50200CFA4020029A5020087A40200E6
:10A4340029A5020029A50200ABA40200039B1B6806
:10A44400191D039A11601B680C930C9B8DF81F3027
:10A454009DF81F3019460598FFF737FD63E0039B0D
:10A464001B68191D039A11601B680C930A9B0193C6
:10A47400099B00930B9B0A220C990598FFF744FE55
:10A4840051E0039B1B68191D039A11601B680C9310
:10A494000C990A9B0193099B00930B9B0A22059834
:10A4A400FFF79AFD3FE0039B1B68191D039A116097
:10A4B4001B680C930C990A9B0193099B00930B9BBB
:10A4C40010220598FFF788FD2DE0039B1B68191DDA
:10A4D400039A11601B6808930A9B099A08990598C6
:10A4E400FFF719FD1FE0039B1B68191D039A1160F8
:10A4F4001B680C9330210598FFF7E7FC7821059839
:10A50400FFF7E3FC0C99002301930823009308232D
:10A5140010220598FFF760FD05E025210598FFF757
:10A52400D4FC00E000BF049B0133049305E09DF8D4
:10A53400373019460598FFF7C8FC049B1B78002B9D
:10A544007FF479AE00E000BF059B1B7B002B04D099
:10A554000598FFF78AFC00E000BF0FB05DF804FB2C
:10A5640000B587B0059004910392059B002B10D190
:10A57400194A1A4BD31ADB081B0443F00100184A8A
:10A5840018490E2300930B461749FCF7B8FB0E231A
:10A594001DE0049B002B10D10F4A104BD31ADB088B
:10A5A4001B0443F00100114A0E490E2300930B468D
:10A5B4000D49FCF7A4FB0E2309E0059B049A1A60DD
:10A5C400059B1B681B680399059898470346184622
:10A5D40007B05DF804FB00BF90F5030018F5030015
:10A5E40068FD03000CFF030070FD03009CFD0300E5
:10A5F40010B586B00590049103920293059B002B3D
:10A6040010D1604A604BD31ADB081B0443F00100ED
:10A614005E4A5F490E2300930B465E49FCF76FFBCD
:10A624000E23ABE0039B002B10D1564A564BD31A92
:10A63400DB081B0443F00100574A55490E230093DD
:10A644000B465449FCF75BFB0E2397E0059B1B6804
:10A65400002B10D14B4A4C4BD31ADB081B0443F09C
:10A6640001004E4A4A49082300930B464949FCF726
:10A6740046FB082382E0029B002B10D1414A424B47
:10A68400D31ADB081B0443F00100454A404909235F
:10A6940000930B463F49FCF732FB09236EE0059B10
:10A6A4005B685A68029BB3FBF2F102FB01F29B1A4E
:10A6B400002B10D0334A344BD31ADB081B0443F06D
:10A6C4000100384A3249092300930B463149FCF70B
:10A6D40016FB092352E0049800F01EF90346002BF0
:10A6E40010D1284A284BD31ADB081B0443F001007D
:10A6F4002D4A2749102300930B462649FCF7FFFAFD
:10A7040010233BE0039B184600F006F90346002B98
:10A7140010D11C4A1C4BD31ADB081B0443F0010064
:10A72400224A1B49102300930B461A49FCF7E7FA07
:10A73400102323E0029A0499059800F0D3F8034605
:10A74400002B10D10F4A104BD31ADB081B0443F023
:10A754000100174A0E49102300930B460D49FCF7DC
:10A76400CEFA10230AE0059B1B68DC68089B009363
:10A77400029B039A04990598A0470346184606B01D
:10A7840010BD00BF90F5030018F5030068FD030039
:10A7940020FF030070FD0300FCFD0300A4FD030083
:10A7A400B8FD030004FE030030FE030048FE03006E
:10A7B4006CFE030010B586B00590049103920293D9
:10A7C400059B002B10D13E4A3E4BD31ADB081B04D9
:10A7D40043F001003C4A3D490E2300930B463C499B
:10A7E400FCF78DFA0E2368E0059B1B68002B10D143
:10A7F400334A344BD31ADB081B0443F00100354AB7
:10A804003249082300930B463149FCF778FA0823B0
:10A8140053E0039B002B10D1294A2A4BD31ADB089F
:10A824001B0443F001002C4A2849092300930B46DA
:10A834002749FCF764FA09233FE00499059800F0DE
:10A8440078F80346002B10D11D4A1E4BD31ADB089F
:10A854001B0443F00100214A1C49102300930B46BA
:10A864001B49FCF74CFA102327E0059B5B681B6827
:10A87400039A02FB03F31A460499059800F032F890
:10A884000346002B10D10E4A0E4BD31ADB081B04CF
:10A8940043F00100124A0D49102300930B460C4962
:10A8A400FCF72DFA102308E0059B1B681C69029B2A
:10A8B400039A04990598A0470346184606B010BDAC
:10A8C40090F5030018F5030068FD030034FF03004E
:10A8D40070FD0300A4FD0300B8FD030094FE030013
:10A8E400BCFE030084B0039002910192039BDB68D9
:10A8F400029A9A4209D3029A019B13445A1E039B5B
:10A904001B699A4201D8012300E0002303F00103EC
:10A91400DBB2184604B0704782B00190019B03F08B
:10A924000303002B0CBF01230023DBB2184602B043
:10A93400704782B001900091019B5B681B685A1EAE
:10A94400009B1340002B0CBF01230023DBB21846ED
:10A9540002B0704729DF704700BF184628DF7047F0
:10A9640000BF184600B589B001900091019B1B6897
:10A974009B68002B35D002AB00221A605A609A60A3
:10A98400DA601A615A61009B0393019B9B680793E9
:10A99400019B1B79002B02D0012B0DD01AE001235F
:10A9A4008DF80830019B1B690493019BDB680593B8
:10A9B400019B5B6906930DE002238DF80830019B2F
:10A9C400DB684FF4805202FB03F30493019B5B6941
:10A9D400069300BF019B1B689B6802AA1046984718
:10A9E40000E000BF09B05DF804FB00B587B001903A
:10A9F400019B5A69019B9B69D31AB3F5805F28BFF9
:10AA04004FF4805305930422059BB3FBF2F3012B0F
:10AA140038BF01230593019B1A69019B9B69134469
:10AA24000493019BDB681A46019B9B6913440393BF
:10AA3400059A03990498FFF78DFF0346184607B05B
:10AA44005DF804FB00B583B00190019BDA68019BBB
:10AA54001B6913441846FFF781FF0346184603B0E9
:10AA64005DF804FB08B5034B03491846FEF7A0FF45
:10AA740000BF08BDD47C0020FC7C002008B5084B36
:10AA840008491846FEF77BFF0346074A1360064B46
:10AA94001B68002B14BF01230023DBB2184608BD3A
:10AAA400D47C0020FC7C0020F87C002000B583B01E
:10AAB4002A4B1B7A002B0BD1FFF7E0FF034683F0F0
:10AAC4000103DBB2002B03D0244B00225A6042E086
:10AAD400224B02221A72224B1B681B79002B02D0D4
:10AAE400012B07D00DE01E4B1B681846FFF77DFFB6
:10AAF400019009E01A4B1B681846FFF7A3FF019069
:10AB040002E00323019300BF019B002B03D0019BB0
:10AB1400112B0CD00FE0114B1B7C83F00103DBB233
:10AB2400002B17D00021022000F060F912E00B4B3B
:10AB340001221A720FE00A4B1B6803211846FFF723
:10AB440011FF064B00221A72044B00225A60FFF7D1
:10AB540089FF00E000BF03B05DF804FBE47C002043
:10AB6400F87C002008B50848FFF7B1F80346002B2D
:10AB740008D1064B5B7C83F00103DBB2002B01D0D0
:10AB8400FFF794FF00BF08BDE87C0020E47C0020B0
:10AB940084B001901B4B0022DA60019B1B79002BCF
:10ABA40002D0012B19D028E0019B5A69019B9B69B3
:10ABB400D31AB3F5805F28BF4FF480530393019BEE
:10ABC4009A69039B1A44019B9A61019B9A69019BB0
:10ABD4005B699A420ED1012310E0019B1B695A1C48
:10ABE400019B1A61019B1A69019B5B699A4203D11B
:10ABF400012303E000BF00E000BF0023184604B0B7
:10AC0400704700BFE47C002082B00190084BDB68F1
:10AC14000133074AD360064BDB68082B04D9044B85
:10AC24000022DA60012300E00023184602B07047D6
:10AC3400E47C002000B583B001900091019B0C4A94
:10AC44005A600C48FFF743F80346002B0BD111F070
:10AC5400C9F803461A46074B1A7407481C238C226A
:10AC64000649FEF718FE0023184603B05DF804FBFE
:10AC740048FF0300E47C0020D47C0020487C0020B2
:10AC840000B583B00190009114220021054814F00E
:10AC940053F8054B1846FEF731FE0023184603B05F
:10ACA4005DF804FBE47C0020D47C002000B587B070
:10ACB4000390029101920093174A04AB194610467F
:10ACC400FEF730FE0590059B002B01D104231FE005
:10ACD4001C220021059814F02FF8059B00221A71FC
:10ACE400059B039A1A60059B089A9A60059B029A31
:10ACF4001A61059B019ADA60059B009A5A61064A1B
:10AD040004AB19461046FEF726FEFFF72BFF00237F
:10AD1400184607B05DF804FBD47C002000B585B06C
:10AD24000390029101920093029B009A19460198A4
:10AD340013F0D9FF0023184605B05DF804FB0000AA
:10AD440000B587B00390029101920093184A04ABB6
:10AD540019461046FEF7E6FD0590059B002B01D130
:10AD6400042320E01C220021059813F0E5FF059B35
:10AD740001221A71059B039A1A60059B009A9A6036
:10AD84004FF48052029BB3FBF2F2059BDA60059B01
:10AD9400019A5A61064A04AB19461046FEF7DBFDD8
:10ADA400FFF7E0FE0023184607B05DF804FB00BF80
:10ADB400D47C002082B001900091009B184602B020
:10ADC400704782B0019000910023184602B070478A
:10ADD40082B00190044B1B7A002B14BF0123002383
:10ADE400DBB2184602B07047E47C002000B585B0A1
:10ADF40001900091019B022B02D0019B032B48D1AF
:10AE0400274B1B7A022B05D0022B35DC002B42D0BA
:10AE1400012B31E000238DF80F30019B022B03D06E
:10AE2400019B032B09D011E01E4B1B681846FFF74A
:10AE3400AFFE03468DF80F3008E01A4B1B68184626
:10AE4400FFF7E2FE03468DF80F3000BF9DF80F3088
:10AE5400002B10D0124B00221A72124B1A68019B5D
:10AE6400022B01D1002300E00D2319461046FFF701
:10AE740079FDFFF7F7FD00BF094B5B7C83F001030D
:10AE8400DBB2002B02D0FFF711FE05E010F08EFFBD
:10AE940002E000BF00E000BF05B05DF804FB00BFA6
:10AEA400E47C0020F87C002082B0034600918DF8F9
:10AEB4000730064B01225A74044B1B7A002B0CBF3B
:10AEC40001230023DBB2184602B07047E47C002063
:10AED40000B583B0034600918DF807309DF8073024
:10AEE400012B03D09DF80730032B0DD1084B002212
:10AEF4005A749DF80730012B0CBF01230023DAB2EA
:10AF0400034B1A74FFF7D2FD00BF03B05DF804FBD6
:10AF1400E47C002000B583B001900198FEF71BFF8C
:10AF24000346184603B05DF804FB00B58BB00190EE
:10AF34000091019B1B8A043B0793009A079B1344CF
:10AF4400DA1C079BB2FBF3F38DF81B300198FEF774
:10AF54002DFF0590059B002B01D1002338E0059BB4
:10AF640000221A71059B01225A71079B9AB2059B14
:10AF7400DA80059B09939DF81B30013B0493099BE0
:10AF8400019A1A60002308931DE00198FEF70EFF52
:10AF94000390039B002B0ED0059B5B790133DAB23F
:10AFA400059B5A71099B039A1A60039B019A1A60C4
:10AFB400039B099304E0059800F00EF8002307E0D2
:10AFC400089B01330893089A049B9A42DDD3059B9E
:10AFD40018460BB05DF804FB00B58BB00190019BE3
:10AFE4000793079B5B798DF81B30019B08939DF8B1
:10AFF4001B30013B05930023099305E0089B1B6864
:10B004000893099B01330993099A059B9A42F5D346
:10B01400089B1B680493019B0893002309930BE08E
:10B02400089B1B68039308990498FEF7FDFE039B95
:10B034000893099B013309939DF81B30099A9A429E
:10B04400EED300BF00BF0BB05DF804FB00B585B0C4
:10B054000190019B0393039B043301211846FEF7DF
:10B0640006FE00BF05B05DF804FB00B587B0019093
:10B07400019B0593059B043301211846FEF70FFE3F
:10B084000346039303AB0493049B1B78002B02D168
:10B094000198FFF7A1FF00BF07B05DF804FB00B5FE
:10B0A40091B00390029101920093039B0993039B37
:10B0B4000F93099BDB881A46099B5B7903FB02F318
:10B0C400043B0893099BDB880793009B1A1D079B8D
:10B0D400B2FBF3F30E93009B0433079AB3FBF2F233
:10B0E400079901FB02F29B1A0D93019B1A68009BBE
:10B0F4001344089A9A4203D2089A009BD31A01E097
:10B10400019B1B680C93019B0C9A1A6005E00F9B32
:10B114001B680F930E9B013B0E930E9B002BF6D1E5
:10B1240000230B93079A0D9BD31A0A930A9A0C9B3C
:10B13400934228BF13460A932AE0029A0B9B1344B6
:10B1440006930F9A0D9B1344043305939DF84830DE
:10B15400002B05D00A9A0599069813F0C4FD04E063
:10B164000A9A0699059813F0BEFD00230D930F9BD0
:10B174001B680F930C9A0A9BD31A0C930B9A0A9B85
:10B1840013440B93079A0C9B934228BF13460A93CC
:10B194000C9B002BD1D100BF00BF11B05DF804FBA4
:10B1A40000B589B00590049103920293039B079321
:10B1B40007AA00230093029B04990598FFF76FFFE9
:10B1C40000BF09B05DF804FB00B589B00590049197
:10B1D40003920293039B079307AA01230093029B04
:10B1E40004990598FFF75BFF00BF09B05DF804FB05
:10B1F40082B00190019B9B6800229A60019B9B682E
:10B2040000221A61019B9B6800225A61019B9B6882
:10B214000022DA60019B9B6800225A60019B9B68B4
:10B2240000221A6000BF02B0704782B00190009102
:10B23400019B009A1A60019B1B681A68019B5A6063
:10B24400019B5A68019B1B685B689A4202D1019B6F
:10B2540000225A6000BF02B0704782B00190019B87
:10B264005B68002B14D0019B5B681A46019B1B682A
:10B274009B6813441A46019B5A60019B5A68019BC0
:10B284001B685B689A4204D1019B00225A6000E06B
:10B2940000BF02B07047000000B585B0019001986E
:10B2A40000F00EF80390039B002B01D0039B00E0F9
:10B2B400024B184605B05DF804FB00BF74FF0300A1
:10B2C40086B00190164B0593164B04931FE0049A25
:10B2D400059BD31ADB10DA0F13445B10DB00059ACD
:10B2E40013440393039B1B680293029A019B9A42A3
:10B2F40002D9039B04930AE0029A019B9A4203D267
:10B30400039B0833059302E0039B5B6804E0059A02
:10B31400049B9A42DBD30023184606B0704700BF53
:10B32400740304009C040400A8DF704700BF18469F
:10B33400ADDF704700BF1846AEDF704700BF184648
:10B3440062DF704700BF184600B58FB001900091CE
:10B3540000230393019B5869009B9B8803AA194609
:10B3640000F003FA0D9005AB08220021184613F0F3
:10B37400E3FC04AB06930223ADF814300023ADF8CC
:10B384001630009B9888019B1B8A05AA1946FFF773
:10B39400CFFF0D900D9B002B26D1019B9B69002BA9
:10B3A40022D0069B184609F0FFFF0346002B1BD052
:10B3B400039B002B02D0039B01221A7007AB1822B7
:10B3C4000021184613F0B8FC02238DF81C30019BB1
:10B3D4000893009B9B88ADF82430039B0A93019B40
:10B3E4009B6907AA1046984700BF0FB05DF804FB9D
:10B3F40000B58DB001900091009B06330B93019B27
:10B404005869009B9B8803AA194600F0AEF90A907C
:10B4140004AB18220021184613F08EFC019B0593FF
:10B42400009B9B88ADF81830039B07930B9B1A88ED
:10B43400019B1B899A4225D10B9B5B89022B21D14D
:10B44400039B002B38D00B9B0C33184609F0ACFF40
:10B454000346002B06D0039B01221A7002238DF8A9
:10B46400103005E0039B00221A7003238DF810307E
:10B47400019B9B69002B1FD0019B9B6904AA10466A
:10B48400984719E00B9B1A88019B9B899A4214D117
:10B49400019B9B69002B10D000238DF810300B9B6F
:10B4A4000C3308930B9B5B89ADF82430019B9B699B
:10B4B40004AA1046984700E000BF00BF0DB05DF835
:10B4C40004FB00B58BB001900091019B5869009B6F
:10B4D4009B8802AA194600F048F90990099B002BA1
:10B4E4001AD1029B1B78002B17D003AB1822002122
:10B4F400184613F021FC01238DF80C30019B0493B2
:10B50400009B9B88ADF81430029B0693019B9B69BA
:10B5140003AA1046984700E000BF0BB05DF804FB97
:10B5240000B585B001900091009B002B1ED0019BBB
:10B53400002B1BD0009B0393019B1B88572B10D01F
:10B54400572B15DC102B02D0502B05D010E001999D
:10B554000398FFF7F9FE0CE001990398FFF748FF01
:10B5640007E001990398FFF7ACFF02E000BF00E099
:10B5740000BF05B05DF804FB10B592B001900091D6
:10B584004F4B0AAC0FCB84E80F00019B002B01D179
:10B594000E2391E0009B002B01D10E238CE0009B35
:10B5A4001A68019B9A61019A0AAB11461846FFF783
:10B5B400C7FE1190119B1093109B002B01D0109B80
:10B5C4007AE0019B1B788DF83A300123ADF83830CE
:10B5D400019B9A1C0EAB19460120FFF7A5FE1190A2
:10B5E400119B0F930F9B002B01D00F9B64E002ABC8
:10B5F40020220021184613F09FFB0223ADF80830E7
:10B60400019B1B788DF80A306123ADF80C300123BF
:10B61400ADF80E3001238DF814309DF8153043F049
:10B6240008038DF815309DF8153043F004038DF8A8
:10B63400153001238DF8193001238DF81A30019B40
:10B644005888019B03F10C0202AB194609F034FF40
:10B654001190119B002B01D0119B2DE002AB2022F5
:10B664000021184613F068FB0323ADF80830019B52
:10B674001B788DF80A306123ADF80C300123ADF846
:10B684000E3001238DF814309DF8153043F010036B
:10B694008DF8153001238DF8193001238DF81A30F7
:10B6A40001238DF81B30019B5888019B1A1D02ABA6
:10B6B400194609F001FF0346184612B010BD00BF39
:10B6C400A404040000B58DB0039002910192ADF87A
:10B6D4000230039B002B01D10E2342E0039B5B69E4
:10B6E40005AABDF80210184600F03FF80B900B9B1A
:10B6F4000A930A9B002B01D00A9B32E0BDF802306A
:10B704004FF6FF72934202D0059B002B01D1052313
:10B7140027E0059B1B7883F00103DBB2002B01D0EB
:10B7240008231EE0019B1B88612B01D9072318E025
:10B7340006AB10220021184613F0FEFA039B9B88E7
:10B74400ADF81830029B0993019B089301238DF8EF
:10B754001A3006AABDF8023011461846FFF7ECFD70
:10B76400034618460DB05DF804FB00B587B003909E
:10B774000B460192ADF80A30019B002B01D10E2338
:10B7840038E0019B00221A60039B002B01D10E2399
:10B7940030E0039B1B68002B01D10E232AE0039B9E
:10B7A400DB8803F003039BB2002B01D0072321E0C5
:10B7B400BDF80A30184609F0F3FC03468DF817303B
:10B7C4009DF81730142B01D1052313E0039B1B793B
:10B7D4009DF817209A4201D304230BE0039B1B68B6
:10B7E4009DF817200399C98801FB02F21A44019BB2
:10B7F4001A600023184607B05DF804FB82B00346C4
:10B804008DF807309DF8073003F01F0205499DF9B4
:10B8140007305B09012000FA02F241F8232000BF3F
:10B8240002B0704700E100E082B0034600918DF859
:10B8340007309DF90730002B0CDA009BDAB20C4973
:10B844009DF8073003F00F03043B5201D2B20B44BE
:10B854001A7609E0009BDAB206499DF907305201D5
:10B86400D2B20B4483F8002300BF02B0704700BF7C
:10B8740000ED00E000E100E000B583B003460A46B5
:10B884008DF8073013468DF806309DF806209DF993
:10B89400073011461846FFF7C7FF00BF03B05DF835
:10B8A40004FB00B583B003468DF807309DF90730DB
:10B8B4001846FFF7A3FF00BF03B05DF804FB82B096
:10B8C40003468DF807309DF8073003F1804303F5F4
:10B8D400E04301221A6000BF02B0704782B0034601
:10B8E4008DF807309DF8073003F1804303F5E043FA
:10B8F400184602B0704782B00346ADF80630BDF872
:10B90400063003F1804303F5E0431B68002B14BFAA
:10B9140001230023DBB2184602B0704784B003460B
:10B92400ADF80630BDF8063003F1804303F5E0437B
:10B9340000221A60BDF8063003F1804303F5E043AA
:10B944001B680393039B00BF04B0704782B0034697
:10B954008DF807300B468DF8063013468DF8053008
:10B964000A499DF807309DF8052051331B010B440B
:10B9740004331A6005499DF807309DF806205133B9
:10B984001B010B441A6000BF02B0704700700040F6
:10B9940082B00190034A019BC2F8043300BF02B095
:10B9A400704700BF0070004082B00190034A019BC1
:10B9B400C2F8083300BF02B0704700BF00700040F7
:10B9C400024B0122C3F8002500BF704700700040FD
:10B9D400024B0022C3F8002500BF704700700040EE
:10B9E40082B001900091054A019BC2F82C36034AAB
:10B9F400009BC2F8303600BF02B0704700700040B0
:10BA040082B003468DF80730034A9DF80730C2F828
:10BA1400F03500BF02B070470070004082B00346AA
:10BA24008DF80730034A9DF80730C2F8F43500BF9B
:10BA340002B070470070004000B583B00346009127
:10BA44008DF80730009B1B7803F00302009B5B78A2
:10BA54001B0103F030031A43009B9B781B0203F481
:10BA6400E0631A43009BDB781B0303F480531A43FF
:10BA7400009B1B791B0403F4E0231A43009B5B79AE
:10BA84001B0503F4801342EA0301009B9B791B0608
:10BA940003F080720A489DF807300A431B010344EF
:10BAA40003F5A3631A60009BD979009B1A7A9DF869
:10BAB40007301846FFF74AFF00BF03B05DF804FBE8
:10BAC4000070004000B58DB04FF48270FFF713FF93
