:020000022000DC
:1060000000000120756302005D63020055880200F4
:106010006163020063630200656302000000000028
:1060200000000000000000000000000089B702002E
:106030006963020000000000A9B702006D6302005E
:10604000E9DA02006F630200FDE102004DAA0200DE
:106050006F6302006F630200A1DF020031A0020043
:106060006F6302006F6302006F6302006F630200E0
:106070006F6302006F6302006F6302006F630200D0
:106080006F630200F5B902006F6302006F630200E4
:106090006F6302006F630200754903006F630200C3
:1060A0006F6302006F6302006F630200C9A7020002
:1060B0006F6302006F630200000000000000000038
:1060C0006F6302006F6302006F6302006F63020080
:1060D0006F6302006F6302006F6302000000000044
:1060E00000000000000000000000000000000000B0
:1060F00000000000000000000000000000000000A0
:10610000000000000000000000000000000000008F
:10611000000000000000000000000000000000007F
:10612000000000000000000000000000000000006F
:10613000000000000000000000000000000000005F
:10614000000000000000000000000000000000004F
:10615000000000000000000000000000000000003F
:10616000000000000000000000000000000000002F
:10617000000000000000000000000000000000001F
:10618000000000000000000000000000000000000F
:1061900000000000000000000000000000000000FF
:1061A00000000000000000000000000000000000EF
:1061B00000000000000000000000000000000000DF
:1061C00000000000000000000000000000000000CF
:1061D00000000000000000000000000000000000BF
:1061E00000000000000000000000000000000000AF
:1061F000000000000000000000000000000000009F
:10620000354936480A1A02D0072291438D4634494F
:1062100034480A1A06D00722914381F309880222E2
:1062200082F3148830483149314A00F044F831484B
:106230003149324A00F03FF831483249324A00F0E1
:106240003AF832483249334A00F035F83248334997
:10625000334A00F030F833483349344A00F02BF821
:1062600033483449344A00F026F83448344900228F
:1062700000F02CF833483449002200F027F8334866
:106280003349091A082902DB002202604160314AC1
:1062900090471F481F49884205D00268043003B464
:1062A000904703BCF7E700208646EC46002000211B
:1062B000294A9047FEE7884207D0521A05D0037852
:1062C00001300B700131013AF9D17047884202D098
:1062D00002700130FAE770470000012000F800204A
:1062E000000001200000012070B30300CC57002003
:1062F0004C580020D4630200D4630200F8710300FC
:1063000070B30300CC570020CC570020A0730300CB
:10631000A0730300A0730300A0730300A073030025
:10632000A0730300A0730300A07303006FB3030006
:10633000F0B303004C5800204C5800204C5800206B
:1063400098D9002098D9002098D9002098D9002009
:1063500098DD00209D6302000DF00200FEE7FEE7DD
:10636000FEE7FEE7FEE7FEE7FEE7FEE7FEE7FEE705
:10637000704700BF1048804710484FF0070188431E
:1063800085460F4880470F48016841F4700101605D
:10639000BFF34F8FBFF36F8FFFF732BF0A480B4930
:1063A0000B4A884207D0521A05D0037801300B708F
:1063B0000131013AF9D170477163020000000120F8
:1063C0002DB4020088ED00E08C730300B857002064
:0463D000CC57002086
:1063D4007047704700B583B0044B00934023044AD0
:1063E40000F034F803B05DF804FB00BFF963020069
:1063F400505800200AB3F8B50F461446032600256A
:1064040003E00E4B01221A70B4B122467919002020
:1064140008F028FF0544241A0028F2D1074B1B7802
:1064240053B14FF47A40064B43F001039847013EC1
:10643400E7D1024B00221A70F8BD70474C58002077
:10644400A073030008B508F043FF08BDF0B595B08C
:106454000E4615461C46084603F094FB0E950F9411
:10646400002410948DF8444012941A9B13932346ED
:10647400082208A9304603F0AFFB0A9B0B93BDF832
:106484002430ADF83030BDF82630ADF832308DF818
:1064940035409DF8203003F00303012B06D0022B76
:1064A40021D0304603F074FB15B0F0BD089DC5F350
:1064B40095259DF82030C3F3C2038DF83430BDF820
:1064C4002040C4F383140823A2000DEB03013046DB
:1064D40003F082FB0EAB00930BAB224602A92846C5
:1064E40000F0E0FEDDE7BDF82250C5F389159DF804
:1064F4002030C3F3C2038DF8343008272C46082D0E
:1065040028BF08243B46224602A9304603F064FB18
:1065140027442D1B0EAB0BAA214602A800F026FF30
:10652400002DEBD1BDE7000008B5FFF78BFF042178
:10653400064800F01FFE002803DB054B01225A71B8
:1065440008BD0449412008F0FFFBF6E77C73030013
:10655400CC570020B4730300037813F0040F19D050
:1065640003F00303012B03D0022B0AD00120704750
:106574000388C3F383130A68134402330B600120B6
:1065840070474388C3F389130A68134402330B60CA
:106594000120704700207047002002E0012393B9D6
:1065A400013009280DDC084A42F21003D358002BAD
:1065B400F4D0DB681A79824201D01B68F7E7002324
:1065C400EDE74FF0FF3070476059002010B584B0FC
:1065D4002C4C204602F0A5FB201F02F0A2FB2A4807
:1065E4004368039384682340023300EB8300043040
:1065F40003A9FFF7B1FF90B303982040831C2248FE
:1066040000EB83000430F3E7039B591C0391234000
:1066140002331D4901EB83035B684DF822300132DC
:10662400012AF1D99DF8003003F00303012B18D09F
:10663400022B20D1BDF80640BDF80230C3F3891304
:106644000333039A02EB93030393104802F06EFBA7
:1066540010B10D4B039A5A60204604B010BD0022BD
:10666400DEE7BDF80640BDF80030C3F38312039B98
:1066740013440393E9E706494FF4BF7008F064FB41
:106684000024E2E778790020605900207479002022
:106694003C74030010B50E4B40F2FF729A60002266
:1066A4001A605A6042F218015A5042F214015A50C8
:1066B40042F2200201219954064803F017FA0446D5
:1066C40008B1204610BD044803F09CFAF9E700BF66
:1066D4006059002080720300C47403000248034B15
:1066E400C01AC008704700BF7C7303009472030093
:1066F40099B110B50446FFF7F1FF002383420AD293
:10670400074A32F823102268914201D00133F5E799
:106714002360002000E0052010BD0020704700BF6A
:10672400CC57002000B583B0019001A8FFF7E0FF2B
:1067340030B9019A034B53F8320003B05DF804FBFF
:106744000020FAE794720300094B03EBC0030139FC
:10675400032909D8DFE801F0020A04060220704781
:1067640018797047587970470020704704207047A3
:1067740094720300034B58681B68984214BF0020AE
:1067840001207047605900202DE9F04186B0FFF7E1
:10679400F1FF002840F02F810546984842F2180383
:1067A4000022C250BFF34F8F43680593846823408F
:1067B400023300EB8300043005E0234002338F48AA
:1067C40000EB8303181D05A9FFF7C6FE002831D08E
:1067D4008A4A42F21803D35873BB1268059B9A4243
:1067E400EBD8864B5A6002E1059B591C0591234066
:1067F4000233824901EB8303596802AB43F8221048
:106804000132012AF0D99DF8083003F00303022B6A
:1068140014D0012B00F08280784A42F21003D4583D
:10682400002C00F0D58023689B6820469847E368D5
:106834001C68F5E70022E4E70022E2E7BDF80A302D
:10684400C3F389173E46502F28BF502666F38F1393
:10685400ADF80A3006F10801694803F062F905460B
:1068640000283FD003F08EF9002308220DEB02012B
:10687400284603F09BF9059924EA010201329300AA
:10688400B6EB820F3DD93BB101EA040202325B4907
:1068940001EB8202111D00E05A494BB1DCB24BB14D
:1068A400DFF860814BB1F6B2DBB2F31ADEB205E079
:1068B400F4B2F4E74FF00008F4E700260823224678
:1068C400284603F073F904F10803B8F1000F04D06B
:1068D40032464146284603F069F90337059B03EB2A
:1068E40097070597002D97D0444B42F210029C580D
:1068F40042F218029B58002B48D0284603F048F96E
:1069040070E001EA040302333C4901EB83010823EC
:1069140032460431284603F049F9DEE7BDF8082081
:10692400C2F38313062B28BF062363F38912ADF841
:10693400082002339900324803F0F3F80546002892
:10694400D0D003F01FF9002308220DEB02012846E2
:1069540003F02CF9002608270FE0059B5A1C05922A
:1069640023400233254901EB83013B4604221144B1
:10697400284603F01BF904370136BDF80830C3F389
:106984008313B342E9D8ADE7E3681C684CB1E3680C
:106994005B79002BF8D023681B682946204698476A
:1069A400F2E7284603F0F4F800238DF807300DF1E0
:1069B400070000F063FE114A42F21803D35813B9DA
:1069C4001346059A5A609DF8070000F08BFE09E013
:1069D4000D4B0E48C01AC00800040D4940F00200D7
:1069E40000F018F8FFF7C6FE80F00105EDB2284666
:1069F40006B0BDE8F0810025F9E700BF605900202A
:106A0400807203006C59002094720300DC7203004E
:106A1400AC7403002DE9F04383B005460E46DFF85D
:106A2400F880D8F8084000238DF807300DF10700EE
:106A340000F024FED8F80070D8F80820D8F8043004
:106A4400DB1B13440133012B13D8DFF8D080012161
:106A5400404602F045F9FFF7B9FD0146404602F011
:106A64003FF92D4A9168536812689B1A0B4401330D
:106A7400E9E70022012363F3010242F004026FF309
:106A84008912254908688B680340023301EB8303AC
:106A94005A60023008609DF8070000F023FE4FEAB8
:106AA400154800211D4802F0C8F880F31009FFF7CB
:106AB40015FE80452AD27B1C234048EA094016492A
:106AC400023301EB8303586004EA0703023301EB4A
:106AD40083031A7965F3C5021A719A886FF38912D0
:106AE4009A805A6866F39F225A60012060F301027B
:106AF4006FF382021A7142F22003CB5C1BB1FFF7E1
:106B040043FE0028FBD103B0BDE8F083044940F202
:106B1400A31008F019F9CEE7605900207C79002011
:106B24003C7403002DE9F04383B005460E46019200
:106B3400DFF81C81D8F8084000238DF803300DF1EC
:106B4400030000F09BFDD8F80070D8F80820D8F8AE
:106B54000430DB1B13440133022B13D8DFF8F48019
:106B64000121404602F0BCF8FFF730FD01464046E3
:106B740002F0B6F8364A9168536812689B1A0B44BF
:106B84000133E9E70022012363F3010242F0040226
:106B940063F389122E4908688B680340023301EBC2
:106BA40083035A60033008609DF8030000F09AFDE7
:106BB400BA1C00237BB904EA020102A800EB83009B
:106BC40050F804CC881C224901EB8001C1F804C0B0
:106BD40001330132EEE74FEA154800211D4802F067
:106BE4002CF880F31009FFF779FD80452AD27B1C2D
:106BF400234048EA09401649023301EB83035860F5
:106C040004EA0703023301EB83031A7965F3C5022F
:106C14001A719A88012060F389129A805A6866F37F
:106C24009F225A6060F301026FF382021A7142F2EA
:106C34002003CB5C1BB1FFF7A7FD0028FBD103B0F9
:106C4400BDE8F083044940F2A31008F07DF8CEE7D4
:106C5400605900207C7900203C7403002DE9F04346
:106C640085B005460E4602920393DFF82481D8F8D6
:106C7400084000238DF807300DF1070000F0FEFCFA
:106C8400D8F80070D8F80820D8F80430DB1B134477
:106C94000133032B13D8DFF8FC800121404602F0B6
:106CA4001FF8FFF793FC0146404602F019F8384AF2
:106CB4009168536812689B1A0B440133E9E7002278
:106CC400012363F3010242F00402022363F38912F5
:106CD4002F4908688B680340023301EB83035A6031
:106CE400043008609DF8070000F0FCFCBA1C002387
:106CF400012B0FD804EA020104A800EB830050F82A
:106D040008CC881C224901EB8001C1F804C001337E
:106D14000132EDE74FEA154800211E4801F08DFFCE
:106D240080F31009FFF7DAFC80452BD27B1C23404B
:106D340048EA09401649023301EB8303586004EA28
:106D44000703023301EB83031A7965F3C5021A7151
:106D54009A88022060F389129A805A6866F39F2207
:106D64005A60012060F301026FF382021A7142F249
:106D74002003CB5C1BB1FFF707FD0028FBD105B056
:106D8400BDE8F083044940F2A31007F0DDFFCDE72E
:106D9400605900207C7900203C7403002DE9F04305
:106DA40085B005460E46019202930C9B0393DFF8CF
:106DB4002481D8F8084000238DF803300DF1030036
:106DC40000F05CFCD8F80070D8F80820D8F804303B
:106DD400DB1B13440133042B13D8DFF8FC8001219F
:106DE400404601F07DFFFFF7F1FB0146404601F00C
:106DF40077FF384A9168536812689B1A0B44013331
:106E0400E9E70022012363F3010242F004020323B1
:106E140063F389122F4908688B680340023301EB3E
:106E240083035A60053008609DF8030000F05AFCA3
:106E3400BA1C0023022B0FD804EA020104A800EBB9
:106E4400830050F80CCC881C224901EB8001C1F866
:106E540004C001330132EDE74FEA154800211E4812
:106E640001F0EBFE80F31009FFF738FC80452BD2CC
:106E74007B1C234048EA09401649023301EB830393
:106E8400586004EA0703023301EB83031A7965F3BC
:106E9400C5021A719A88032060F389129A805A688D
:106EA40066F39F225A60012060F301026FF38202AD
:106EB4001A7142F22003CB5C1BB1FFF765FC00287A
:106EC400FBD105B0BDE8F083044940F2A31007F0FC
:106ED4003BFFCDE7605900207C7900203C7403001F
:106EE4002DE9F04387B005460E46029203930E9BAC
:106EF40004930F9B0593DFF82481D8F808400023FE
:106F04008DF807300DF1070000F0B8FBD8F80070D9
:106F1400D8F80820D8F80430DB1B13440133052BC0
:106F240013D8DFF8FC800121404601F0D9FEFFF7B9
:106F34004DFB0146404601F0D3FE384A9168536840
:106F440012689B1A0B440133E9E70022012363F31F
:106F5400010242F00402042363F389122F490868F2
:106F64008B680340023301EB83035A6006300860E8
:106F74009DF8070000F0B6FBBA1C0023032B0FD8C2
:106F840004EA020106A800EB830050F810CC881C28
:106F9400224901EB8001C1F804C001330132EDE75D
:106FA4004FEA154800211E4801F047FE80F31009FE
:106FB400FFF794FB80452BD27B1C234048EA094011
:106FC4001649023301EB8303586004EA07030233D2
:106FD40001EB83031A7965F3C5021A719A880420B8
:106FE40060F389129A805A6866F39F225A600120DE
:106FF40060F301026FF382021A7142F22003CB5C48
:107004001BB1FFF7C1FB0028FBD107B0BDE8F0833B
:10701400044940F2A31007F097FECDE76059002021
:107024007C7900203C7403002DE9F04387B00546C9
:107034000E46019202930E9B03930F9B0493109BA5
:107044000593DFF82481D8F8084000238DF8033035
:107054000DF1030000F012FBD8F80070D8F80820F6
:10706400D8F80430DB1B13440133062B13D8DFF8A4
:10707400FC800121404601F033FEFFF7A7FA0146E8
:10708400404601F02DFE384A9168536812689B1AF5
:107094000B440133E9E70022012363F3010242F0C8
:1070A4000402052363F389122F4908688B6803409F
:1070B400023301EB83035A60073008609DF8030034
:1070C40000F010FBBA1C0023042B0FD804EA0201C1
:1070D40006A800EB830050F814CC881C224901EB6D
:1070E4008001C1F804C001330132EDE74FEA1548CD
:1070F40000211E4801F0A1FD80F31009FFF7EEFA0C
:1071040080452BD27B1C234048EA094016490233B0
:1071140001EB8303586004EA0703023301EB8303A2
:107124001A7965F3C5021A719A88052060F38912E9
:107134009A805A6866F39F225A60012060F3010224
:107144006FF382021A7142F22003CB5C1BB1FFF78A
:107154001BFB0028FBD107B0BDE8F083044940F2D3
:10716400A31007F0F1FDCDE7605900207C790020E1
:107174003C74030010B50446FFF70EFAB0F1FF3F6C
:1071840010D0E36818710B4A42F21003D35853B17C
:10719400DA68E36812681A60064A42F21003D358A8
:1071A400DB681C6010BD42F21003D450E368002277
:1071B4001A60F7E76059002010B50A4B42F210023A
:1071C4009C5842F22002012199544CB1E3680122F7
:1071D4005A7123685B6820469847E3681C68F4E7A3
:1071E40010BD00BF6059002070B582B004460D4642
:1071F400C388A3B9217A05290FD0637ABBB9227A4F
:10720400104B53F822600021A088FFF78BFA034645
:1072140032460D49284601F065FE02B070BD0B4AA6
:1072240000920B4A0B49284601F05CFEE2E7A08875
:10723400FFF78AFA084B53F820200849284601F042
:1072440051FEDCE78C750300F8740300F07403004E
:10725400D0740300D8740300687503002CA10300E4
:1072640010B50C46037A052B0FD0437A3BB90A4973
:10727400204601F037FE204601F020FE10BD074AEB
:107284000749204601F02EFEF1E7002AF3D0024917
:10729400204601F027FEEEE790AC0300F0740300F3
:1072A4002CA103002DE9F04385B080460D46174616
:1072B4001E460C9C94F80C90002323732146304600
:1072C400FFF792FF062F09D8DFE807F00412181F12
:1072D400283340004146204601F004FE00222146A6
:1072E4003046FFF7BDFF84F80C9005B0BDE8F0838D
:1072F4002A684146204601F0F5FDEFE76B682A68ED
:107304004146204601F0EEFDE8E7AB6800936B6868
:107314002A684146204601F0E5FDDFE7EB6801936A
:10732400AB6800936B682A684146204601F0DAFD99
:10733400D4E72B690293EB680193AB6800936B6805
:107344002A684146204601F0CDFDC7E76B690393E7
:107354002B690293EB680193AB6800936B682A680E
:107364004146204601F0BEFDB8E70000082900D9D7
:1073740070472DE9F04707460E4690461D4693F8A0
:107384000C9000241C7319461046FFF72DFF04E0EF
:107394001C49284601F0A6FD0134072C07D8B44245
:1073A400F6D23A5D1849284601F09CFDF4E71749E6
:1073B400284601F097FD002409E082460FF092FA76
:1073C40078B152461249284601F08CFD0134072C4D
:1073D4000FD8B44208D2385D7E28EED94FF02E0A79
:1073E400EFE74FF02E0AECE70A49284601F07AFD50
:1073F400ECE7012229464046FFF732FF85F80C905E
:10740400BDE8F0870C7503000475030010750300D4
:1074140014750300588F030082B001238DF80730E0
:107424009DF80730134B186059609A6044F20103C9
:10743400984213D044F20203984207D10D4BDA600C
:10744400DA6812889A61DA685268DA6172B69DF86D
:107454000730002BFBD162B602B07047054B1A61AE
:107464001A6992685A611A6912689A611A695268AB
:10747400DA61EBE71C7A002000B583B0029000913A
:10748400019244F2010071466A460DF0AFFE03B06A
:1074940000BD000038B5054606F044F904464368CB
:1074A400AB4203D00A496A2007F04EFCA3684BB1F3
:1074B400237B33B1637B83F001032373A3682068C8
:1074C400984738BD02496B2007F03EFCF0E700BF47
:1074D400A07503000020704770B582B004681AB329
:1074E4000D46164610B3237B13BB636813B1082003
:1074F40002B070BD1022002120460FF0DBFA002DEF
:107504000CBF012300236373A6600B4B0093234637
:1075140014BF012200224FF47A71084805F05EFF7F
:10752400606038B10020E3E70720E1E70720DFE7E8
:107534000820DDE70E20DBE799740200588F030072
:10754400F0B585B04668002E4DD004460F46037B47
:10755400002B4AD10260EFF3058535B30393009302
:1075640003AB0A460921304605F052FF012801D039
:1075740004253BE005F09AF902460023009303AB8F
:107584000621304605F044FF0128F1D1039B43B1A5
:10759400184B4FF080525A6040BFBFF34F8FBFF378
:1075A4006F8F01232373002520E0304606F0A4F8F2
:1075B400E0B90223009300233A460421304605F043
:1075C40027FF012801D0042510E005F069F90246DF
:1075D4000223009300230121304605F019FF0128FE
:1075E400DFD0042502E0082500E00025284605B088
:1075F400F0BD00BF00ED00E010B584B00446406863
:1076040030B3EFF30583B3B100220392009203ABCE
:10761400082105F0FDFE01280BD1039BA3B10E4BFD
:107624004FF080525A6040BFBFF34F8FBFF36F8F4C
:107634000AE004200AE00223009300231A460321EF
:1076440005F0E6FE012805D10020207304B010BD2A
:107654000820FBE70420F9E700ED00E0EFF30583E1
:10766400C3F308033BB9EFF3148313F0010F0CBF0A
:1076740001200020704701207047000038B50446FF
:10768400FFF7ECFF01281CD1EFF3108272B6114B07
:107694009B68DBB90F4901238B600F4BD3F8800043
:1076A4000E4D28400860C3F88050D3F88400486029
:1076B4004FF0FF31C3F884100023237002B962B67F
:1076C40038BD0749432007F03FFBDDE70123237062
:1076D400F4E700BF3C7A002000E100E0FC06FFBDB7
:1076E4001076030010B50446FFF7B8FF012811D146
:1076F4000B4B9B686BB164B9EFF3108172B6084B06
:107704001868084A10605868506000229A6001B9ED
:1077140062B610BD0449512007F016FBE8E700BF2C
:107724003C7A002000E100E01076030038B50546FD
:10773400002400E00134032C07D8044B53F8243010
:10774400002BF7D028469847F4E738BD547A002038
:107754000378013B052B34D8DFE803F0030611203E
:10776400293100230B70704701230B7003898B812F
:107774008388CB81C3688B6000230B74704702231A
:107784000B7003898B818388CB81C3688B60837D75
:10779400062B14BF002301230B74704703230B70C3
:1077A400C3888B810389CB81C3688B6070470423B2
:1077B4000B70C3888B810023CB818B6070470523BA
:1077C4000B707047884207D20368B3F1FF3F01D0C2
:1077D400012070470020704700207047438803331E
:1077E40000EB8300704738B504460D46FFF7F6FFFB
:1077F400854208D3A2884FF6FF739A4205D02388A6
:107804002BB1002038BD0220FCE70120FAE701205B
:10781400F8E7000060B10A4AD26882420AD8084AEE
:107824001269824208D310F0030F07D10120704778
:1078340000207047002070470020704700207047E8
:10784400B857002060B10168094A91420AD14368DF
:10785400084A934208D00132934207D1012070476D
:1078640003207047032070470020704703207047AF
:10787400DEC0ADDEFE011EF1002300E00133B3F5EE
:10788400806F06D250F82320B2F1FF3FF6D00020DB
:10789400704701207047000010B4094A00EB8004CF
:1078A40002EB840423890B44608910FA83F080B2CC
:1078B400B0F5806F2CBF002001205DF8044B7047A9
:1078C400887A00200023012B18D810B403E0013378
:1078D4009BB2012B0ED803EB8302094C04EB82020A
:1078E40052688A42F3D202F580528A42EFD9038069
:1078F400002000E00A205DF8044B70470A2070471E
:10790400887A0020F8B50D46174600F5805600F138
:10791400080402230B800DE00FB101223A70022B00
:107924001CD063882A88134403332B802046FFF736
:1079340055FF044631462046FFF744FF88B13146DF
:107944002046FFF750FF03460028E5D1A368054A07
:1079540012689342E5D9034A1360E2E74FF4806367
:107964002B80F8BD807A00208B7D022B04D9CB8834
:107974000289134403330381CA8843899B1A033B56
:1079840043817047F8B5033086B240F2FD339E421E
:1079940020D80D46002401E00134A4B2012C17D8EC
:1079A40004EB84030C4A12F82330002BF4D1314643
:1079B4002046FFF771FF0028EED02C80064B04EB25
:1079C400840203EB8202508930445081002000E09D
:1079D4000720F8BD0920FCE7887A002010B4064A85
:1079E40001EB810402EB840463891B1A033B63816A
:1079F4005DF8044B704700BF887A0020F8B50E4646
:107A040000EB8000134B03EB8000446804F58055C1
:107A14000868A0B1FFF7E2FE044629462046FFF7B6
:107A2400D1FE074698B129462046FFF7DCFE01281F
:107A340007D002280AD00028EFD1346007E00834C8
:107A4400EBE72046FFF7CAFE0446E6E70027384680
:107A5400F8BD00BF887A002070B582B006460D4696
:107A64004068FFF7D7FE20B13289174B1B899A4231
:107A740018D000232B802B88012B23D800230193BB
:107A840001A92888FFF7BAFF0146B8B1019B9C6899
:107A940032689442F4D173600B4B1B8933810846DE
:107AA40002B070BD326871688B689A42E1D1284691
:107AB400FFF708FFB0FA80F14909F0E72B8801339A
:107AC4002B80D8E70021EAE76C7A0020F8B51C4641
:107AD4001D4B1B78002B32D005460F461646002A54
:107AE4002FD034B9052027E000232360A388013375
:107AF400A380A388012B20D803EB8303134A12F835
:107B04002330002BF2D12146A088FFF777FF00280D
:107B1400EAD023681DB199882A889142F3D11FB114
:107B240019883A889142EED19B6833602368736068
:107B3400074B1B8933810020F8BD0A20FCE7022093
:107B4400FAE70520F8E700BF647A0020887A00206D
:107B54006C7A00202DE9F0470024A1464FF0030879
:107B64002546274651E03046FFF786FEC8B1414A14
:107B7400126882B1404B05EB850103EB81000222C0
:107B840003F82120466002813C4B5D800135ADB293
:107B940047F0010737E0374A166002219180814699
:107BA400F6E708F1FF381FFA88F8334A05EB850336
:107BB40002EB83035E6005EB8503032102F82310C7
:107BC4000135ADB21FE0B9F1000F0DD02A4B05EB22
:107BD400850103EB8100022203F82120254909686D
:107BE400416002810135ADB2DFF888A0514641F809
:107BF400046B00223046FFF785FEBAF80430022BEE
:107C04002DD008231F430134A4B2022C29D81C4BC5
:107C1400DE6806EB04363046FFF714FE0128D2D0A6
:107C24000328A0D00028EED1134905EB85039A0060
:107C340001EB8303002088545E6005EB850292000B
:107C4400103205EB85039B0008330A44194430467F
:107C5400FFF758FE47F002070135ADB2D3E704231E
:107C6400D0E7B8F1010F02D9F8B2BDE8F0870027D8
:107C7400FAE700BF507B0020887A00206C7A00204D
:107C8400B85700200B4A1389013313810023538012
:107C940013730CE003EB83018A0007498A5CB2FA90
:107CA40082F25209034919448A7201339BB2012BAF
:107CB400F0D970476C7A0020887A002030B40546E9
:107CC400002301E001339BB2012B19D80E4A1A4458
:107CD400927A002AF6D00C4A1A440021917203EBDE
:107CE40083020A4901EB8202D268002AEAD103EB3B
:107CF400830401EB8404207C0028E3D02B8000E083
:107D0400002030BC704700BF6C7A0020887A0020C5
:107D1400044B5B685B880333034A918811FA83F34D
:107D2400938070476C7A0020507B002030B40B495C
:107D34000D680B4B5B880B4803EB8304A2000244E1
:107D440054680C6055608C8803EB83039A001044DC
:107D5400048102238B8030BC704700BF507B00201D
:107D64006C7A0020887A002008B5124B1B78072B08
:107D74000AD8DFE803F00409090A1016161AFFF7F7
:107D840081FF0C4B01221A7008BDFFF7C1FF094B9C
:107D940002221A70F8E7FFF7C9FF064B06221A7091
:107DA400F2E7044B07221A70EEE7024B01221A7025
:107DB400EAE700BF6C7A002040F6F8731868B0F167
:107DC400FF3F07D04FF080531A695B69B0F1FF3F62
:107DD40003D07047024B1868F4E703FB02F0F8E79E
:107DE4001410001008B5FFF7E7FF034B1861A0F566
:107DF4004050D86008BD00BFB857002008B5014600
:107E0400014800F0A5FE08BD3C7B002008B5064BE8
:107E140005221A70054902238B8000230122096878
:107E2400034801F0B5FB08BD6C7A0020507B0020AC
:107E3400B857002008B50D4B5B8803EB83010C4A4F
:107E440002EB8102D26872B9084A0421117003EB73
:107E54008303074901EB8301002301224968054894
:107E640001F096FB08BDFFF7D1FFFBE76C7A002019
:107E7400887A0020B857002000B583B0002300930F
:107E84000823044A04490968044801F0B1FA03B01C
:107E94005DF804FBEC760300507B0020B85700200B
:107EA40008B5044B07221A7000225A60FFF7E4FF5A
:107EB40008BD00BF6C7A002000B583B001460023E2
:107EC40000930823034A044801F092FA03B05DF8D2
:107ED40004FB00BFE4760300B8570020F8B530B9BE
:107EE4000B79032B5DD8DFE803F0071D37422F4BD6
:107EF40000225A60012005E001230B71FFF7BCFF4B
:107F040000284ED1F8BD0B4600EB80029200002100
:107F1400995400EB800003EB80004068FFF7CCFF2E
:107F240001230FE00023012B0AD8184603EB830238
:107F34001F4911F82220022AE5D001339BB2F2E74F
:107F440000230F20002BDBD1184B01221A700022D2
:107F54005A6041F61D50D5E700230B7115490222E2
:107F64008A8001220968144801F012FBC8E7002541
:107F74000D71104C2068FFF79FFF104B5B8826683B
:107F84000B4903EB830201EB8202576827605660BA
:107F9400A68816810222A28003EB83039340CD546A
:107FA400AEE7024B00225A600E20ABE7647A002051
:107FB400887A0020507B0020B85700206C7A00207B
:107FC40008B5064B06221A705B8803EB83039A00FC
:107FD400034B13445868FFF76FFF08BD6C7A002009
:107FE400887A002000B583B00223837500230093B0
:107FF4000423C218044801F0FBF910B903B05DF87A
:1080040004FB0E20FAE700BFB857002000B583B088
:10801400036973B10323837500230093042300F1E0
:108024000C020831054801F0E3F920B903B05DF80A
:1080340004FB0123EFE70E20F8E700BFB857002048
:1080440000B583B001238375C388002200929B008E
:1080540002690C31044801F0CBF910B903B05DF8A2
:1080640004FB0E20FAE700BFB857002000B583B028
:108074000378032B0ED00623837500230093042377
:1080840000F108021944054801F0B2F920B903B01F
:108094005DF804FB0523EFE70E20F8E7B85700204E
:1080A40010B582B00C46002300930423084A01460D
:1080B400084801F09DF940B904EB8404064901EB3A
:1080C40084040123237402B010BD0E20FBE700BF1B
:1080D400E0760300B8570020887A002070B50C467B
:1080E4008B8A03EB83022B4D05EB8205A8B9294A41
:1080F40003EB830102EB8101496803EB830302EB89
:1081040083031E8901EB8606A37D062B0AD8DFE8CC
:1081140003F0142C20260B323C002846FFF724FCE5
:10812400012614E00F260EE01B4800234360A369D8
:1081340003601A49FFF790FC50B331462046FFF71D
:1081440051FF06461EB121462846FFF70DFC304676
:1081540070BD31462046FFF759FF0646F2E7314627
:108164002046FFF76DFF0646ECE731462046FFF751
:108174007DFF0646E6E70623A375084B1988064BE0
:108184005868FFF78DFF0646DCE741F61D56DAE72F
:108194000A26DCE7887A0020487A00205C7B0020ED
:1081A40010B584B00446002301930293C36800937E
:1081B4000DF10E016846FFF74FFC10B90A2004B018
:1081C40010BD01988388E38003882381BDF80E10D5
:1081D400FFF766FFF3E7000030B583B00948426853
:1081E400094B19689C88538803339BB20325057097
:1081F400002000909B0001EB8401044801F0F8F892
:1082040003B030BD6C7A0020507B0020B8570020AA
:1082140008B5064B191D5888FFF7F0FB10B1FFF79E
:10822400DBFF08BDFFF706FEFBE700BF6C7A00200A
:1082340008B50748FFF742FD10B1FFF7E9FF08BD95
:10824400044B00221A705A805A6041F61D50F6E71A
:108254006E7A00206C7A002030BB08B5144B1B7B6F
:108264006BB1134B00221A73114B1B78013B062B85
:108274001CD8DFE803F0070A0D101B131600FFF7E4
:1082840073FDF1E7FFF7D4FF08BDFFF7C1FFFBE77C
:10829400FFF7A2FFF8E7FFF7CDFDF5E7FFF790FE44
:1082A400F2E7FFF7FDFDEFE7012070470F20EBE752
:1082B4006C7A002010B584B00B4B01AA0021063063
:1082C400FFF704FC40B9084B99880298FFF7E8FED1
:1082D4000446204604B010BD04460822002102488A
:1082E4000EF0E8FBF5E700BF607B0020B0B908B5ED
:1082F4000B79012B0AD0022B12D00BB10F2008BD31
:1083040002230B710846FFF74BFFF8E70846FFF717
:10831400D1FF0A28F3D141F61D50F0E70120704740
:1083240041F61D50EBE7000008B50146014800F096
:108334001BFC08BD3C7B002008B5084B1B683BB107
:108344000121064800F0DAFC003818BF012008BDFE
:10835400034940F27A2006F0F7FCF1E74C7B002059
:108364008076030010B586B004462BE02D48FFF755
:1083740045FD2D4B186029E02C4940F2825006F04F
:10838400E3FC27E02046FFF7A9FD002848D000239E
:10839400019303930493059341F61D5398423DD0F2
:1083A4000290214C01A92068FFF7D2F901A8FFF738
:1083B400BDF9002323601B48FFF7B6FFFFF7BCFF9E
:1083C40070B30024184B1B68002BCFD0164B1B68CE
:1083D400002BD1D0144B19680B78013B052B1BD80B
:1083E40001A252F823F000BF898302000584020031
:1083F400058402000D8402000D840200158402002D
:108404002046FFF76BFEC0E72046FFF76FFFBCE78F
:108414002046FFF721FFB8E70F20B8E70020BFE7A9
:1084240006B010BD7C7A0020847A00208076030098
:1084340008B54068FFF796FF08BD000008B50121A4
:10844400014800F04DFC08BD807A002008B5FFF714
:10845400C9FC00220249034800F092FF08BD00BF96
:10846400B4800300B857002008B51C238C220249AD
:10847400024800F038FB08BDB07A00203C7B0020A5
:1084840010B50146044800F04CFB04461C220021B0
:108494000EF010FB204610BD3C7B002008B50146C1
:1084A400014800F04AFB08BD3C7B002008B50121CF
:1084B400034800F007FC00B108BDFFF753FFFBE7DA
:1084C4004C7B00202DE9F04383B00C4635490978F4
:1084D40000295CD005469846002C5AD021884FF6D6
:1084E400FF73994257D06388002B56D0676817F002
:1084F400030754D1002A33D01388ADF80630B2F8FC
:1085040002906846FFF7BCFF0646002833D080F887
:10851400008000238375BDF806308382636803619D
:10852400FFF78CFFF060238833816388B380A6F85B
:108534000690B8F1030F25D0002373816846FFF736
:10854400ADFF3DB100236B60F2682A60AB72164B3D
:108554001B892B81FFF7AAFF384603B0BDE8F083DF
:10856400B4F808900DF106014846FFF70BFA00280D
:10857400C7D00746F0E7BDF806104846FFF72EFAC5
:108584000827E9E70423B3752B68B361D4E702270E
:10859400E2E70527E0E70427DEE70427DCE7032713
:1085A400DAE700BF647A00206C7A0020084A126877
:1085B400042A0BD008B5034605480168054A42F869
:1085C4002130012100F08CFB002008BD0C207047F5
:1085D400587B0020547A002030B587B000230193E3
:1085E4000293039304930593274B1B782BB92748D5
:1085F40000F092FB40B1002403E001A8FFF796F8D5
:108604000024204607B030BDFFF720FF04460028B1
:10861400F7D1FFF729FFFFF79DFA054602282DD071
:10862400062811D060B36846FFF72AFF50B3012231
:108634000270013D0A2D12D8DFE805F00F110F1169
:108644001D111D11171A17000F4B01221A70002259
:108654005A6001A8FFF76AF8D3E70022027168465E
:10866400FFF71CFFFFF722FFCBE703220271F6E7B7
:1086740002220271F3E701220271F0E70B24C0E742
:108684000B24BEE70824BCE7647A0020687A002043
:1086940008B370B582B00C460546F1B10DF1060180
:1086A400FFF7DAF910B90A2002B070BD6E68BDF8A0
:1086B400063003EB830080000830094B1844012185
:1086C400043000F00DFB26606B680C3363600123FB
:1086D400AB720020E8E7052070470520E4E700BFFF
:1086E400887A0020F8B110B582B004460DF1060175
:1086F400FFF7B2F9C8B1BDF8063003EB83010E4AA7
:1087040002EB8102D2689AB1A27A9AB10A4A02EBC8
:108714008101C968013903EB830302EB8303D96048
:108724000020A07202E0052070470A2002B010BDAC
:108734000620FBE70620F9E7887A002008B5022323
:108744000022FFF7BFFE08BD28B110B503230022A5
:10875400FFF7B8FE10BD052070470000104B1B78D2
:10876400BBB110B582B004464FF6FF73984212D0E5
:1087740001A8FFF785FE80B1052202700122027173
:10878400C48001A8FFF78AFEFFF790FE002002B024
:1087940010BD022070470420F9E70820F7E700BF66
:1087A400647A00200E4B1B78B3B100B583B001A8E6
:1087B400FFF766FE90B10622027001A8FFF76EFE75
:1087C400084B1B7813B1074B01221A73FFF76EFE97
:1087D400002003B05DF804FB022070470820F8E78E
:1087E400647A00206C7A002000B583B0ADF80600EE
:1087F400ADF8041001A90DF10600FFF767F903B005
:108804005DF804FB00B583B01346ADF806000A46D4
:108814000DF106010020FFF759F903B05DF804FBE0
:1088240000B583B01346ADF806000A4600210DF1E9
:108834000600FFF74BF903B05DF804FB20B129B142
:1088440003680B60002070470520704705207047BF
:108854001EF0040F1CBFEFF309800AE0EFF3088059
:108864000549064A884201D8904202D88D464FF005
:108874000000034B184700000000012000F800200E
:10888400AD880200BFF34F8F0549CA6802F4E06265
:10889400044B1343CB60BFF34F8F00BFFDE700BF12
:1088A40000ED00E00400FA0570B582B00646FEF75C
:1088B40083FCFDF769FF0028FBD1404B9D6A26B37A
:1088C4003F4B404CE41AE408240444F00104B26928
:1088D4003D492046FEF726F9B368F26801920093F9
:1088E4007368326839492046FEF7FAFAF36900934F
:1088F4007369326936492046FEF750FA2F4BDB6A1A
:1089040013F0020F0CD1002420E02D4B2D48C01A87
:10891400C00800042F4940F00100FEF77BF8EDE7A2
:10892400274B2848C01AC00800042B4940F0010016
:10893400FEF770F8E7E7224B2248C01AC00800048B
:10894400264940F00100FEF7EDF80134192C09D84E
:108954000123A3402B42F8D0214B53F82420002AB2
:10896400E9D1F2E715F0800F0DD115F4004F17D1BE
:108974001C4B1B6813F0010F00D000BE3046FFF7FC
:1089840081FF02B070BD0E4B0E48C01AC00800042F
:108994000A4B5A6B144940F00100FEF7C3F8E4E7B0
:1089A400074B0848C01AC0080004044B9A6B0F49CF
:1089B40040F00100FEF7B6F8DAE700BF00ED00E092
:1089C40094720300FC720300F47603000C77030036
:1089D400447703006C770300A0770300E477030077
:1089E4000C7D0300F0ED00E0F07703001078030045
:1089F40010B483B050E8013F9CB2C2891444828908
:108A0400944228BFA41A0289944202BFBFF32F8F55
:108A1400002007E0C4EA030440E80142002AE9D147
:108A24004FF001008DF807000093009B0B609DF848
:108A3400070003B05DF8044B704750E8012FC2EA09
:108A4400024240E80123002BF7D1704710B483B0F1
:108A540050E8023F1FFAA3F4C288944202BFBFF356
:108A64002F8F00200DE0C28914448289944228BFCC
:108A7400A41AC3EA044440E80242002AE8D14FF0B1
:108A840001008DF807000093009B0B609DF8070020
:108A940003B05DF8044B704750E8022FC2EA22424B
:108AA40040E80223002BF7D1704782B050E8022F30
:108AB400C188B2EB324F4FF0000317BF92B241EAC4
:108AC400014142EA014104E04268B2EB324F08BF7F
:108AD400012340E80212002AE8D18DF807309DF8FE
:108AE400070002B0704781B110B40C46B2FBF3F139
:108AF40003FB112189B251B9046041608160828114
:108B0400C38108465DF8044B70470E207047092066
:108B1400F8E708B5FFF7C9FF08B1002008BD112028
:108B2400FCE738B505460C46FFF762FF18B1286824
:108B34002388184438BD0020FCE708B50A884B8810
:108B44009A4201D0002008BDFFF777FF0120FAE721
:108B540038B505460C46FFF779FF18B128686388D5
:108B6400184438BD0020FCE708B50A884B889A42AF
:108B740001D0002008BDFFF78FFF0120FAE708B5F8
:108B84004B0901F01F01012202FA01F100EB8300FD
:108B940000F06EF808BD10B54B0901F01F04012167
:108BA400A14000EB830000F055F8E04000F0010024
:108BB40010BD08B54A0901F01F01012303FA01F1B0
:108BC400C94300EB820000F06FF808BD4B0950F870
:108BD400230001F01F01C84000F0010070472DE997
:108BE400F04106460F46002516E0D8F80030DB4376
:108BF40093FAA3F3B3FA83F31F2B0CD803EB4514B6
:108C0400A74208D921463046FFF7C5FF0028ECD11A
:108C14002046BDE8F08101357B1E5B090133AB4280
:108C240009D906EB850856F82530DB4393FAA3F3FC
:108C3400B3FA83F3E0E73C46EAE710B4034653E8AB
:108C4400000F0A4643E8002494F0000FF7D15DF8C2
:108C5400044B704710B4034653E8000F40EA010286
:108C640043E8002494F0000FF6D15DF8044B7047FC
:108C740010B4034653E8002F42EA010043E800041D
:108C840094F0000FF6D15DF8044B704710B403461E
:108C940053E8000F00EA010243E8002494F0000FB7
:108CA400F6D15DF8044B704710B4034653E8002F27
:108CB40002EA010043E8000494F0000FF6D15DF8E5
:108CC400044B704710B4034653E8000F00EB010255
:108CD40043E8002494F0000FF6D15DF8044B70478C
:108CE40010B4034653E8002F02EB010043E80004EC
:108CF40094F0000FF6D15DF8044B704710B40346AE
:108D040053E8002FA2EB010043E8000494F0000FA5
:108D1400F6D15DF8044B704708B50121FFF79AFFBF
:108D240008BD08B50121FFF7A3FF08BD08B5002160
:108D3400FFF7ACFF08BD000038B50C46054620B16E
:108D4400EB68288A00FB043038BD0249E82005F0AE
:108D5400FBFFF5E7747D030038B50C46054630B1DA
:108D6400E868241A288AB4FBF0F0C0B238BD02497E
:108D7400F52005F0E9FFF3E7747D030000283DD0FA
:108D840010B50446036873B163688BB1A368ABB1D3
:108D9400E368CBB1238AEBB1A2686368D21AD2B27A
:108DA40021680B6022E01649FF2005F0CDFFEBE7B8
:108DB40013494FF4807005F0C7FFE7E7104940F20C
:108DC400011005F0C1FFE3E70D494FF4817005F090
:108DD400BBFFDFE70A4940F2031005F0B5FFDBE70C
:108DE40021680A68501C086013701A46531EDBB2CF
:108DF400002AF5D123680020187110BD0E20704799
:108E0400747D030030B583B00446E8B100238DF8C7
:108E140007300DF10700FEF731FC22681368616822
:108E24008B4217D9591E116013F8011C2046FFF715
:108E340083FF0546A368226811685B1ADBB21179C7
:108E4400994208D2137106E006494FF4927005F076
:108E54007BFFDBE700259DF80700FEF743FC28466F
:108E640003B030BD747D030070B582B00C46064675
:108E7400B0B1DCB100238DF807300DF10700FEF727
:108E8400FDFB33681D686A1C1A6021463046FFF7F3
:108E940063FF28709DF80700FEF724FC02B070BD44
:108EA400054940F2471005F04FFFE2E702494FF44D
:108EB400A47005F049FFDDE7747D030010B5044696
:108EC40040B1A2682AB163692168206998470023E8
:108ED400A36010BD0249312005F036FFF1E700BF61
:108EE400E07D03000EB430B582B0059D044690B118
:108EF4006369ABB12368C3B16368DBB135B106AB59
:108F0400019301AA2946204600F02CF902B0BDE8DD
:108F1400304003B070470A49422005F015FFE7E7E7
:108F24000749432005F010FFE4E70549442005F014
:108F34000BFFE1E70249452005F006FFDEE700BF2D
:108F4400E07D030038B504460D460A2909D022689D
:108F5400A368591CA160D554A26863689A4204D2DC
:108F640038BD0D21FFF7EEFFF1E72046FFF7A6FF1E
:108F7400F6E700002DE9F84F82460F4615461E46D7
:108F8400DDF828900B9A0B464FF0010803E0B3FB81
:108F9400F5F308F10108AB42F9D2B04500D2B0466E
:108FA40012F0010B13D1B9F1000F10D012F0020F1F
:108FB4000FD086B1202405E009F1FF39214650463F
:108FC400FFF7C0FFB9F1000F01D0C145F4D8012467
:108FD40009E02024F6E73024F4E7B7FBF4F39D42DC
:108FE40005D805FB04F4012EF7D9013EF9E7B7FBD8
:108FF400F4F304FB13770F4AD15C5046FFF7A2FF4A
:109004002346B4FBF5F4AB42F1D2BBF1000F02D01E
:10901400B9F1000F07D1BDE8F88F09F1FF3920211C
:109024005046FFF78FFFB9F1000FF4D0C145F4D8D3
:10903400F1E700BFA87E03002DE9F04F83B081461D
:10904400884615469A460C9FDDF834B081EAE174EF
:10905400A4EBE1740126A54203DC94FBF5F401368C
:10906400F9E7564500D2564637B1B8F1000F02DB96
:109074001BF0040F00D0013F1BF0020F02D0BAF125
:10908400000F03D01BF0010F00D1D7B9B8F1000FC6
:109094001CDB1BF0040F20D10BF00303022B21D0A7
:1090A400CDF804B0009753462A4641464846FFF798
:1090B40061FF03B0BDE8F08F013F20214846FFF770
:1090C40041FF002FE2D0B742F6D8DFE7C8F100082D
:1090D4002D214846FFF736FFDEE72B214846FFF7F0
:1090E40031FFD9E7BAF1000FDAD12FB9D8E7013F40
:1090F40030214846FFF726FF002FD1D0B742F6D8DB
:10910400CEE7F8B506460D46144613F001070DD117
:1091140019B108460DF023FD0746BC4219D9C4B164
:10912400013C20213046FFF70DFFF6E700272978A0
:1091340051B1013501373046FFF704FFF7E7013C31
:1091440020213046FFF7FEFEBC4201D9002CF6D1A7
:10915400F8BD29780029FBD001353046FFF7F2FE2F
:10916400F7E70000F0B583B00C461646054648B153
:109174006B696BB12B688BB16B68ABB1002C40F0A1
:109184008980D8E06F494FF4A27005F0DDFDEFE768
:109194006C494FF4A37005F0D7FDEBE7694940F241
:1091A400471005F0D1FDE7E766494FF4A47005F0D8
:1091B400CBFDE3E70027012203E047F00107013478
:1091C40082B121782D29F8D0302903D02B2905D05C
:1091D4000022F5E747F002070134F1E747F00407FE
:1091E4000134EDE72A290CD02178A1F13000C0B276
:1091F40009280CD8013402EB820201EB4202303A16
:10920400F0E73368191D31601B681A440134237870
:109214002E2B02D00023217810E001340023217882
:10922400A1F13000C0B20928F5D8013403EB83035F
:1092340001EB4303303BF2E714F8011F6C29FBD028
:109244006829F9D025296FD020D378291ED8582928
:109254001CD35839202919D8DFE801F03C18181814
:109264001818181818181811261818181826181865
:109274001818181850181847183118183C00336873
:109284001A1D326019782846FFF75CFE01342378F2
:10929400002B4ED014F8011B00294AD0252989D06F
:1092A4002846FFF74FFEF2E73168081D3060096871
:1092B400019700920A222846FFF7BEFEE6E73168CE
:1092C400081D30600968019700920A222846FFF7BA
:1092D40051FEDBE73168081D306009680197009290
:1092E40010222846FFF746FED0E731680B1D336095
:1092F4003B4609682846FFF704FFC7E733681A1D91
:1093040032601F6830212846FFF71CFE782128466A
:10931400FFF718FE00230193082300931022394617
:109324002846FFF727FEB1E725212846FFF70AFE66
:10933400ACE72B7B0BB903B0F0BD2846FFF7BEFDAD
:10934400F9E700BF407E0300C3688B4206D811448E
:1093540001390369994203D90020704700207047FE
:109364000120704710F0030F0CBF0120002070474C
:1093740043681B68013B0B420CBF0120002070476F
:1093840010B582B038B10B461146A3B103601B6817
:10939400984702B010BD104B1048C01AC008000412
:1093A4000E2400940E4B0F4A0F4940F00100FDF7C4
:1093B400F5FC2046EDE7084B0848C01AC008000435
:1093C4000E240094064B094A074940F00100FDF7BA
:1093D400E5FC2046DDE700BF947203000C73030034
:1093E4006C800300B87E0300C07E0300EC7E0300A3
:1093F4002DE9F04182B0002831D00E4615461C46B6
:109404000746002A3BD0D0F80080B8F1000F46D0C0
:10941400002B54D043685A68B4FBF2F302FB1343A5
:10942400002B5CD10846FFF79DFF002867D0284633
:10943400FFF798FF002872D0224631463846FFF7DE
:1094440083FF00287BD0D8F80C80089B0093234628
:109454002A4631463846C04702B0BDE8F081404B49
:109464004048C01AC00800040E2400943E4B3F4AF2
:109474003F4940F00100FDF791FC2046ECE7384BF2
:109484003848C01AC00800040E240094364B394AE8
:10949400374940F00100FDF781FC2046DCE7304B02
:1094A4003048C01AC0080004082400942E4B324AE5
:1094B4002F4940F00100FDF771FC2046CCE7284B12
:1094C4002848C01AC008000409240094264B2B4ADB
:1094D400274940F00100FDF761FC2046BCE7204B22
:1094E4002048C01AC0080004092400941E4B244AD2
:1094F4001F4940F00100FDF751FC2046ACE7184B32
:109504001848C01AC008000410240094164B1D4AC1
:10951400174940F00100FDF741FC20469CE7104B41
:109524001048C01AC0080004102400940E4B164AB8
:109534000F4940F00100FDF731FC20468CE7084B51
:109544000848C01AC008000410240094064B0F4AAF
:10955400074940F00100FDF721FC20467CE700BFED
:10956400947203000C73030080800300B87E030030
:10957400C07E03004C7F0300F47E0300087F0300D9
:10958400547F0300807F0300987F0300BC7F0300A7
:109594002DE9F04182B0F0B1884614461F460546D5
:1095A400066846B3002A36D0FFF7E2FE002842D010
:1095B4006B681A6804FB02F241462846FFF7C4FEB2
:1095C400002848D036693B46224641462846B047E3
:1095D40002B0BDE8F081284B2848C01AC008000436
:1095E4000E240094264B274A274940F00100FDF73A
:1095F400D5FB2046ECE7204B2048C01AC0080004E5
:10960400082400941E4B214A1F4940F00100FDF735
:10961400C5FB2046DCE7184B1848C01AC0080004F4
:1096240009240094164B1A4A174940F00100FDF72B
:10963400B5FB2046CCE7104B1048C01AC008000404
:10964400102400940E4B134A0F4940F00100FDF71B
:10965400A5FB2046BCE7084B0848C01AC008000414
:1096640010240094064B0C4A074940F00100FDF712
:1096740095FB2046ACE700BF947203000C73030013
:1096840094800300B87E0300C07E0300F47E0300D0
:10969400087F0300E47F03000C80030029DF704788
:1096A40028DF704703689B683BB300B587B000238D
:1096B40000930293039304930191836805930379C0
:1096C40043B1012B10D003689B686846984707B0E4
:1096D4005DF804FB01238DF8003003690293C3682D
:1096E400039343690493EEE702238DF80030C368C3
:1096F4001B03029343690493E5E7704710B542697D
:109704008369D21AB2F5805F28BF4FF48052920861
:109714000469C168012A38BF012219441819FFF7E6
:10972400BDFF10BD08B5C26800691044FFF7B8FF5B
:1097340008BD0000114B0022DA6003791BB1012B34
:109744000FD01046704742698369D11AB1F5805F22
:1097540094BF5B1803F5805383619A4209D00020BB
:1097640070470369013303614269934203D00020C7
:109774007047012070470120704700BF047C00201F
:10978400064AD3680133D360082B01D80020704700
:1097940013460022DA600120704700BF047C0020D9
:1097A4000846704700207047024B187A003818BFEB
:1097B40001207047047C0020034B01225A74187A5C
:1097C400B0FA80F040097047047C002008B50249D3
:1097D4000248FFF7C9F908BD187C0020F47B00207B
:1097E40008B505490548FFF7B3F9054B186000387B
:1097F40018BF012008BD00BF187C0020F47B0020A6
:109804001C7C002008B51A4B1B7AA3B1184B02220A
:109814001A72184B18680379ABB1012B1CD00321C1
:10982400144B1868FFF73EFF114B00221A725A605E
:10983400FFF7CCFF08BDFFF7D3FF0028E6D10C4BA0
:1098440000225A60F6E7FFF759FF40B11128E6D12C
:10985400074B01221A72EDE7FFF764FFF5E7044BAB
:109864001B7C002BE6D10021022000F005F8E1E783
:10987400047C00201C7C0020831E012B2DD810B5F5
:109884000446164B1B7A53B1022B03D1022807D08E
:10989400032818D0114B5B7CE3B9FFF7B3FF10BD6D
:1098A4000F4B1868FFF746FF0028F3D00B4B00223C
:1098B4001A720B4B1868022C0AD00D21FFF7F2FE26
:1098C400FFF784FFE6E7064B1868FFF759FFEBE75D
:1098D4001146F3E70AF05AFFE1E77047047C0020E1
:1098E4001C7C0020012802D0032800D0704708B552
:1098F400054B00225A74012814BF0020012018745B
:10990400FFF780FF08BD00BF047C002008B50548B0
:10991400FFF702FA10B9044B5B7C03B108BDFFF7F3
:1099240071FFFBE7087C0020047C00202DE9F04156
:1099340082B00746884616461D4601A90E48FFF721
:10994400F0F8B0B104461C2200210DF0B3F8012355
:1099540023712760A5604FEA1831E160666101A9AF
:109964000548FFF7EAF8FFF7D1FF002002B0BDE891
:10997400F0810420FAE700BFF47B00202DE9F043D6
:1099840083B080460F4691461E4601A90F48FFF753
:10999400C8F8C0B104461C2200210DF08BF8002544
:1099A4002571C4F800800A9BA3602761C4F80C9059
:1099B400666101A90548FFF7C0F8FFF7A7FF28462D
:1099C40003B0BDE8F0830420FAE700BFF47B002075
:1099D40008B510461A460DF044F8002008BD0000F2
:1099E40008B51422002104480DF064F80348FFF779
:1099F40090F8002008BD00BF047C0020F47B002008
:109A040008B5094B43600948FFF786F908B10020FF
:109A140008BD0AF0CFFE054B18741C238C220449A0
:109A24000448FFF760F8F2E7A8800300047C0020F4
:109A3400687B0020F47B00202DE9F04F83B088463A
:109A440001929B469DF830900446E8B1E38894F86F
:109A540005A00AFB03FAAAF1040ADA4519D9E78832
:109A64000BF10403B3FBF7F607FB1633019A1568F1
:109A740005EB0B02524501D9AAEB0B05019A1560BF
:109A840066B12468013EFBE71749B62005F05CF98E
:109A9400DCE71549C42005F057F9E0E7A7EB030A12
:109AA400AA4528BFAA46B3460DE0524601461846C9
:109AB4000CF0D7FF2468A5EB0A05D344BA46AF429D
:109AC40028BFAA4633465DB108EB0B002344043398
:109AD400B9F1000FE9D0524619460CF0C2FFE9E78C
:109AE40003B0BDE8F08F00BFD480030008B5FFF7D2
:109AF40045F908BDF8B501464679701E0A460023AB
:109B0400834202D212680133FAE71768002405E0A1
:109B14000D683846FFF7A8F901342946A642F7D85C
:109B2400F8BD2DE9F8430746048AA4F1040841442A
:109B34000331B1FBF8F8FFF765F90646F8B10025E3
:109B4400057101234371043CC4805FFA88F808F16D
:109B5400FF3807608146454511D23846FFF752F970
:109B6400044640B1737901337371C9F8000007608A
:109B740001358146EFE73046FFF7BCFF2646304605
:109B8400BDE8F88308B501210430FFF7A9F808BD42
:109B940010B5044601210430FFF7B0F810F0FF0FB0
:109BA40000D010BD2046FFF7A5FFFAE710B584B03A
:109BB400144603920022009203AAFFF73DFF039B81
:109BC400A34201D104B010BD0249F62005F0BCF84F
:109BD400F8E700BFD480030010B584B014460392A4
:109BE4000122009203AAFFF727FF039BA34201D19E
:109BF40004B010BD02494FF4807005F0A5F8F7E7F2
:109C0400D4800300826800239360826813618268B1
:109C140053618268D36082685360826813607047BE
:109C240038B50C46054638B15CB12C6023686B60CE
:109C3400626893420AD038BD0649502005F084F882
:109C4400F2E70449512005F07FF8EEE700236B604A
:109C5400F1E700BF4081030010B5044658B1236802
:109C640073B1636833B1226891680B4463605268CE
:109C740093420AD010BD0649632005F065F8EEE76B
:109C84000349642005F060F8EBE700236360F1E723
:109C9400408103000F4A02F594718A4218D210B42D
:109CA4008C1AE30F03EBE4035B1002EBC30452F8DA
:109CB4003330834206D921468A42F1D300205DF82D
:109CC400044B704702D204F10802F5E76068F6E736
:109CD40000207047C485030008B5FFF7DBFF00B11F
:109CE40008BD0148FCE700BFB0850300A8DF70474A
:109CF400ADDF7047AEDF704762DF704730B589B0C3
:109D040004460D4601AA8988406900F066F910B935
:109D1400019B1B780BB909B030BD1822002102A8A1
:109D24000CF0C8FE01238DF808300394AB88ADF81D
:109D34001030019B0593A36902A89847EBE770B51F
:109D44008AB004460D46002600966A468988406912
:109D540000F043F9082231460DEB02000CF0AAFE94
:109D640001AB03930223ADF80830ADF80A6002AAF0
:109D7400218AA888FFF7BCFFD0B9A369C3B10398AF
:109D840006F084FBA0B1009B0BB101221A701822CB
:109D9400002104A80CF08EFE02238DF810300594E7
:109DA400AB88ADF81830009B0793A36904A89847C3
:109DB4000AB070BD30B589B004460D4601AA898841
:109DC400406900F00AF91822002102A80CF072FE82
:109DD4000394AB88ADF81030019A0592EB88218981
:109DE4008B4204D0A28993421ED009B030BD298A87
:109DF4000229F7D1002AF8D005F1120006F046FB3B
:109E040058B1019B01221A7002238DF80830A3690E
:109E1400002BEAD002A89847E7E7019B00221A70BA
:109E240003238DF80830F2E7A369002BDDD000226C
:109E34008DF8082005F1120206922A8AADF81C203A
:109E440002A89847D1E7B9B108B50346084633B12B
:109E54001A88502A08D0572A0AD0102A00D008BDE0
:109E64001946FFF76CFFFAE71946FFF7A3FFF6E779
:109E74001946FFF743FFF2E77047000070B58EB054
:109E840006460D46394B09AC0FCB84E80F00002E73
:109E940067D0002D67D02B68B361314609A8FFF75E
:109EA4002BFF034610B118460EB070BD324612F8AF
:109EB400023B8DF836300120ADF834000DA9FFF7D0
:109EC40015FF03460028EED12022002101A80CF042
:109ED400F1FD0223ADF80430324612F80C3B8DF844
:109EE40006306123ADF808300123ADF80A308DF84F
:109EF40010309DF8111041F00C018DF811108DF8FF
:109F040015308DF8163001A9708806F0C3FA03469F
:109F14000028C8D12022002101A80CF0CBFD032386
:109F2400ADF80430324612F8043B8DF80630612354
:109F3400ADF808300123ADF80A308DF810309DF8E3
:109F4400111041F010018DF811108DF815308DF8B5
:109F540016308DF8173001A9708806F09BFA034675
:109F6400A1E70E239FE70E239DE700BFF4860300BD
:109F740048B3F0B587B00E4617461C46054601AAFD
:109F84001946406900F029F8D8B94FF6FF739C428E
:109F94001BD0019BDBB11B78DBB13B88612B1AD84A
:109FA4001022002102A80CF085FDAB88ADF8083022
:109FB4000596049701238DF80A3002A92046FFF77D
:109FC40099FE07B0F0BD0E2070470520F9E7052083
:109FD400F7E70820F5E70720F3E7DAB138B50446D8
:109FE400154600231360B8B10368BBB1C38813F0EE
:109FF400030F15D1084606F0DBF9C0B2142811D0BE
:10A004002379834210D92368E28802FB0030286058
:10A01400002038BD0E2070470E20FAE70E20F8E726
:10A024000720F6E70520F4E70420F2E710B588B02E
:10A03400624B1B68002B2AD0604B00221A601B68FD
:10A044000093009B5E4B93F82E2012B193F82F30AF
:10A05400EBB100238DF81430594B596806911989D6
:10A06400ADF81C10D96800295BD0554B188B588368
:10A07400596018810021D96012B9524B01221A602B
:10A084004F4C236805A89847002384F82F304C4B85
:10A0940093F82E303BB34C4B1B6823B34A4B00223E
:10A0A4001A601B680193019B454A538B92F82D104B
:10A0B4008AB2934238D99B1A9BB2414A538350685F
:10A0C400128992B2D31A00EB43033E4AC2F82C36EB
:10A0D400C2F83016394B00221A601B680293029BA7
:10A0E4003A4B01221A603A4B1B686BB1384B002281
:10A0F4001A601B680393039B314B1A7402228DF878
:10A1040014201B6805A89847324B1B683BB3314A9F
:10A114000023136012680592059A294A137408B043
:10A1240010BD00221A74ABE7934208D09342D1D1F8
:10A13400234B012283F82F2000225A83CAE72048A8
:10A14400C0680028F2D01E4B012283F82F20002281
:10A154005A831C4BC3F82C06C3F83016BAE7184BC5
:10A164005C69002CDBD0B4FA84F34FF00042DA408F
:10A1740024EA020446339B0003F1804202F5E042E4
:10A1840011680029EDD00021116012680492049A2C
:10A1940001228DF81420A3F58C73C3F3C7028DF844
:10A1A400182013F0040F0CBF01230B468DF819304F
:10A1B400034B1B6805A89847D3E700BF0471004010
:10A1C400207C0020007000400071004004700040BA
:10A1D400107100401471004030B585B00C4605463E
:10A1E400002852D0002C55D0304B93F82C30002B43
:10A1F4005AD12E4A14602B782D49C1F8F0356B786A
:10A20400C1F8F435EB7882F82E30012382F82C3033
:10A214000023137482F82D30536182F82F306FF0CD
:10A224000042C1F80823234A136012680392039A78
:10A23400214A136012680292029A204A136013683A
:10A244000193019BAC78A31EDBB2012B03D9631FDE
:10A25400DBB2022B23D86401E4B2194B83F8074321
:10A2640080221A60124B0222C3F804230F4B93F886
:10A274002E301BB10E4B0122C3F804230C4B0122D8
:10A28400C3F80025002005B030BD0E49D62004F0E7
:10A294005BFDA7E70B49D72004F056FDA4E70A4964
:10A2A4006B2004F051FDD6E70820ECE7207C002069
:10A2B40000700040047100400071004014710040BF
:10A2C40000E100E0048703006C87030038B505460D
:10A2D4000C464A4B93F82C30002B63D0072D67D8DB
:10A2E400474BD3F8F43513F0FF0F04D0434B93F8E6
:10A2F4002D30002B62D1E379013BDBB2082B63D80C
:10A30400237A092B66D83D4B1B7C002B73D1237910
:10A31400012B65D905F10C03384A02EB43031B7981
:10A3240023B992F82D30013382F82D30E27905F10A
:10A334000C01324B03EB41031A71227A5A712378D0
:10A3440003F003036278120102F030021343A2788F
:10A35400120202F4E0621343E278120302F4805220
:10A3640013432279120402F4E022134362791205A2
:10A3740002F480121343A279120602F0807213438E
:10A384001F4A02EB0511C1F81835E179207A5135DD
:10A394002B0102EB05156860D1502379012B24D9D8
:10A3A400002038BD174940F2231004F0CDFC95E796
:10A3B40014494FF4927004F0C7FC91E711494FF42B
:10A3C400937004F0C1FC96E70E494FF4947004F0C6
:10A3D400BBFC95E70B494FF4957004F0B5FC92E78C
:10A3E400074B0022C3F8002594E713460122C3F863
:10A3F40000250020D5E71120D3E700BF207C0020F2
:10A404000070004004870300054B93F82E302BB1F5
:10A41400002000F1804000F5E04070470420F8E798
:10A42400207C002030B583B005460C463C4B93F8A5
:10A434002C30002B31D03A4B93F82D2094FBF2F3BF
:10A4440002FB1343002B2ED1364B1222C3F80823F0
:10A45400334B1B7CDBB2022B2BD0314B1B7CDBB28E
:10A46400012B2BD02F4B0222C3F804232C4B0122A7
:10A474001A745D601C810022DA6093F82E30002B80
:10A4840040D0274B5C8393F82D20264BC3F82C56E1
:10A49400C3F83026002003B030BD234940F2BF107A
:10A4A40004F052FCC7E720494FF4E07004F04CFC80
:10A4B400CAE71C4BC3F804231120ECE7184BDB68F4
:10A4C4002BB1184B0222C3F804231120E3E7144BE9
:10A4D400DD601C8393F82E3073B9144B1B68002B7A
:10A4E400FBD0124B00221A601B680093009B0D4B9B
:10A4F400C3F82C56C3F830460A4B0222C3F804238F
:10A504000020C8E7074BC3F82C56C3F83046074A67
:10A514000020106012680192019A01221A60BAE7C1
:10A52400207C00200070004004870300007100407C
:10A53400F0B583B005460F461646002401E0013409
:10A54400E4B2B44216D204F15000800080B24FF459
:10A554008033A3402A58002AF1D0D5F804231342AB
:10A56400EDD000232B502B580193019B3B68796855
:10A574009847E4E703B0F0BD2DE9F04182B0054609
:10A584000E469046077902685B4B9A4232D0002E01
:10A5940035D0B8F1000F37D007EB4703574A02EB29
:10A5A40083031C7A002C40F0A4802B68524A934207
:10A5B4000FD002F5805293420BD002F580529342A1
:10A5C40007D002F58032934203D002F580529342C1
:10A5D40002D1B378032B03D949495F2004F0B4FBBB
:10A5E400464B07EB470203EB820143F82280736872
:10A5F4004B601AE04249482004F0A6FBC7E74049F3
:10A604004A2004F0A1FBC4E73D494B2004F09CFB25
:10A61400C2E72A6804F150039B009BB20021D15089
:10A62400D3580193019B0134E4B26B79A342F0D86F
:10A634002C6844F3073496F80380A8F10203DBB2D4
:10A64400012B04D9A8F10503DBB2022B42D8002C5C
:10A6540045DB4FEA48185FFA88F804F1604404F5D2
:10A66400614484F800832B6843F30731C3F3043354
:10A674004909012202FA03F3224840F821302868EC
:10A684007178D0F8043523F0030301F003010B4380
:10A69400C0F804352868B178D0F8083523F00303EE
:10A6A40001F003010B43C0F8083528683178D0F86D
:10A6B400103523F00F0301F00F010B43C0F81035E0
:10A6C40007EB47070D4B03EB87073A72002002B0F4
:10A6D400BDE8F0810C496B2004F036FBB7E704F0C9
:10A6E4000F044FEA48185FFA88F8084B03F804800F
:10A6F400B9E70820EBE700BF00800040507C002051
:10A70400B487030000E100E06C87030014ED00E06F
:10A7140010B50446037903EB43030B4A02EB8303AE
:10A724001B7A012B0BD1236801221A60237903EBD6
:10A734004303054A02EB830302221A7210BD034944
:10A744008F2004F001FBEEE7507C0020B487030067
:10A7540070B483B04FF480348C409BB1056801F130
:10A7640050039B000026EE50EB580193019B0368B5
:10A77400C3F80443036801F5A87143F8212003B02A
:10A7840070BC70470368C3F80843F3E7F8B5D0F822
:10A7940000C04FF480748C40012707FA01F634435B
:10A7A400DCF8006226EA0404CCF800420468D4F819
:10A7B40000522B43C4F800329DF81830FFF7C8FF4D
:10A7C400F8BD000008B5062202490348FFF7B0FEB1
:10A7D40008BD00BF507C002000B001402DE9F041CD
:10A7E40082B08046144E0025042708E09DF8070037
:10A7F400FCF778FFDFB126EA04060135EDB2B6B105
:10A8040000238DF807300DF10700FCF737FF012412
:10A81400AC402642EAD0094B1B6814EA0302E5D196
:10A82400234306490B6088F800501746DEE7384694
:10A8340002B0BDE8F08100BFFFFF01005C7C002096
:10A84400B1B110B40C46AAB101238340C3F3100183
:10A8540091B10B4909680B4210D00A4BA23043F85E
:10A86400304003EBC000426000205DF8044B7047A9
:10A874000E2070470E20F8E70720F6E70820F4E7DB
:10A884005C7C002000F0014001238340580C40040C
:10A8940050B9C3F310021AB1054A1268134205D025
:10A8A400044AC2F8043570470720704708207047EF
:10A8B4005C7C002000F00140034610F0020F04D13C
:10A8C400032013F0040F03D1704748F20120F8E786
:10A8D40048F20220F8E70000F0B58DB004460D46BA
:10A8E4000B68002B5CD0D4F8243153B10023C4F896
:10A8F4002431D4F824310193019BD4F80431002B82
:10A9040054D0D4F80431002B62D00023C4F80431AD
:10A91400D4F804310293029B07AE05F10C070FCF64
:10A924000FC63B68336095F82E3053B12B7B012B57
:10A9340048D0D4F84C250892022B46D0D4F84C3594
:10A9440009930023C4F86031D4F860210492049A76
:10A95400C4F85C31D4F85C310393039B95F8303030
:10A9640013B195F82E3033B10023C4F80032AB6034
:10A97400334BC4F80833D4F8C434C4F8C43413F0E3
:10A98400020F52D001238DF8183095F830300BB9EE
:10A9940085F82F302B68696806A898470DB0F0BD7C
:10A9A400284940F2452004F0CFF99CE7AB68C4F88D
:10A9B40008330223AB60AB68C4F804330123236279
:10A9C4006361EBE7D4F83C25B5E7D4F83C35B7E749
:10A9D4000023C4F84831D4F848310593059B2B7BF8
:10A9E4008BB907AE05F10C070FCF0FC63B68336078
:10A9F40095F83030002BBED1C4F80032AB60104B58
:10AA0400C4F80833B7E74FF40073C4F8003240F2D7
:10AA14000223AB6003F1CE73C4F80833AB68C4F807
:10AA240004330123A3602362B8E713F0040F03D0B7
:10AA340002238DF81830A8E700238DF81830A4E716
:10AA440002029C012888030008B502490248FFF766
:10AA540043FF08BD607C0020003000402DE9F8432E
:10AA6400054690461F460C46002978D02268636844
:10AA74009A4279D02E794E4B342101FB063191F85C
:10AA84002D30002B40F08D804A49286803F0C6FB26
:10AA94008146002840F088804549342202FB06F2B2
:10AAA4008B1841F802805F6000229A6083F830209E
:10AAB40083F82F20627B83F8322027681F2F58D811
:10AAC40007F5E0774FF0A04340F20C6243F82720EB
:10AAD40067681F2F53D807F5E0774FF0A04340F283
:10AAE4000C6243F827202B6821686268C3F80815B4
:10AAF400C3F80C25A268C3F82425342303FB06F30A
:10AB04002B4AD3580BB32F6847F30737247BA31E74
:10AB1400DBB2012B03D9631FDBB2022B35D8002F24
:10AB240038DB6401E4B207F1604707F5614787F851
:10AB340000432B6843F30732C3F304335209012162
:10AB440001FA03F31C4941F82230194B342202FB69
:10AB54000636012386F82D304846BDE8F8831749A8
:10AB6400A92004F0F1F881E71449AA2004F0ECF8D4
:10AB740080E713494FF4F37004F0E6F8A0E71049B6
:10AB84004FF4F37004F0E0F8A5E70E496B2004F0ED
:10AB9400DBF8C4E707F00F076401E4B20A4BDC55A5
:10ABA400C7E74FF00809D7E74FF01109D4E700BF12
:10ABB400607C00204DAA020000E100E02888030028
:10ABC400908803006C87030014ED00E038B5054657
:10ABD40004790D4A342303FB042393F82D30012B0D
:10ABE4000BD12B680622C3F80025074B342202FB45
:10ABF4000434022384F82D3038BD044940F2111086
:10AC040004F0A2F8EDE700BF607C00202888030070
:10AC14002DE9F04788B004460D46164603792BB952
:10AC24004B68FF2B02D88B68FF2B04D9BF494FF424
:10AC3400F77004F089F894F804A0DFF8F49234274C
:10AC440007FB0AF709EB070859F80730002B51D026
:10AC5400342303FB0AF3B64AD358002B53D0246899
:10AC6400EB6803F06043B3F1005F40F05681B14BF1
:10AC7400C4F8083398F82F30002B4DD116F0140F78
:10AC84000CBF0123002388F82F3008F10C0CAE46CA
:10AC9400BEE80F00ACE80F00DEF80030CCF800305E
:10ACA400C6F3001388F830306B78C4F88835002375
:10ACB400C4F80431D4F804210592059AC4F8243167
:10ACC400D4F824310693069B16F0010F2AD00123F1
:10ACD400C4F8503516F0020F28D00123C4F84035CB
:10ACE4002B78032B00F2F580DFE813F09F00DE00E1
:10ACF4007E0024002B78022BAAD18C494FF4FB70E0
:10AD040004F022F8A4E72B78032BA8D1874940F25A
:10AD1400F71004F019F8A2E7D8F80830C4F804339F
:10AD24001120FBE00023C4F85035D3E70023C4F816
:10AD34004035D5E716F0100F44D116F0080F47D16F
:10AD440016F0040F4AD12B6903F06043B3F1005F9E
:10AD540040F0E7804FF48073C4F80032EA686B680F
:10AD6400C4F84425C4F848350023C4F85031D4F855
:10AD740050210292029AC4F86031D4F860210392FF
:10AD8400039AC4F84831D4F848310493049B01234E
:10AD94002362A360D4F85031002BFBD00020C4F808
:10ADA4005001D4F850310193019B2A69AB68C4F86F
:10ADB4004425C4F84835604BC8F808304FF4827213
:10ADC40008234FE0594940F2711003F0BDFFB4E786
:10ADD40056494FF4B97003F0B7FFB1E7534940F255
:10ADE400731003F0B1FFAEE7EA686B68C4F844255A
:10ADF400C4F848352B6903F06042B2F1005F40F0BB
:10AE04009280AA68C4F83435C4F838254FF48453C2
:10AE1400C4F8003240F20223C8F808300123236248
:10AE24004FF48272082300201CE0EA686B68C4F8BF
:10AE34004425C4F8483516F0200F2AD04FF4807307
:10AE4400C4F800323C4BC8F808300023C4F8483139
:10AE5400D4F848310093009B4FF4A4720123236279
:10AE64000823002016F0080F04D12978032901D003
:10AE74000121E15059F8073083B316F0040F03D0D1
:10AE84004FF40073C8F80830D8F80830C4F8043315
:10AE940044E04FF40073C4F8003240F20223C8F8CF
:10AEA40008304FF48272D9E7EA686B68C4F8342535
:10AEB400C4F838354FF48053C4F8003240F202230A
:10AEC400C8F80830012323624FF482720023184625
:10AED400C8E74FF4827208230720C3E7A35883B955
:10AEE400D4F82431002BF9D00023C4F82431D4F849
:10AEF40024310793079B0123236263614FF4827219
:10AF0400ECE7D4F8C434C4F8C434002288F82F2001
:10AF140023B11846FFF7D0FC00E0102008B0BDE8CC
:10AF2400F0871020FAE71020F8E700BF2888030014
:10AF3400607C002002029C010002040030B587B04E
:10AF44009DF8285000240194039405948DF805106D
:10AF5400029304922DB1202201A9FFF759FE07B0F4
:10AF640030BD0022F8E7000000B585B003788DF805
:10AF7400003003798DF8043043798DF80530836807
:10AF84008DF80630C3688DF807300369029343696E
:10AF94000393054B53F82130044A52F821106846B4
:10AFA400984705B05DF804FB9C7C0020947C00204D
:10AFB400F8B5044603684FF0A04203F5E07340F28D
:10AFC4000C6142F82310436803F5E07342F8231040
:10AFD40005681F2D22D80123AB404FF0A042C2F8D0
:10AFE400083565681F2D1FD80122AA404FF0A043E1
:10AFF400C3F80825226802F5E07240F20D6143F8B7
:10B004002210626802F5E07243F82210374E46F0CF
:10B0140001064FF48070B04700253DE034494FF4F9
:10B02400F37003F091FED6E731494FF4F37003F067
:10B034008BFED9E72E494FF4F37003F085FE30E020
:10B04400A5B165681F2D44D80123AB404FF0A04241
:10B05400C2F80C354FF48070B04764681F2C3ED89A
:10B064000123A3404FF0A042C2F80835F8BD20499F
:10B074004FF4F37003F068FE1EE01D494FF4F370C3
:10B0840003F062FE0123BB404FF0A042C2F8083532
:10B094004FF48070B0470135082DD2DC67681F2F4C
:10B0A400C8D84FF0A043D3F81035FB4013F0010F7C
:10B0B400C6D127681F2FDAD80123BB404FF0A04226
:10B0C400C2F80C354FF48070B04727681F2FD9D9C8
:10B0D400D3E707494FF4F37003F036FEB4E70449AD
:10B0E4004FF4F37003F030FEBAE700BFE0880300CA
:10B0F40090880300F8B504460E46154607780A4AB8
:10B1040042F82750094A42F827304B7B43B9201DA7
:10B1140005B1074D3B462A463146FFF79FFCF8BD73
:10B124000846FFF745FFF2E79C7C0020947C002052
:10B134006DAF0200044B1B7823B9034B01221A7034
:10B144000020704785207047A47C00200F4B1B789B
:10B15400062B01D0002070470D4B1B6813F00F0F16
:10B164000BD10C4B1B6803F0F003302B07D0402BA2
:10B1740007D0502B07D000207047002070470120D3
:10B184007047012070470120704700BFE00F00F0B6
:10B19400E40F00F0E80F00F00B4B1B78062B01D0F6
:10B1A40000207047094B1B6813F00F0F07D1084BA1
:10B1B4001B6803F0F003302B03D0002070470020FD
:10B1C40070470120704700BFE00F00F0E40F00F06B
:10B1D400E80F00F00F4B1B78062B01D000207047BE
:10B1E4000D4B1B6813F00F0F0BD10C4B1B6803F0B6
:10B1F400F003302B07D0402B07D0502B07D0002072
:10B2040070470020704701207047012070470120DB
:10B21400704700BFE00F00F0E40F00F0E80F00F00B
:10B224000B4B1B78062B01D000207047094B1B6881
:10B2340013F00F0F07D1084B1B6803F0F003302BFA
:10B2440003D000207047002070470120704700BFE2
:10B25400E00F00F0E40F00F0E80F00F00F4B1B7854
:10B26400062B01D0002070470D4B1B6813F00F0F05
:10B274000BD10C4B1B6803F0F003302B07D0402B91
:10B2840007D0502B07D000207047002070470120C2
:10B294007047012070470120704700BFE00F00F0A5
:10B2A400E40F00F0E80F00F00B4B1B78062B01D0E5
:10B2B40000207047094B1B6813F00F0F07D1084B90
:10B2C4001B6803F0F003302B03D0002070470020EC
:10B2D40070470120704700BFE00F00F0E40F00F05A
:10B2E400E80F00F00B4B1B78062B01D000207047B1
:10B2F400094B1B6813F00F0F07D1084B1B6803F0B1
:10B30400F003302B03D00020704700207047012049
:10B31400704700BFE00F00F0E40F00F0E80F00F00A
:10B324000B4B1B78062B01D000207047094B1B6880
:10B3340013F00F0F07D1084B1B6803F0F003502BD9
:10B3440003D000207047002070470120704700BFE1
:10B35400E00F00F0E40F00F0E80F00F00F4B1B7853
:10B36400062B01D0002070470D4B1B6813F00F0F04
:10B374000BD10C4B1B6803F0F003302B07D0402B90
:10B3840007D0502B07D000207047002070470120C1
:10B394007047012070470120704700BFE00F00F0A4
:10B3A400E40F00F0E80F00F00F4B1B78062B01D0E0
:10B3B400002070470D4B1B6813F00F0F0BD10C4B83
:10B3C4001B6803F0F003302B07D0402B07D0502B21
:10B3D40007D00020704700207047012070470120EB
:10B3E40070470120704700BFE00F00F0E40F00F049
:10B3F400E80F00F0064B1B68062B01D000207047B5
:10B40400044B1B68062B01D00020704701207047B5
:10B414003001001034010010014B024A1A607047D9
:10B42400D45700200090D00308B5FFF78FFE28B151
:10B434007B4B1B68C3F304237A4A1360FFF7ACFE0B
:10B4440010B1794B794A1A60FFF7C4FE28B1784BE2
:10B454001B68C3F34233774A1360FFF7E1FE20B160
:10B46400754AD36823F08073D360FFF7F7FE40B1C9
:10B474004FF080430022C3F80C21C3F81021C3F815
:10B484003825FFF711FF10B16C4B03221A60FFF748
:10B4940029FF58B16A4B05221A60783301221A60D9
:10B4A400703B00221A60043B3F221A60FFF738FF0A
:10B4B400002846D04FF08052D2F80414614BC3F8F0
:10B4C4002015D2F80814C3F82415D2F80C14C3F8C4
:10B4D4002815D2F81014C3F82C15D2F81414C3F894
:10B4E4003015D2F81814C3F83415D2F81C14C3F864
:10B4F4004015D2F82014C3F84415D2F82414C3F824
:10B504004815D2F82814C3F84C15D2F82C14C3F8F3
:10B514005015D2F83014C3F85415D2F83414C3F8C3
:10B524006015D2F83814C3F86415D2F83C14C3F883
:10B534006815D2F84014C3F86C15D2F84424C3F843
:10B544007025FFF70BFF28B13F4B1B6803F04F0337
:10B554003E4A1360FFF728FF60B14FF08043D3F8F1
:10B56400003413F0010F05D04FF080436FF0010257
:10B57400C3F80024FFF73EFF20B1354A136843F4B3
:10B5840080631360334AD2F8883043F47003C2F8FE
:10B594008830BFF34F8FBFF36F8F4FF01023D3F872
:10B5A4000032002B08DB4FF01023D3F80432002BB9
:10B5B40002DBFFF731FF08BD274B0122C3F8042546
:10B5C400254BD3F80034002BFAD04FF0102315226A
:10B5D400C3F80022204BD3F80034002BFAD04FF0EC
:10B5E40010231522C3F804221B4BD3F80034002B7C
:10B5F400FAD0194B0022C3F80425174BD3F80034B2
:10B60400002BFAD0BFF34F8F1249CA6802F4E062EC
:10B61400124B1343CB60BFF34F8F00BFFDE700BF56
:10B62400240300104035014074C007400DF0ADBA4A
:10B63400440200103C050040F0ED00E0A00500408D
:10B644001056004000C0004058020010E40E0040B4
:10B654003C17004000ED00E000E001400400FA0562
:10B6640038B5044610F0070F02D020F00704083460
:10B6740001F00EF90F4B1B688BB10F4B1B681C4478
:10B6840043F6F772944210D8A34210D2094A1568BF
:10B694001D44094B1C6001F0ABF9284638BD074B2B
:10B6A40023F00703034A1360E7E70025F3E70025C7
:10B6B400F1E700BFA87C0020ACBC0020B47C0020D3
:10B6C40028B108B50249832003F03EFB08BD70474A
:10B6D400E888030000F1080343604FF0FF32826002
:10B6E400C360036100230360704700230361704754
:10B6F40043684B609A688A60516099600861036886
:10B7040001330360704730B40D68B5F1FF3F11D0C9
:10B7140000F108031C465B681A68AA42FAD96368F8
:10B724004B6099608C606160086103680133036059
:10B7340030BC70470469F2E70369416882688A6033
:10B74400416851605A68824206D0002202611A6838
:10B75400013A1A601868704782685A60F5E7000079
:10B764000748006880F3088862B661B6BFF34F8F5C
:10B77400BFF36F8F4FF4F07080F3118800DF00BFC8
:10B7840000600200064B19680868B0E8F04F80F3C7
:10B794000988BFF36F8F4FF0000080F31188704762
:10B7A400CCBC0020EFF30980BFF36F8F144B1A68F1
:10B7B4001EF0100F08BF20ED108A20E9F04F106032
:10B7C4004DF8043D4FF0400080F31188BFF34F8FD4
:10B7D400BFF36F8F01F0E8F94FF0000080F3118898
:10B7E40008BC19680868B0E8F04F1EF0100F08BFD5
:10B7F400B0EC108A80F30988BFF36F8F704700BFE5
:10B80400CCBC0020034AD2F8883043F47003C2F859
:10B814008830704700ED00E008B5074B1B68B3F1B2
:10B82400FF3F03D1402383F31188FEE703499E20A1
:10B8340003F08AFAF6E700BFB8BC00205C89030075
:10B844004FF0807340F8043C40F8081C054B40F866
:10B854000C3C40F8202C6FF0020340F8243C4438A0
:10B86400704700BF1DB8020010B582B0264B1A689D
:10B87400264B9A4222D1264B1A78D2B20192FF2249
:10B884001A701B78DBB28DF803309DF8033003F097
:10B894000203204A1370204B07221A609DF80330DC
:10B8A40013F0800F0FD01C4A1368013B13609DF8FE
:10B8B40003305B00DBB28DF80330EFE71749B020AB
:10B8C40003F042FAD7E7144A136803F0070313603E
:10B8D400019BDBB20E4A13700B4CE02384F8223038
:10B8E40000F0C2F80E4B00221A60FFF78BFF0D4ADE
:10B8F400536843F040435360236943F010032361CA
:10B90400FFF72EFFFFF788FF00ED00E041C20F4173
:10B9140000E400E0B0BC0020B4BC00205C8903005B
:10B92400B8BC002030EF00E008B5402383F3118851
:10B93400094A136801331360012B00D008BD074B7B
:10B944005B68C3F30803002BF8D0054940F21110DB
:10B9540003F0FAF9F2E700BFB8BC002000ED00E004
:10B964005C89030008B5084B1B683BB1064A1368A1
:10B97400013B13600BB983F3118808BD03494FF4ED
:10B984008C7003F0E1F9F1E7B8BC00205C89030096
:10B9940008B5EFF30583C3F308030F2B09D903F1AB
:10B9A400E023F03393F80033DBB20C4A12789A4266
:10B9B40008D80B4BDB68C3F302230A4A12689A4285
:10B9C40006D308BD08494FF4A97003F0BDF9F0E7A8
:10B9D40005494FF4B17003F0B7F9F2E7B0BC0020A9
:10B9E40000ED00E0B4BC00205C89030041DF704737
:10B9F400F0B583B0194B00221A601B680193019BB8
:10BA0400EFF31187402383F31188154BD3F80445D2
:10BA140003F580731A601B680093009B00F040FFDD
:10BA2400241A24F07F4434F0010307D10025661E54
:10BA340054B100F05DFF05433446F8E701F0EAF93C
:10BA44000228F3D00124F1E725B1064B4FF08052D0
:10BA54005A6040BF87F3118803B0F0BD4011014024
:10BA64000010014000ED00E008B5002001F0EAFEFE
:10BA74000A4B1F22C3F808250122C3F804230849EE
:10BA84000A601A600222C3F84423064BE02283F8BA
:10BA940011234FF400321A6008BD00BF00100140AA
:10BAA4000810014000E100E030B585B00446454B84
:10BAB400984200D91C46EFF3108272B6424B9B6841
:10BAC4008BB9414901238B60404BD3F88000404D32
